{
	"data": {
		"bytecode": {
			"linkReferences": {},
			"object": "608060405234801561001057600080fd5b506108cb806100206000396000f3fe6080604052600436106100555760003560e01c80631eab71401461005a57806346df1b6f146100975780636a8bb7cc146100c057806386ceea6d146100eb5780639339ff97146101075780639c3a4beb14610132575b600080fd5b34801561006657600080fd5b50610081600480360381019061007c9190610495565b61015d565b60405161008e919061064c565b60405180910390f35b3480156100a357600080fd5b506100be60048036038101906100b9919061051e565b6101bc565b005b3480156100cc57600080fd5b506100d56102c8565b6040516100e2919061064c565b60405180910390f35b610105600480360381019061010091906104c2565b6102ce565b005b34801561011357600080fd5b5061011c610326565b604051610129919061062a565b60405180910390f35b34801561013e57600080fd5b5061014761035f565b604051610154919061060f565b60405180910390f35b600080600190503373ffffffffffffffffffffffffffffffffffffffff16837fa4e63fd372f45acb6181a4bc05e6d53c5faa3fe81ceb10e4266c7bec09eadb2a836040516101ab919061064c565b60405180910390a380915050919050565b8260006040516020016101d0929190610667565b6040516020818303038152906040528051906020012060001c816000815181106101fd576101fc6107f6565b5b6020026020010181815250508060008151811061021d5761021c6107f6565b5b6020026020010151600081905550600063164f005560e01b600160006101000a81548163ffffffff021916908360e01c0217905550600063164f005560e01b604051602401604051602081830303815290604052907bffffffffffffffffffffffffffffffffffffffffffffffffffffffff19166020820180517bffffffffffffffffffffffffffffffffffffffffffffffffffffffff838183161783525050505090505050505050565b60005481565b6103228282600067ffffffffffffffff8111156102ee576102ed610825565b5b60405190808252806020026020018201604052801561031c5781602001602082028036833780820191505090505b506101bc565b5050565b6040518060400160405280600b81526020017f736f6d6520737472696e6700000000000000000000000000000000000000000081525081565b600160009054906101000a900460e01b81565b6000610385610380846106b5565b610690565b905080838252602082019050828560208602820111156103a8576103a7610859565b5b60005b858110156103d857816103be8882610480565b8452602084019350602083019250506001810190506103ab565b5050509392505050565b60006103f56103f0846106e1565b610690565b9050828152602081018484840111156104115761041061085e565b5b61041c848285610783565b509392505050565b600082601f83011261043957610438610854565b5b8135610449848260208601610372565b91505092915050565b600082601f83011261046757610466610854565b5b81356104778482602086016103e2565b91505092915050565b60008135905061048f8161087e565b92915050565b6000602082840312156104ab576104aa610868565b5b60006104b984828501610480565b91505092915050565b600080604083850312156104d9576104d8610868565b5b60006104e785828601610480565b925050602083013567ffffffffffffffff81111561050857610507610863565b5b61051485828601610452565b9150509250929050565b60008060006060848603121561053757610536610868565b5b600061054586828701610480565b935050602084013567ffffffffffffffff81111561056657610565610863565b5b61057286828701610452565b925050604084013567ffffffffffffffff81111561059357610592610863565b5b61059f86828701610424565b9150509250925092565b6105b28161072e565b82525050565b6105c181610771565b82525050565b60006105d282610712565b6105dc818561071d565b93506105ec818560208601610792565b6105f58161086d565b840191505092915050565b6106098161075a565b82525050565b600060208201905061062460008301846105a9565b92915050565b6000602082019050818103600083015261064481846105c7565b905092915050565b60006020820190506106616000830184610600565b92915050565b600060408201905061067c6000830185610600565b61068960208301846105b8565b9392505050565b600061069a6106ab565b90506106a682826107c5565b919050565b6000604051905090565b600067ffffffffffffffff8211156106d0576106cf610825565b5b602082029050602081019050919050565b600067ffffffffffffffff8211156106fc576106fb610825565b5b6107058261086d565b9050602081019050919050565b600081519050919050565b600082825260208201905092915050565b60007fffffffff0000000000000000000000000000000000000000000000000000000082169050919050565b6000819050919050565b600060ff82169050919050565b600061077c82610764565b9050919050565b82818337600083830152505050565b60005b838110156107b0578082015181840152602081019050610795565b838111156107bf576000848401525b50505050565b6107ce8261086d565b810181811067ffffffffffffffff821117156107ed576107ec610825565b5b80604052505050565b7f4e487b7100000000000000000000000000000000000000000000000000000000600052603260045260246000fd5b7f4e487b7100000000000000000000000000000000000000000000000000000000600052604160045260246000fd5b600080fd5b600080fd5b600080fd5b600080fd5b600080fd5b6000601f19601f8301169050919050565b6108878161075a565b811461089257600080fd5b5056fea2646970667358221220b8799b4c20e05ddc053d1b9c0177a917996852902a3260053633deb7b675bcd064736f6c63430008070033",
			"opcodes": "PUSH1 0x80 PUSH1 0x40 MSTORE CALLVALUE DUP1 ISZERO PUSH2 0x10 JUMPI PUSH1 0x0 DUP1 REVERT JUMPDEST POP PUSH2 0x8CB DUP1 PUSH2 0x20 PUSH1 0x0 CODECOPY PUSH1 0x0 RETURN INVALID PUSH1 0x80 PUSH1 0x40 MSTORE PUSH1 0x4 CALLDATASIZE LT PUSH2 0x55 JUMPI PUSH1 0x0 CALLDATALOAD PUSH1 0xE0 SHR DUP1 PUSH4 0x1EAB7140 EQ PUSH2 0x5A JUMPI DUP1 PUSH4 0x46DF1B6F EQ PUSH2 0x97 JUMPI DUP1 PUSH4 0x6A8BB7CC EQ PUSH2 0xC0 JUMPI DUP1 PUSH4 0x86CEEA6D EQ PUSH2 0xEB JUMPI DUP1 PUSH4 0x9339FF97 EQ PUSH2 0x107 JUMPI DUP1 PUSH4 0x9C3A4BEB EQ PUSH2 0x132 JUMPI JUMPDEST PUSH1 0x0 DUP1 REVERT JUMPDEST CALLVALUE DUP1 ISZERO PUSH2 0x66 JUMPI PUSH1 0x0 DUP1 REVERT JUMPDEST POP PUSH2 0x81 PUSH1 0x4 DUP1 CALLDATASIZE SUB DUP2 ADD SWAP1 PUSH2 0x7C SWAP2 SWAP1 PUSH2 0x495 JUMP JUMPDEST PUSH2 0x15D JUMP JUMPDEST PUSH1 0x40 MLOAD PUSH2 0x8E SWAP2 SWAP1 PUSH2 0x64C JUMP JUMPDEST PUSH1 0x40 MLOAD DUP1 SWAP2 SUB SWAP1 RETURN JUMPDEST CALLVALUE DUP1 ISZERO PUSH2 0xA3 JUMPI PUSH1 0x0 DUP1 REVERT JUMPDEST POP PUSH2 0xBE PUSH1 0x4 DUP1 CALLDATASIZE SUB DUP2 ADD SWAP1 PUSH2 0xB9 SWAP2 SWAP1 PUSH2 0x51E JUMP JUMPDEST PUSH2 0x1BC JUMP JUMPDEST STOP JUMPDEST CALLVALUE DUP1 ISZERO PUSH2 0xCC JUMPI PUSH1 0x0 DUP1 REVERT JUMPDEST POP PUSH2 0xD5 PUSH2 0x2C8 JUMP JUMPDEST PUSH1 0x40 MLOAD PUSH2 0xE2 SWAP2 SWAP1 PUSH2 0x64C JUMP JUMPDEST PUSH1 0x40 MLOAD DUP1 SWAP2 SUB SWAP1 RETURN JUMPDEST PUSH2 0x105 PUSH1 0x4 DUP1 CALLDATASIZE SUB DUP2 ADD SWAP1 PUSH2 0x100 SWAP2 SWAP1 PUSH2 0x4C2 JUMP JUMPDEST PUSH2 0x2CE JUMP JUMPDEST STOP JUMPDEST CALLVALUE DUP1 ISZERO PUSH2 0x113 JUMPI PUSH1 0x0 DUP1 REVERT JUMPDEST POP PUSH2 0x11C PUSH2 0x326 JUMP JUMPDEST PUSH1 0x40 MLOAD PUSH2 0x129 SWAP2 SWAP1 PUSH2 0x62A JUMP JUMPDEST PUSH1 0x40 MLOAD DUP1 SWAP2 SUB SWAP1 RETURN JUMPDEST CALLVALUE DUP1 ISZERO PUSH2 0x13E JUMPI PUSH1 0x0 DUP1 REVERT JUMPDEST POP PUSH2 0x147 PUSH2 0x35F JUMP JUMPDEST PUSH1 0x40 MLOAD PUSH2 0x154 SWAP2 SWAP1 PUSH2 0x60F JUMP JUMPDEST PUSH1 0x40 MLOAD DUP1 SWAP2 SUB SWAP1 RETURN JUMPDEST PUSH1 0x0 DUP1 PUSH1 0x1 SWAP1 POP CALLER PUSH20 0xFFFFFFFFFFFFFFFFFFFFFFFFFFFFFFFFFFFFFFFF AND DUP4 PUSH32 0xA4E63FD372F45ACB6181A4BC05E6D53C5FAA3FE81CEB10E4266C7BEC09EADB2A DUP4 PUSH1 0x40 MLOAD PUSH2 0x1AB SWAP2 SWAP1 PUSH2 0x64C JUMP JUMPDEST PUSH1 0x40 MLOAD DUP1 SWAP2 SUB SWAP1 LOG3 DUP1 SWAP2 POP POP SWAP2 SWAP1 POP JUMP JUMPDEST DUP3 PUSH1 0x0 PUSH1 0x40 MLOAD PUSH1 0x20 ADD PUSH2 0x1D0 SWAP3 SWAP2 SWAP1 PUSH2 0x667 JUMP JUMPDEST PUSH1 0x40 MLOAD PUSH1 0x20 DUP2 DUP4 SUB SUB DUP2 MSTORE SWAP1 PUSH1 0x40 MSTORE DUP1 MLOAD SWAP1 PUSH1 0x20 ADD KECCAK256 PUSH1 0x0 SHR DUP2 PUSH1 0x0 DUP2 MLOAD DUP2 LT PUSH2 0x1FD JUMPI PUSH2 0x1FC PUSH2 0x7F6 JUMP JUMPDEST JUMPDEST PUSH1 0x20 MUL PUSH1 0x20 ADD ADD DUP2 DUP2 MSTORE POP POP DUP1 PUSH1 0x0 DUP2 MLOAD DUP2 LT PUSH2 0x21D JUMPI PUSH2 0x21C PUSH2 0x7F6 JUMP JUMPDEST JUMPDEST PUSH1 0x20 MUL PUSH1 0x20 ADD ADD MLOAD PUSH1 0x0 DUP2 SWAP1 SSTORE POP PUSH1 0x0 PUSH4 0x164F0055 PUSH1 0xE0 SHL PUSH1 0x1 PUSH1 0x0 PUSH2 0x100 EXP DUP2 SLOAD DUP2 PUSH4 0xFFFFFFFF MUL NOT AND SWAP1 DUP4 PUSH1 0xE0 SHR MUL OR SWAP1 SSTORE POP PUSH1 0x0 PUSH4 0x164F0055 PUSH1 0xE0 SHL PUSH1 0x40 MLOAD PUSH1 0x24 ADD PUSH1 0x40 MLOAD PUSH1 0x20 DUP2 DUP4 SUB SUB DUP2 MSTORE SWAP1 PUSH1 0x40 MSTORE SWAP1 PUSH28 0xFFFFFFFFFFFFFFFFFFFFFFFFFFFFFFFFFFFFFFFFFFFFFFFFFFFFFFFF NOT AND PUSH1 0x20 DUP3 ADD DUP1 MLOAD PUSH28 0xFFFFFFFFFFFFFFFFFFFFFFFFFFFFFFFFFFFFFFFFFFFFFFFFFFFFFFFF DUP4 DUP2 DUP4 AND OR DUP4 MSTORE POP POP POP POP SWAP1 POP POP POP POP POP POP JUMP JUMPDEST PUSH1 0x0 SLOAD DUP2 JUMP JUMPDEST PUSH2 0x322 DUP3 DUP3 PUSH1 0x0 PUSH8 0xFFFFFFFFFFFFFFFF DUP2 GT ISZERO PUSH2 0x2EE JUMPI PUSH2 0x2ED PUSH2 0x825 JUMP JUMPDEST JUMPDEST PUSH1 0x40 MLOAD SWAP1 DUP1 DUP3 MSTORE DUP1 PUSH1 0x20 MUL PUSH1 0x20 ADD DUP3 ADD PUSH1 0x40 MSTORE DUP1 ISZERO PUSH2 0x31C JUMPI DUP2 PUSH1 0x20 ADD PUSH1 0x20 DUP3 MUL DUP1 CALLDATASIZE DUP4 CALLDATACOPY DUP1 DUP3 ADD SWAP2 POP POP SWAP1 POP JUMPDEST POP PUSH2 0x1BC JUMP JUMPDEST POP POP JUMP JUMPDEST PUSH1 0x40 MLOAD DUP1 PUSH1 0x40 ADD PUSH1 0x40 MSTORE DUP1 PUSH1 0xB DUP2 MSTORE PUSH1 0x20 ADD PUSH32 0x736F6D6520737472696E67000000000000000000000000000000000000000000 DUP2 MSTORE POP DUP2 JUMP JUMPDEST PUSH1 0x1 PUSH1 0x0 SWAP1 SLOAD SWAP1 PUSH2 0x100 EXP SWAP1 DIV PUSH1 0xE0 SHL DUP2 JUMP JUMPDEST PUSH1 0x0 PUSH2 0x385 PUSH2 0x380 DUP5 PUSH2 0x6B5 JUMP JUMPDEST PUSH2 0x690 JUMP JUMPDEST SWAP1 POP DUP1 DUP4 DUP3 MSTORE PUSH1 0x20 DUP3 ADD SWAP1 POP DUP3 DUP6 PUSH1 0x20 DUP7 MUL DUP3 ADD GT ISZERO PUSH2 0x3A8 JUMPI PUSH2 0x3A7 PUSH2 0x859 JUMP JUMPDEST JUMPDEST PUSH1 0x0 JUMPDEST DUP6 DUP2 LT ISZERO PUSH2 0x3D8 JUMPI DUP2 PUSH2 0x3BE DUP9 DUP3 PUSH2 0x480 JUMP JUMPDEST DUP5 MSTORE PUSH1 0x20 DUP5 ADD SWAP4 POP PUSH1 0x20 DUP4 ADD SWAP3 POP POP PUSH1 0x1 DUP2 ADD SWAP1 POP PUSH2 0x3AB JUMP JUMPDEST POP POP POP SWAP4 SWAP3 POP POP POP JUMP JUMPDEST PUSH1 0x0 PUSH2 0x3F5 PUSH2 0x3F0 DUP5 PUSH2 0x6E1 JUMP JUMPDEST PUSH2 0x690 JUMP JUMPDEST SWAP1 POP DUP3 DUP2 MSTORE PUSH1 0x20 DUP2 ADD DUP5 DUP5 DUP5 ADD GT ISZERO PUSH2 0x411 JUMPI PUSH2 0x410 PUSH2 0x85E JUMP JUMPDEST JUMPDEST PUSH2 0x41C DUP5 DUP3 DUP6 PUSH2 0x783 JUMP JUMPDEST POP SWAP4 SWAP3 POP POP POP JUMP JUMPDEST PUSH1 0x0 DUP3 PUSH1 0x1F DUP4 ADD SLT PUSH2 0x439 JUMPI PUSH2 0x438 PUSH2 0x854 JUMP JUMPDEST JUMPDEST DUP2 CALLDATALOAD PUSH2 0x449 DUP5 DUP3 PUSH1 0x20 DUP7 ADD PUSH2 0x372 JUMP JUMPDEST SWAP2 POP POP SWAP3 SWAP2 POP POP JUMP JUMPDEST PUSH1 0x0 DUP3 PUSH1 0x1F DUP4 ADD SLT PUSH2 0x467 JUMPI PUSH2 0x466 PUSH2 0x854 JUMP JUMPDEST JUMPDEST DUP2 CALLDATALOAD PUSH2 0x477 DUP5 DUP3 PUSH1 0x20 DUP7 ADD PUSH2 0x3E2 JUMP JUMPDEST SWAP2 POP POP SWAP3 SWAP2 POP POP JUMP JUMPDEST PUSH1 0x0 DUP2 CALLDATALOAD SWAP1 POP PUSH2 0x48F DUP2 PUSH2 0x87E JUMP JUMPDEST SWAP3 SWAP2 POP POP JUMP JUMPDEST PUSH1 0x0 PUSH1 0x20 DUP3 DUP5 SUB SLT ISZERO PUSH2 0x4AB JUMPI PUSH2 0x4AA PUSH2 0x868 JUMP JUMPDEST JUMPDEST PUSH1 0x0 PUSH2 0x4B9 DUP5 DUP3 DUP6 ADD PUSH2 0x480 JUMP JUMPDEST SWAP2 POP POP SWAP3 SWAP2 POP POP JUMP JUMPDEST PUSH1 0x0 DUP1 PUSH1 0x40 DUP4 DUP6 SUB SLT ISZERO PUSH2 0x4D9 JUMPI PUSH2 0x4D8 PUSH2 0x868 JUMP JUMPDEST JUMPDEST PUSH1 0x0 PUSH2 0x4E7 DUP6 DUP3 DUP7 ADD PUSH2 0x480 JUMP JUMPDEST SWAP3 POP POP PUSH1 0x20 DUP4 ADD CALLDATALOAD PUSH8 0xFFFFFFFFFFFFFFFF DUP2 GT ISZERO PUSH2 0x508 JUMPI PUSH2 0x507 PUSH2 0x863 JUMP JUMPDEST JUMPDEST PUSH2 0x514 DUP6 DUP3 DUP7 ADD PUSH2 0x452 JUMP JUMPDEST SWAP2 POP POP SWAP3 POP SWAP3 SWAP1 POP JUMP JUMPDEST PUSH1 0x0 DUP1 PUSH1 0x0 PUSH1 0x60 DUP5 DUP7 SUB SLT ISZERO PUSH2 0x537 JUMPI PUSH2 0x536 PUSH2 0x868 JUMP JUMPDEST JUMPDEST PUSH1 0x0 PUSH2 0x545 DUP7 DUP3 DUP8 ADD PUSH2 0x480 JUMP JUMPDEST SWAP4 POP POP PUSH1 0x20 DUP5 ADD CALLDATALOAD PUSH8 0xFFFFFFFFFFFFFFFF DUP2 GT ISZERO PUSH2 0x566 JUMPI PUSH2 0x565 PUSH2 0x863 JUMP JUMPDEST JUMPDEST PUSH2 0x572 DUP7 DUP3 DUP8 ADD PUSH2 0x452 JUMP JUMPDEST SWAP3 POP POP PUSH1 0x40 DUP5 ADD CALLDATALOAD PUSH8 0xFFFFFFFFFFFFFFFF DUP2 GT ISZERO PUSH2 0x593 JUMPI PUSH2 0x592 PUSH2 0x863 JUMP JUMPDEST JUMPDEST PUSH2 0x59F DUP7 DUP3 DUP8 ADD PUSH2 0x424 JUMP JUMPDEST SWAP2 POP POP SWAP3 POP SWAP3 POP SWAP3 JUMP JUMPDEST PUSH2 0x5B2 DUP2 PUSH2 0x72E JUMP JUMPDEST DUP3 MSTORE POP POP JUMP JUMPDEST PUSH2 0x5C1 DUP2 PUSH2 0x771 JUMP JUMPDEST DUP3 MSTORE POP POP JUMP JUMPDEST PUSH1 0x0 PUSH2 0x5D2 DUP3 PUSH2 0x712 JUMP JUMPDEST PUSH2 0x5DC DUP2 DUP6 PUSH2 0x71D JUMP JUMPDEST SWAP4 POP PUSH2 0x5EC DUP2 DUP6 PUSH1 0x20 DUP7 ADD PUSH2 0x792 JUMP JUMPDEST PUSH2 0x5F5 DUP2 PUSH2 0x86D JUMP JUMPDEST DUP5 ADD SWAP2 POP POP SWAP3 SWAP2 POP POP JUMP JUMPDEST PUSH2 0x609 DUP2 PUSH2 0x75A JUMP JUMPDEST DUP3 MSTORE POP POP JUMP JUMPDEST PUSH1 0x0 PUSH1 0x20 DUP3 ADD SWAP1 POP PUSH2 0x624 PUSH1 0x0 DUP4 ADD DUP5 PUSH2 0x5A9 JUMP JUMPDEST SWAP3 SWAP2 POP POP JUMP JUMPDEST PUSH1 0x0 PUSH1 0x20 DUP3 ADD SWAP1 POP DUP2 DUP2 SUB PUSH1 0x0 DUP4 ADD MSTORE PUSH2 0x644 DUP2 DUP5 PUSH2 0x5C7 JUMP JUMPDEST SWAP1 POP SWAP3 SWAP2 POP POP JUMP JUMPDEST PUSH1 0x0 PUSH1 0x20 DUP3 ADD SWAP1 POP PUSH2 0x661 PUSH1 0x0 DUP4 ADD DUP5 PUSH2 0x600 JUMP JUMPDEST SWAP3 SWAP2 POP POP JUMP JUMPDEST PUSH1 0x0 PUSH1 0x40 DUP3 ADD SWAP1 POP PUSH2 0x67C PUSH1 0x0 DUP4 ADD DUP6 PUSH2 0x600 JUMP JUMPDEST PUSH2 0x689 PUSH1 0x20 DUP4 ADD DUP5 PUSH2 0x5B8 JUMP JUMPDEST SWAP4 SWAP3 POP POP POP JUMP JUMPDEST PUSH1 0x0 PUSH2 0x69A PUSH2 0x6AB JUMP JUMPDEST SWAP1 POP PUSH2 0x6A6 DUP3 DUP3 PUSH2 0x7C5 JUMP JUMPDEST SWAP2 SWAP1 POP JUMP JUMPDEST PUSH1 0x0 PUSH1 0x40 MLOAD SWAP1 POP SWAP1 JUMP JUMPDEST PUSH1 0x0 PUSH8 0xFFFFFFFFFFFFFFFF DUP3 GT ISZERO PUSH2 0x6D0 JUMPI PUSH2 0x6CF PUSH2 0x825 JUMP JUMPDEST JUMPDEST PUSH1 0x20 DUP3 MUL SWAP1 POP PUSH1 0x20 DUP2 ADD SWAP1 POP SWAP2 SWAP1 POP JUMP JUMPDEST PUSH1 0x0 PUSH8 0xFFFFFFFFFFFFFFFF DUP3 GT ISZERO PUSH2 0x6FC JUMPI PUSH2 0x6FB PUSH2 0x825 JUMP JUMPDEST JUMPDEST PUSH2 0x705 DUP3 PUSH2 0x86D JUMP JUMPDEST SWAP1 POP PUSH1 0x20 DUP2 ADD SWAP1 POP SWAP2 SWAP1 POP JUMP JUMPDEST PUSH1 0x0 DUP2 MLOAD SWAP1 POP SWAP2 SWAP1 POP JUMP JUMPDEST PUSH1 0x0 DUP3 DUP3 MSTORE PUSH1 0x20 DUP3 ADD SWAP1 POP SWAP3 SWAP2 POP POP JUMP JUMPDEST PUSH1 0x0 PUSH32 0xFFFFFFFF00000000000000000000000000000000000000000000000000000000 DUP3 AND SWAP1 POP SWAP2 SWAP1 POP JUMP JUMPDEST PUSH1 0x0 DUP2 SWAP1 POP SWAP2 SWAP1 POP JUMP JUMPDEST PUSH1 0x0 PUSH1 0xFF DUP3 AND SWAP1 POP SWAP2 SWAP1 POP JUMP JUMPDEST PUSH1 0x0 PUSH2 0x77C DUP3 PUSH2 0x764 JUMP JUMPDEST SWAP1 POP SWAP2 SWAP1 POP JUMP JUMPDEST DUP3 DUP2 DUP4 CALLDATACOPY PUSH1 0x0 DUP4 DUP4 ADD MSTORE POP POP POP JUMP JUMPDEST PUSH1 0x0 JUMPDEST DUP4 DUP2 LT ISZERO PUSH2 0x7B0 JUMPI DUP1 DUP3 ADD MLOAD DUP2 DUP5 ADD MSTORE PUSH1 0x20 DUP2 ADD SWAP1 POP PUSH2 0x795 JUMP JUMPDEST DUP4 DUP2 GT ISZERO PUSH2 0x7BF JUMPI PUSH1 0x0 DUP5 DUP5 ADD MSTORE JUMPDEST POP POP POP POP JUMP JUMPDEST PUSH2 0x7CE DUP3 PUSH2 0x86D JUMP JUMPDEST DUP2 ADD DUP2 DUP2 LT PUSH8 0xFFFFFFFFFFFFFFFF DUP3 GT OR ISZERO PUSH2 0x7ED JUMPI PUSH2 0x7EC PUSH2 0x825 JUMP JUMPDEST JUMPDEST DUP1 PUSH1 0x40 MSTORE POP POP POP JUMP JUMPDEST PUSH32 0x4E487B7100000000000000000000000000000000000000000000000000000000 PUSH1 0x0 MSTORE PUSH1 0x32 PUSH1 0x4 MSTORE PUSH1 0x24 PUSH1 0x0 REVERT JUMPDEST PUSH32 0x4E487B7100000000000000000000000000000000000000000000000000000000 PUSH1 0x0 MSTORE PUSH1 0x41 PUSH1 0x4 MSTORE PUSH1 0x24 PUSH1 0x0 REVERT JUMPDEST PUSH1 0x0 DUP1 REVERT JUMPDEST PUSH1 0x0 DUP1 REVERT JUMPDEST PUSH1 0x0 DUP1 REVERT JUMPDEST PUSH1 0x0 DUP1 REVERT JUMPDEST PUSH1 0x0 DUP1 REVERT JUMPDEST PUSH1 0x0 PUSH1 0x1F NOT PUSH1 0x1F DUP4 ADD AND SWAP1 POP SWAP2 SWAP1 POP JUMP JUMPDEST PUSH2 0x887 DUP2 PUSH2 0x75A JUMP JUMPDEST DUP2 EQ PUSH2 0x892 JUMPI PUSH1 0x0 DUP1 REVERT JUMPDEST POP JUMP INVALID LOG2 PUSH5 0x6970667358 0x22 SLT KECCAK256 0xB8 PUSH26 0x9B4C20E05DDC053D1B9C0177A917996852902A3260053633DEB7 0xB6 PUSH22 0xBCD064736F6C63430008070033000000000000000000 "
		},
		"gasEstimates": {
			"creation": {
				"codeDepositCost": "450200",
				"executionCost": "486",
				"totalCost": "450686"
			},
			"external": {
				"bridgeFunctionSelector()": "2559",
				"externalContractFunction(uint256,string)": "infinite",
				"externalContractFunctionWithOverride(uint256,string,uint256[])": "infinite",
				"randomWords()": "2451",
				"requestWords(uint256)": "infinite",
				"s_someString()": "infinite"
			}
		},
		"methodIdentifiers": {
			"bridgeFunctionSelector()": "9c3a4beb",
			"externalContractFunction(uint256,string)": "86ceea6d",
			"externalContractFunctionWithOverride(uint256,string,uint256[])": "46df1b6f",
			"randomWords()": "6a8bb7cc",
			"requestWords(uint256)": "1eab7140",
			"s_someString()": "9339ff97"
		}
	},
	"abi": [
		{
			"anonymous": false,
			"inputs": [
				{
					"indexed": true,
					"internalType": "uint256",
					"name": "argument",
					"type": "uint256"
				},
				{
					"indexed": false,
					"internalType": "uint256",
					"name": "requestId",
					"type": "uint256"
				},
				{
					"indexed": true,
					"internalType": "address",
					"name": "sender",
					"type": "address"
				}
			],
			"name": "WordsRequested",
			"type": "event"
		},
		{
			"inputs": [],
			"name": "bridgeFunctionSelector",
			"outputs": [
				{
					"internalType": "bytes4",
					"name": "",
					"type": "bytes4"
				}
			],
			"stateMutability": "view",
			"type": "function"
		},
		{
			"inputs": [
				{
					"internalType": "uint256",
					"name": "_requestId",
					"type": "uint256"
				},
				{
					"internalType": "string",
					"name": "_someString",
					"type": "string"
				}
			],
			"name": "externalContractFunction",
			"outputs": [],
			"stateMutability": "payable",
			"type": "function"
		},
		{
			"inputs": [
				{
					"internalType": "uint256",
					"name": "_requestId",
					"type": "uint256"
				},
				{
					"internalType": "string",
					"name": "_someString",
					"type": "string"
				},
				{
					"internalType": "uint256[]",
					"name": "_words",
					"type": "uint256[]"
				}
			],
			"name": "externalContractFunctionWithOverride",
			"outputs": [],
			"stateMutability": "nonpayable",
			"type": "function"
		},
		{
			"inputs": [],
			"name": "randomWords",
			"outputs": [
				{
					"internalType": "uint256",
					"name": "",
					"type": "uint256"
				}
			],
			"stateMutability": "view",
			"type": "function"
		},
		{
			"inputs": [
				{
					"internalType": "uint256",
					"name": "_argument",
					"type": "uint256"
				}
			],
			"name": "requestWords",
			"outputs": [
				{
					"internalType": "uint256",
					"name": "",
					"type": "uint256"
				}
			],
			"stateMutability": "nonpayable",
			"type": "function"
		},
		{
			"inputs": [],
			"name": "s_someString",
			"outputs": [
				{
					"internalType": "string",
					"name": "",
					"type": "string"
				}
			],
			"stateMutability": "view",
			"type": "function"
		}
	]
}