{
	"contracts/4_Base.sol": {
		"Base": {
			"abi": [
				{
					"inputs": [
						{
							"internalType": "address",
							"name": "mockAddress",
							"type": "address"
						}
					],
					"stateMutability": "nonpayable",
					"type": "constructor"
				},
				{
					"anonymous": false,
					"inputs": [
						{
							"indexed": false,
							"internalType": "uint256",
							"name": "randomWord",
							"type": "uint256"
						}
					],
					"name": "BaseToMockSuccess",
					"type": "event"
				},
				{
					"inputs": [],
					"name": "i_argument",
					"outputs": [
						{
							"internalType": "uint256",
							"name": "",
							"type": "uint256"
						}
					],
					"stateMutability": "view",
					"type": "function"
				},
				{
					"inputs": [],
					"name": "i_mock",
					"outputs": [
						{
							"internalType": "contract IMock",
							"name": "",
							"type": "address"
						}
					],
					"stateMutability": "view",
					"type": "function"
				},
				{
					"inputs": [],
					"name": "internalRequest",
					"outputs": [
						{
							"internalType": "uint256",
							"name": "requestId",
							"type": "uint256"
						}
					],
					"stateMutability": "payable",
					"type": "function"
				},
				{
					"inputs": [
						{
							"internalType": "uint256",
							"name": "requestId",
							"type": "uint256"
						},
						{
							"internalType": "uint256[]",
							"name": "words",
							"type": "uint256[]"
						}
					],
					"name": "rawExternalContractFunction",
					"outputs": [],
					"stateMutability": "nonpayable",
					"type": "function"
				},
				{
					"inputs": [],
					"name": "s_randomWord",
					"outputs": [
						{
							"internalType": "uint256",
							"name": "",
							"type": "uint256"
						}
					],
					"stateMutability": "view",
					"type": "function"
				}
			],
			"devdoc": {
				"kind": "dev",
				"methods": {},
				"version": 1
			},
			"evm": {
				"assembly": "    /* \"contracts/4_Base.sol\":80:1011  contract Base is Bridge{\r... */\n  mstore(0x40, 0xe0)\n    /* \"contracts/4_Base.sol\":148:149  8 */\n  0x08\n    /* \"contracts/4_Base.sol\":110:149  uint256 public immutable i_argument = 8 */\n  0xa0\n  swap1\n  dup2\n  mstore\n  pop\n    /* \"contracts/4_Base.sol\":228:327  constructor(address mockAddress) Bridge(mockAddress) {\r... */\n  callvalue\n  dup1\n  iszero\n  tag_1\n  jumpi\n  0x00\n  dup1\n  revert\ntag_1:\n  pop\n  mload(0x40)\n  sub(codesize, bytecodeSize)\n  dup1\n  bytecodeSize\n  dup4\n  codecopy\n  dup2\n  dup2\n  add\n  0x40\n  mstore\n  dup2\n  add\n  swap1\n  tag_2\n  swap2\n  swap1\n  tag_3\n  jump\t// in\ntag_2:\n    /* \"contracts/4_Base.sol\":268:279  mockAddress */\n  dup1\n    /* \"contracts/5_Bridge.sol\":162:174  _mockAddress */\n  dup1\n    /* \"contracts/5_Bridge.sol\":148:174  mockAddress = _mockAddress */\n  0xffffffffffffffffffffffffffffffffffffffff\n  and\n  0x80\n  dup2\n  0xffffffffffffffffffffffffffffffffffffffff\n  and\n  0x60\n  shl\n  dup2\n  mstore\n  pop\n  pop\n    /* \"contracts/5_Bridge.sol\":103:182  constructor(address _mockAddress) {\r... */\n  pop\n    /* \"contracts/4_Base.sol\":307:318  mockAddress */\n  dup1\n    /* \"contracts/4_Base.sol\":292:319  i_mock = IMock(mockAddress) */\n  0xffffffffffffffffffffffffffffffffffffffff\n  and\n  0xc0\n  dup2\n  0xffffffffffffffffffffffffffffffffffffffff\n  and\n  0x60\n  shl\n  dup2\n  mstore\n  pop\n  pop\n    /* \"contracts/4_Base.sol\":228:327  constructor(address mockAddress) Bridge(mockAddress) {\r... */\n  pop\n    /* \"contracts/4_Base.sol\":80:1011  contract Base is Bridge{\r... */\n  jump(tag_8)\n    /* \"#utility.yul\":7:150   */\ntag_10:\n    /* \"#utility.yul\":64:69   */\n  0x00\n    /* \"#utility.yul\":95:101   */\n  dup2\n    /* \"#utility.yul\":89:102   */\n  mload\n    /* \"#utility.yul\":80:102   */\n  swap1\n  pop\n    /* \"#utility.yul\":111:144   */\n  tag_12\n    /* \"#utility.yul\":138:143   */\n  dup2\n    /* \"#utility.yul\":111:144   */\n  tag_13\n  jump\t// in\ntag_12:\n    /* \"#utility.yul\":7:150   */\n  swap3\n  swap2\n  pop\n  pop\n  jump\t// out\n    /* \"#utility.yul\":156:507   */\ntag_3:\n    /* \"#utility.yul\":226:232   */\n  0x00\n    /* \"#utility.yul\":275:277   */\n  0x20\n    /* \"#utility.yul\":263:272   */\n  dup3\n    /* \"#utility.yul\":254:261   */\n  dup5\n    /* \"#utility.yul\":250:273   */\n  sub\n    /* \"#utility.yul\":246:278   */\n  slt\n    /* \"#utility.yul\":243:362   */\n  iszero\n  tag_15\n  jumpi\n    /* \"#utility.yul\":281:360   */\n  tag_16\n  tag_17\n  jump\t// in\ntag_16:\n    /* \"#utility.yul\":243:362   */\ntag_15:\n    /* \"#utility.yul\":401:402   */\n  0x00\n    /* \"#utility.yul\":426:490   */\n  tag_18\n    /* \"#utility.yul\":482:489   */\n  dup5\n    /* \"#utility.yul\":473:479   */\n  dup3\n    /* \"#utility.yul\":462:471   */\n  dup6\n    /* \"#utility.yul\":458:480   */\n  add\n    /* \"#utility.yul\":426:490   */\n  tag_10\n  jump\t// in\ntag_18:\n    /* \"#utility.yul\":416:490   */\n  swap2\n  pop\n    /* \"#utility.yul\":372:500   */\n  pop\n    /* \"#utility.yul\":156:507   */\n  swap3\n  swap2\n  pop\n  pop\n  jump\t// out\n    /* \"#utility.yul\":594:690   */\ntag_21:\n    /* \"#utility.yul\":631:638   */\n  0x00\n    /* \"#utility.yul\":660:684   */\n  tag_23\n    /* \"#utility.yul\":678:683   */\n  dup3\n    /* \"#utility.yul\":660:684   */\n  tag_24\n  jump\t// in\ntag_23:\n    /* \"#utility.yul\":649:684   */\n  swap1\n  pop\n    /* \"#utility.yul\":594:690   */\n  swap2\n  swap1\n  pop\n  jump\t// out\n    /* \"#utility.yul\":696:822   */\ntag_24:\n    /* \"#utility.yul\":733:740   */\n  0x00\n    /* \"#utility.yul\":773:815   */\n  0xffffffffffffffffffffffffffffffffffffffff\n    /* \"#utility.yul\":766:771   */\n  dup3\n    /* \"#utility.yul\":762:816   */\n  and\n    /* \"#utility.yul\":751:816   */\n  swap1\n  pop\n    /* \"#utility.yul\":696:822   */\n  swap2\n  swap1\n  pop\n  jump\t// out\n    /* \"#utility.yul\":951:1068   */\ntag_17:\n    /* \"#utility.yul\":1060:1061   */\n  0x00\n    /* \"#utility.yul\":1057:1058   */\n  dup1\n    /* \"#utility.yul\":1050:1062   */\n  revert\n    /* \"#utility.yul\":1074:1196   */\ntag_13:\n    /* \"#utility.yul\":1147:1171   */\n  tag_30\n    /* \"#utility.yul\":1165:1170   */\n  dup2\n    /* \"#utility.yul\":1147:1171   */\n  tag_21\n  jump\t// in\ntag_30:\n    /* \"#utility.yul\":1140:1145   */\n  dup2\n    /* \"#utility.yul\":1137:1172   */\n  eq\n    /* \"#utility.yul\":1127:1190   */\n  tag_31\n  jumpi\n    /* \"#utility.yul\":1186:1187   */\n  0x00\n    /* \"#utility.yul\":1183:1184   */\n  dup1\n    /* \"#utility.yul\":1176:1188   */\n  revert\n    /* \"#utility.yul\":1127:1190   */\ntag_31:\n    /* \"#utility.yul\":1074:1196   */\n  pop\n  jump\t// out\n    /* \"contracts/4_Base.sol\":80:1011  contract Base is Bridge{\r... */\ntag_8:\n  shr(0x60, mload(0x80))\n  mload(0xa0)\n  shr(0x60, mload(0xc0))\n  codecopy(0x00, dataOffset(sub_0), dataSize(sub_0))\n  0x00\n  assignImmutable(\"0x789bcdf275fa270780a52ae3b79bb1ce0fda7e0aaad87b57b74bb99ac290714a\")\n  0x00\n  assignImmutable(\"0xe4b1702d9298fee62dfeccc57d322a463ad55ca201256d01f62b45b2e1c21c10\")\n  0x00\n  assignImmutable(\"0xcdbc23227c72e0a3f4683bdbccfcbed38047ca1a70d48b78c210dc5393029019\")\n  return(0x00, dataSize(sub_0))\nstop\n\nsub_0: assembly {\n        /* \"contracts/4_Base.sol\":80:1011  contract Base is Bridge{\r... */\n      mstore(0x40, 0x80)\n      jumpi(tag_1, lt(calldatasize, 0x04))\n      shr(0xe0, calldataload(0x00))\n      dup1\n      0x164f0055\n      eq\n      tag_2\n      jumpi\n      dup1\n      0x3bd359aa\n      eq\n      tag_3\n      jumpi\n      dup1\n      0x3eea160a\n      eq\n      tag_4\n      jumpi\n      dup1\n      0x5119c478\n      eq\n      tag_5\n      jumpi\n      dup1\n      0xfd210fd9\n      eq\n      tag_6\n      jumpi\n    tag_1:\n      0x00\n      dup1\n      revert\n        /* \"contracts/5_Bridge.sol\":292:442  function rawExternalContractFunction(uint256 requestId, uint256[] memory words) external {\r... */\n    tag_2:\n      callvalue\n      dup1\n      iszero\n      tag_7\n      jumpi\n      0x00\n      dup1\n      revert\n    tag_7:\n      pop\n      tag_8\n      0x04\n      dup1\n      calldatasize\n      sub\n      dup2\n      add\n      swap1\n      tag_9\n      swap2\n      swap1\n      tag_10\n      jump\t// in\n    tag_9:\n      tag_11\n      jump\t// in\n    tag_8:\n      stop\n        /* \"contracts/4_Base.sol\":190:219  IMock public immutable i_mock */\n    tag_3:\n      callvalue\n      dup1\n      iszero\n      tag_12\n      jumpi\n      0x00\n      dup1\n      revert\n    tag_12:\n      pop\n      tag_13\n      tag_14\n      jump\t// in\n    tag_13:\n      mload(0x40)\n      tag_15\n      swap2\n      swap1\n      tag_16\n      jump\t// in\n    tag_15:\n      mload(0x40)\n      dup1\n      swap2\n      sub\n      swap1\n      return\n        /* \"contracts/4_Base.sol\":110:149  uint256 public immutable i_argument = 8 */\n    tag_4:\n      callvalue\n      dup1\n      iszero\n      tag_17\n      jumpi\n      0x00\n      dup1\n      revert\n    tag_17:\n      pop\n      tag_18\n      tag_19\n      jump\t// in\n    tag_18:\n      mload(0x40)\n      tag_20\n      swap2\n      swap1\n      tag_21\n      jump\t// in\n    tag_20:\n      mload(0x40)\n      dup1\n      swap2\n      sub\n      swap1\n      return\n        /* \"contracts/4_Base.sol\":685:817  function internalRequest() public payable returns (uint256 requestId) {\r... */\n    tag_5:\n      tag_22\n      tag_23\n      jump\t// in\n    tag_22:\n      mload(0x40)\n      tag_24\n      swap2\n      swap1\n      tag_21\n      jump\t// in\n    tag_24:\n      mload(0x40)\n      dup1\n      swap2\n      sub\n      swap1\n      return\n        /* \"contracts/4_Base.sol\":156:183  uint256 public s_randomWord */\n    tag_6:\n      callvalue\n      dup1\n      iszero\n      tag_25\n      jumpi\n      0x00\n      dup1\n      revert\n    tag_25:\n      pop\n      tag_26\n      tag_27\n      jump\t// in\n    tag_26:\n      mload(0x40)\n      tag_28\n      swap2\n      swap1\n      tag_21\n      jump\t// in\n    tag_28:\n      mload(0x40)\n      dup1\n      swap2\n      sub\n      swap1\n      return\n        /* \"contracts/5_Bridge.sol\":292:442  function rawExternalContractFunction(uint256 requestId, uint256[] memory words) external {\r... */\n    tag_11:\n        /* \"contracts/5_Bridge.sol\":392:434  externalContractFunction(requestId, words) */\n      tag_30\n        /* \"contracts/5_Bridge.sol\":417:426  requestId */\n      dup3\n        /* \"contracts/5_Bridge.sol\":428:433  words */\n      dup3\n        /* \"contracts/5_Bridge.sol\":392:416  externalContractFunction */\n      tag_31\n        /* \"contracts/5_Bridge.sol\":392:434  externalContractFunction(requestId, words) */\n      jump\t// in\n    tag_30:\n        /* \"contracts/5_Bridge.sol\":292:442  function rawExternalContractFunction(uint256 requestId, uint256[] memory words) external {\r... */\n      pop\n      pop\n      jump\t// out\n        /* \"contracts/4_Base.sol\":190:219  IMock public immutable i_mock */\n    tag_14:\n      immutable(\"0x789bcdf275fa270780a52ae3b79bb1ce0fda7e0aaad87b57b74bb99ac290714a\")\n      dup2\n      jump\t// out\n        /* \"contracts/4_Base.sol\":110:149  uint256 public immutable i_argument = 8 */\n    tag_19:\n      immutable(\"0xe4b1702d9298fee62dfeccc57d322a463ad55ca201256d01f62b45b2e1c21c10\")\n      dup2\n      jump\t// out\n        /* \"contracts/4_Base.sol\":685:817  function internalRequest() public payable returns (uint256 requestId) {\r... */\n    tag_23:\n        /* \"contracts/4_Base.sol\":736:753  uint256 requestId */\n      0x00\n        /* \"contracts/4_Base.sol\":778:784  i_mock */\n      immutable(\"0x789bcdf275fa270780a52ae3b79bb1ce0fda7e0aaad87b57b74bb99ac290714a\")\n        /* \"contracts/4_Base.sol\":778:797  i_mock.requestWords */\n      0xffffffffffffffffffffffffffffffffffffffff\n      and\n      0x1eab7140\n        /* \"contracts/4_Base.sol\":798:808  i_argument */\n      immutable(\"0xe4b1702d9298fee62dfeccc57d322a463ad55ca201256d01f62b45b2e1c21c10\")\n        /* \"contracts/4_Base.sol\":778:809  i_mock.requestWords(i_argument) */\n      mload(0x40)\n      dup3\n      0xffffffff\n      and\n      0xe0\n      shl\n      dup2\n      mstore\n      0x04\n      add\n      tag_33\n      swap2\n      swap1\n      tag_21\n      jump\t// in\n    tag_33:\n      0x20\n      mload(0x40)\n      dup1\n      dup4\n      sub\n      dup2\n      0x00\n      dup8\n      dup1\n      extcodesize\n      iszero\n      dup1\n      iszero\n      tag_34\n      jumpi\n      0x00\n      dup1\n      revert\n    tag_34:\n      pop\n      gas\n      call\n      iszero\n      dup1\n      iszero\n      tag_36\n      jumpi\n      returndatasize\n      0x00\n      dup1\n      returndatacopy\n      revert(0x00, returndatasize)\n    tag_36:\n      pop\n      pop\n      pop\n      pop\n      mload(0x40)\n      returndatasize\n      not(0x1f)\n      0x1f\n      dup3\n      add\n      and\n      dup3\n      add\n      dup1\n      0x40\n      mstore\n      pop\n      dup2\n      add\n      swap1\n      tag_37\n      swap2\n      swap1\n      tag_38\n      jump\t// in\n    tag_37:\n        /* \"contracts/4_Base.sol\":766:809  requestId = i_mock.requestWords(i_argument) */\n      swap1\n      pop\n        /* \"contracts/4_Base.sol\":685:817  function internalRequest() public payable returns (uint256 requestId) {\r... */\n      swap1\n      jump\t// out\n        /* \"contracts/4_Base.sol\":156:183  uint256 public s_randomWord */\n    tag_27:\n      sload(0x00)\n      dup2\n      jump\t// out\n        /* \"contracts/4_Base.sol\":825:1008  function externalContractFunction(uint256 requestId, uint256[] memory words) internal override{\r... */\n    tag_31:\n        /* \"contracts/4_Base.sol\":945:950  words */\n      dup1\n        /* \"contracts/4_Base.sol\":951:952  0 */\n      0x00\n        /* \"contracts/4_Base.sol\":945:953  words[0] */\n      dup2\n      mload\n      dup2\n      lt\n      tag_40\n      jumpi\n      tag_41\n      tag_42\n      jump\t// in\n    tag_41:\n    tag_40:\n      0x20\n      mul\n      0x20\n      add\n      add\n      mload\n        /* \"contracts/4_Base.sol\":930:942  s_randomWord */\n      0x00\n        /* \"contracts/4_Base.sol\":930:953  s_randomWord = words[0] */\n      dup2\n      swap1\n      sstore\n      pop\n        /* \"contracts/4_Base.sol\":969:1000  BaseToMockSuccess(s_randomWord) */\n      0x6e08db27cb3873a00cbe674341c6e1e77fd9a14c377f8b255031ca67d6a84df8\n        /* \"contracts/4_Base.sol\":987:999  s_randomWord */\n      sload(0x00)\n        /* \"contracts/4_Base.sol\":969:1000  BaseToMockSuccess(s_randomWord) */\n      mload(0x40)\n      tag_43\n      swap2\n      swap1\n      tag_21\n      jump\t// in\n    tag_43:\n      mload(0x40)\n      dup1\n      swap2\n      sub\n      swap1\n      log1\n        /* \"contracts/4_Base.sol\":825:1008  function externalContractFunction(uint256 requestId, uint256[] memory words) internal override{\r... */\n      pop\n      pop\n      jump\t// out\n        /* \"#utility.yul\":24:746   */\n    tag_45:\n        /* \"#utility.yul\":120:125   */\n      0x00\n        /* \"#utility.yul\":145:226   */\n      tag_47\n        /* \"#utility.yul\":161:225   */\n      tag_48\n        /* \"#utility.yul\":218:224   */\n      dup5\n        /* \"#utility.yul\":161:225   */\n      tag_49\n      jump\t// in\n    tag_48:\n        /* \"#utility.yul\":145:226   */\n      tag_50\n      jump\t// in\n    tag_47:\n        /* \"#utility.yul\":136:226   */\n      swap1\n      pop\n        /* \"#utility.yul\":246:251   */\n      dup1\n        /* \"#utility.yul\":275:281   */\n      dup4\n        /* \"#utility.yul\":268:273   */\n      dup3\n        /* \"#utility.yul\":261:282   */\n      mstore\n        /* \"#utility.yul\":309:313   */\n      0x20\n        /* \"#utility.yul\":302:307   */\n      dup3\n        /* \"#utility.yul\":298:314   */\n      add\n        /* \"#utility.yul\":291:314   */\n      swap1\n      pop\n        /* \"#utility.yul\":335:341   */\n      dup3\n        /* \"#utility.yul\":385:388   */\n      dup6\n        /* \"#utility.yul\":377:381   */\n      0x20\n        /* \"#utility.yul\":369:375   */\n      dup7\n        /* \"#utility.yul\":365:382   */\n      mul\n        /* \"#utility.yul\":360:363   */\n      dup3\n        /* \"#utility.yul\":356:383   */\n      add\n        /* \"#utility.yul\":353:389   */\n      gt\n        /* \"#utility.yul\":350:493   */\n      iszero\n      tag_51\n      jumpi\n        /* \"#utility.yul\":404:483   */\n      tag_52\n      tag_53\n      jump\t// in\n    tag_52:\n        /* \"#utility.yul\":350:493   */\n    tag_51:\n        /* \"#utility.yul\":517:518   */\n      0x00\n        /* \"#utility.yul\":502:740   */\n    tag_54:\n        /* \"#utility.yul\":527:533   */\n      dup6\n        /* \"#utility.yul\":524:525   */\n      dup2\n        /* \"#utility.yul\":521:534   */\n      lt\n        /* \"#utility.yul\":502:740   */\n      iszero\n      tag_56\n      jumpi\n        /* \"#utility.yul\":595:598   */\n      dup2\n        /* \"#utility.yul\":624:661   */\n      tag_57\n        /* \"#utility.yul\":657:660   */\n      dup9\n        /* \"#utility.yul\":645:655   */\n      dup3\n        /* \"#utility.yul\":624:661   */\n      tag_58\n      jump\t// in\n    tag_57:\n        /* \"#utility.yul\":619:622   */\n      dup5\n        /* \"#utility.yul\":612:662   */\n      mstore\n        /* \"#utility.yul\":691:695   */\n      0x20\n        /* \"#utility.yul\":686:689   */\n      dup5\n        /* \"#utility.yul\":682:696   */\n      add\n        /* \"#utility.yul\":675:696   */\n      swap4\n      pop\n        /* \"#utility.yul\":725:729   */\n      0x20\n        /* \"#utility.yul\":720:723   */\n      dup4\n        /* \"#utility.yul\":716:730   */\n      add\n        /* \"#utility.yul\":709:730   */\n      swap3\n      pop\n        /* \"#utility.yul\":562:740   */\n      pop\n        /* \"#utility.yul\":549:550   */\n      0x01\n        /* \"#utility.yul\":546:547   */\n      dup2\n        /* \"#utility.yul\":542:551   */\n      add\n        /* \"#utility.yul\":537:551   */\n      swap1\n      pop\n        /* \"#utility.yul\":502:740   */\n      jump(tag_54)\n    tag_56:\n        /* \"#utility.yul\":506:520   */\n      pop\n        /* \"#utility.yul\":126:746   */\n      pop\n      pop\n        /* \"#utility.yul\":24:746   */\n      swap4\n      swap3\n      pop\n      pop\n      pop\n      jump\t// out\n        /* \"#utility.yul\":769:1139   */\n    tag_59:\n        /* \"#utility.yul\":840:845   */\n      0x00\n        /* \"#utility.yul\":889:892   */\n      dup3\n        /* \"#utility.yul\":882:886   */\n      0x1f\n        /* \"#utility.yul\":874:880   */\n      dup4\n        /* \"#utility.yul\":870:887   */\n      add\n        /* \"#utility.yul\":866:893   */\n      slt\n        /* \"#utility.yul\":856:978   */\n      tag_61\n      jumpi\n        /* \"#utility.yul\":897:976   */\n      tag_62\n      tag_63\n      jump\t// in\n    tag_62:\n        /* \"#utility.yul\":856:978   */\n    tag_61:\n        /* \"#utility.yul\":1014:1020   */\n      dup2\n        /* \"#utility.yul\":1001:1021   */\n      calldataload\n        /* \"#utility.yul\":1039:1133   */\n      tag_64\n        /* \"#utility.yul\":1129:1132   */\n      dup5\n        /* \"#utility.yul\":1121:1127   */\n      dup3\n        /* \"#utility.yul\":1114:1118   */\n      0x20\n        /* \"#utility.yul\":1106:1112   */\n      dup7\n        /* \"#utility.yul\":1102:1119   */\n      add\n        /* \"#utility.yul\":1039:1133   */\n      tag_45\n      jump\t// in\n    tag_64:\n        /* \"#utility.yul\":1030:1133   */\n      swap2\n      pop\n        /* \"#utility.yul\":846:1139   */\n      pop\n        /* \"#utility.yul\":769:1139   */\n      swap3\n      swap2\n      pop\n      pop\n      jump\t// out\n        /* \"#utility.yul\":1145:1284   */\n    tag_58:\n        /* \"#utility.yul\":1191:1196   */\n      0x00\n        /* \"#utility.yul\":1229:1235   */\n      dup2\n        /* \"#utility.yul\":1216:1236   */\n      calldataload\n        /* \"#utility.yul\":1207:1236   */\n      swap1\n      pop\n        /* \"#utility.yul\":1245:1278   */\n      tag_66\n        /* \"#utility.yul\":1272:1277   */\n      dup2\n        /* \"#utility.yul\":1245:1278   */\n      tag_67\n      jump\t// in\n    tag_66:\n        /* \"#utility.yul\":1145:1284   */\n      swap3\n      swap2\n      pop\n      pop\n      jump\t// out\n        /* \"#utility.yul\":1290:1433   */\n    tag_68:\n        /* \"#utility.yul\":1347:1352   */\n      0x00\n        /* \"#utility.yul\":1378:1384   */\n      dup2\n        /* \"#utility.yul\":1372:1385   */\n      mload\n        /* \"#utility.yul\":1363:1385   */\n      swap1\n      pop\n        /* \"#utility.yul\":1394:1427   */\n      tag_70\n        /* \"#utility.yul\":1421:1426   */\n      dup2\n        /* \"#utility.yul\":1394:1427   */\n      tag_67\n      jump\t// in\n    tag_70:\n        /* \"#utility.yul\":1290:1433   */\n      swap3\n      swap2\n      pop\n      pop\n      jump\t// out\n        /* \"#utility.yul\":1439:1790   */\n    tag_38:\n        /* \"#utility.yul\":1509:1515   */\n      0x00\n        /* \"#utility.yul\":1558:1560   */\n      0x20\n        /* \"#utility.yul\":1546:1555   */\n      dup3\n        /* \"#utility.yul\":1537:1544   */\n      dup5\n        /* \"#utility.yul\":1533:1556   */\n      sub\n        /* \"#utility.yul\":1529:1561   */\n      slt\n        /* \"#utility.yul\":1526:1645   */\n      iszero\n      tag_72\n      jumpi\n        /* \"#utility.yul\":1564:1643   */\n      tag_73\n      tag_74\n      jump\t// in\n    tag_73:\n        /* \"#utility.yul\":1526:1645   */\n    tag_72:\n        /* \"#utility.yul\":1684:1685   */\n      0x00\n        /* \"#utility.yul\":1709:1773   */\n      tag_75\n        /* \"#utility.yul\":1765:1772   */\n      dup5\n        /* \"#utility.yul\":1756:1762   */\n      dup3\n        /* \"#utility.yul\":1745:1754   */\n      dup6\n        /* \"#utility.yul\":1741:1763   */\n      add\n        /* \"#utility.yul\":1709:1773   */\n      tag_68\n      jump\t// in\n    tag_75:\n        /* \"#utility.yul\":1699:1773   */\n      swap2\n      pop\n        /* \"#utility.yul\":1655:1783   */\n      pop\n        /* \"#utility.yul\":1439:1790   */\n      swap3\n      swap2\n      pop\n      pop\n      jump\t// out\n        /* \"#utility.yul\":1796:2480   */\n    tag_10:\n        /* \"#utility.yul\":1889:1895   */\n      0x00\n        /* \"#utility.yul\":1897:1903   */\n      dup1\n        /* \"#utility.yul\":1946:1948   */\n      0x40\n        /* \"#utility.yul\":1934:1943   */\n      dup4\n        /* \"#utility.yul\":1925:1932   */\n      dup6\n        /* \"#utility.yul\":1921:1944   */\n      sub\n        /* \"#utility.yul\":1917:1949   */\n      slt\n        /* \"#utility.yul\":1914:2033   */\n      iszero\n      tag_77\n      jumpi\n        /* \"#utility.yul\":1952:2031   */\n      tag_78\n      tag_74\n      jump\t// in\n    tag_78:\n        /* \"#utility.yul\":1914:2033   */\n    tag_77:\n        /* \"#utility.yul\":2072:2073   */\n      0x00\n        /* \"#utility.yul\":2097:2150   */\n      tag_79\n        /* \"#utility.yul\":2142:2149   */\n      dup6\n        /* \"#utility.yul\":2133:2139   */\n      dup3\n        /* \"#utility.yul\":2122:2131   */\n      dup7\n        /* \"#utility.yul\":2118:2140   */\n      add\n        /* \"#utility.yul\":2097:2150   */\n      tag_58\n      jump\t// in\n    tag_79:\n        /* \"#utility.yul\":2087:2150   */\n      swap3\n      pop\n        /* \"#utility.yul\":2043:2160   */\n      pop\n        /* \"#utility.yul\":2227:2229   */\n      0x20\n        /* \"#utility.yul\":2216:2225   */\n      dup4\n        /* \"#utility.yul\":2212:2230   */\n      add\n        /* \"#utility.yul\":2199:2231   */\n      calldataload\n        /* \"#utility.yul\":2258:2276   */\n      0xffffffffffffffff\n        /* \"#utility.yul\":2250:2256   */\n      dup2\n        /* \"#utility.yul\":2247:2277   */\n      gt\n        /* \"#utility.yul\":2244:2361   */\n      iszero\n      tag_80\n      jumpi\n        /* \"#utility.yul\":2280:2359   */\n      tag_81\n      tag_82\n      jump\t// in\n    tag_81:\n        /* \"#utility.yul\":2244:2361   */\n    tag_80:\n        /* \"#utility.yul\":2385:2463   */\n      tag_83\n        /* \"#utility.yul\":2455:2462   */\n      dup6\n        /* \"#utility.yul\":2446:2452   */\n      dup3\n        /* \"#utility.yul\":2435:2444   */\n      dup7\n        /* \"#utility.yul\":2431:2453   */\n      add\n        /* \"#utility.yul\":2385:2463   */\n      tag_59\n      jump\t// in\n    tag_83:\n        /* \"#utility.yul\":2375:2463   */\n      swap2\n      pop\n        /* \"#utility.yul\":2170:2473   */\n      pop\n        /* \"#utility.yul\":1796:2480   */\n      swap3\n      pop\n      swap3\n      swap1\n      pop\n      jump\t// out\n        /* \"#utility.yul\":2486:2643   */\n    tag_84:\n        /* \"#utility.yul\":2586:2636   */\n      tag_86\n        /* \"#utility.yul\":2630:2635   */\n      dup2\n        /* \"#utility.yul\":2586:2636   */\n      tag_87\n      jump\t// in\n    tag_86:\n        /* \"#utility.yul\":2581:2584   */\n      dup3\n        /* \"#utility.yul\":2574:2637   */\n      mstore\n        /* \"#utility.yul\":2486:2643   */\n      pop\n      pop\n      jump\t// out\n        /* \"#utility.yul\":2649:2767   */\n    tag_88:\n        /* \"#utility.yul\":2736:2760   */\n      tag_90\n        /* \"#utility.yul\":2754:2759   */\n      dup2\n        /* \"#utility.yul\":2736:2760   */\n      tag_91\n      jump\t// in\n    tag_90:\n        /* \"#utility.yul\":2731:2734   */\n      dup3\n        /* \"#utility.yul\":2724:2761   */\n      mstore\n        /* \"#utility.yul\":2649:2767   */\n      pop\n      pop\n      jump\t// out\n        /* \"#utility.yul\":2773:3021   */\n    tag_16:\n        /* \"#utility.yul\":2879:2883   */\n      0x00\n        /* \"#utility.yul\":2917:2919   */\n      0x20\n        /* \"#utility.yul\":2906:2915   */\n      dup3\n        /* \"#utility.yul\":2902:2920   */\n      add\n        /* \"#utility.yul\":2894:2920   */\n      swap1\n      pop\n        /* \"#utility.yul\":2930:3014   */\n      tag_93\n        /* \"#utility.yul\":3011:3012   */\n      0x00\n        /* \"#utility.yul\":3000:3009   */\n      dup4\n        /* \"#utility.yul\":2996:3013   */\n      add\n        /* \"#utility.yul\":2987:2993   */\n      dup5\n        /* \"#utility.yul\":2930:3014   */\n      tag_84\n      jump\t// in\n    tag_93:\n        /* \"#utility.yul\":2773:3021   */\n      swap3\n      swap2\n      pop\n      pop\n      jump\t// out\n        /* \"#utility.yul\":3027:3249   */\n    tag_21:\n        /* \"#utility.yul\":3120:3124   */\n      0x00\n        /* \"#utility.yul\":3158:3160   */\n      0x20\n        /* \"#utility.yul\":3147:3156   */\n      dup3\n        /* \"#utility.yul\":3143:3161   */\n      add\n        /* \"#utility.yul\":3135:3161   */\n      swap1\n      pop\n        /* \"#utility.yul\":3171:3242   */\n      tag_95\n        /* \"#utility.yul\":3239:3240   */\n      0x00\n        /* \"#utility.yul\":3228:3237   */\n      dup4\n        /* \"#utility.yul\":3224:3241   */\n      add\n        /* \"#utility.yul\":3215:3221   */\n      dup5\n        /* \"#utility.yul\":3171:3242   */\n      tag_88\n      jump\t// in\n    tag_95:\n        /* \"#utility.yul\":3027:3249   */\n      swap3\n      swap2\n      pop\n      pop\n      jump\t// out\n        /* \"#utility.yul\":3255:3384   */\n    tag_50:\n        /* \"#utility.yul\":3289:3295   */\n      0x00\n        /* \"#utility.yul\":3316:3336   */\n      tag_97\n      tag_98\n      jump\t// in\n    tag_97:\n        /* \"#utility.yul\":3306:3336   */\n      swap1\n      pop\n        /* \"#utility.yul\":3345:3378   */\n      tag_99\n        /* \"#utility.yul\":3373:3377   */\n      dup3\n        /* \"#utility.yul\":3365:3371   */\n      dup3\n        /* \"#utility.yul\":3345:3378   */\n      tag_100\n      jump\t// in\n    tag_99:\n        /* \"#utility.yul\":3255:3384   */\n      swap2\n      swap1\n      pop\n      jump\t// out\n        /* \"#utility.yul\":3390:3465   */\n    tag_98:\n        /* \"#utility.yul\":3423:3429   */\n      0x00\n        /* \"#utility.yul\":3456:3458   */\n      0x40\n        /* \"#utility.yul\":3450:3459   */\n      mload\n        /* \"#utility.yul\":3440:3459   */\n      swap1\n      pop\n        /* \"#utility.yul\":3390:3465   */\n      swap1\n      jump\t// out\n        /* \"#utility.yul\":3471:3782   */\n    tag_49:\n        /* \"#utility.yul\":3548:3552   */\n      0x00\n        /* \"#utility.yul\":3638:3656   */\n      0xffffffffffffffff\n        /* \"#utility.yul\":3630:3636   */\n      dup3\n        /* \"#utility.yul\":3627:3657   */\n      gt\n        /* \"#utility.yul\":3624:3680   */\n      iszero\n      tag_103\n      jumpi\n        /* \"#utility.yul\":3660:3678   */\n      tag_104\n      tag_105\n      jump\t// in\n    tag_104:\n        /* \"#utility.yul\":3624:3680   */\n    tag_103:\n        /* \"#utility.yul\":3710:3714   */\n      0x20\n        /* \"#utility.yul\":3702:3708   */\n      dup3\n        /* \"#utility.yul\":3698:3715   */\n      mul\n        /* \"#utility.yul\":3690:3715   */\n      swap1\n      pop\n        /* \"#utility.yul\":3770:3774   */\n      0x20\n        /* \"#utility.yul\":3764:3768   */\n      dup2\n        /* \"#utility.yul\":3760:3775   */\n      add\n        /* \"#utility.yul\":3752:3775   */\n      swap1\n      pop\n        /* \"#utility.yul\":3471:3782   */\n      swap2\n      swap1\n      pop\n      jump\t// out\n        /* \"#utility.yul\":3788:3914   */\n    tag_106:\n        /* \"#utility.yul\":3825:3832   */\n      0x00\n        /* \"#utility.yul\":3865:3907   */\n      0xffffffffffffffffffffffffffffffffffffffff\n        /* \"#utility.yul\":3858:3863   */\n      dup3\n        /* \"#utility.yul\":3854:3908   */\n      and\n        /* \"#utility.yul\":3843:3908   */\n      swap1\n      pop\n        /* \"#utility.yul\":3788:3914   */\n      swap2\n      swap1\n      pop\n      jump\t// out\n        /* \"#utility.yul\":3920:3997   */\n    tag_91:\n        /* \"#utility.yul\":3957:3964   */\n      0x00\n        /* \"#utility.yul\":3986:3991   */\n      dup2\n        /* \"#utility.yul\":3975:3991   */\n      swap1\n      pop\n        /* \"#utility.yul\":3920:3997   */\n      swap2\n      swap1\n      pop\n      jump\t// out\n        /* \"#utility.yul\":4003:4142   */\n    tag_87:\n        /* \"#utility.yul\":4066:4075   */\n      0x00\n        /* \"#utility.yul\":4099:4136   */\n      tag_110\n        /* \"#utility.yul\":4130:4135   */\n      dup3\n        /* \"#utility.yul\":4099:4136   */\n      tag_111\n      jump\t// in\n    tag_110:\n        /* \"#utility.yul\":4086:4136   */\n      swap1\n      pop\n        /* \"#utility.yul\":4003:4142   */\n      swap2\n      swap1\n      pop\n      jump\t// out\n        /* \"#utility.yul\":4148:4274   */\n    tag_111:\n        /* \"#utility.yul\":4198:4207   */\n      0x00\n        /* \"#utility.yul\":4231:4268   */\n      tag_113\n        /* \"#utility.yul\":4262:4267   */\n      dup3\n        /* \"#utility.yul\":4231:4268   */\n      tag_114\n      jump\t// in\n    tag_113:\n        /* \"#utility.yul\":4218:4268   */\n      swap1\n      pop\n        /* \"#utility.yul\":4148:4274   */\n      swap2\n      swap1\n      pop\n      jump\t// out\n        /* \"#utility.yul\":4280:4393   */\n    tag_114:\n        /* \"#utility.yul\":4330:4339   */\n      0x00\n        /* \"#utility.yul\":4363:4387   */\n      tag_116\n        /* \"#utility.yul\":4381:4386   */\n      dup3\n        /* \"#utility.yul\":4363:4387   */\n      tag_106\n      jump\t// in\n    tag_116:\n        /* \"#utility.yul\":4350:4387   */\n      swap1\n      pop\n        /* \"#utility.yul\":4280:4393   */\n      swap2\n      swap1\n      pop\n      jump\t// out\n        /* \"#utility.yul\":4399:4680   */\n    tag_100:\n        /* \"#utility.yul\":4482:4509   */\n      tag_118\n        /* \"#utility.yul\":4504:4508   */\n      dup3\n        /* \"#utility.yul\":4482:4509   */\n      tag_119\n      jump\t// in\n    tag_118:\n        /* \"#utility.yul\":4474:4480   */\n      dup2\n        /* \"#utility.yul\":4470:4510   */\n      add\n        /* \"#utility.yul\":4612:4618   */\n      dup2\n        /* \"#utility.yul\":4600:4610   */\n      dup2\n        /* \"#utility.yul\":4597:4619   */\n      lt\n        /* \"#utility.yul\":4576:4594   */\n      0xffffffffffffffff\n        /* \"#utility.yul\":4564:4574   */\n      dup3\n        /* \"#utility.yul\":4561:4595   */\n      gt\n        /* \"#utility.yul\":4558:4620   */\n      or\n        /* \"#utility.yul\":4555:4643   */\n      iszero\n      tag_120\n      jumpi\n        /* \"#utility.yul\":4623:4641   */\n      tag_121\n      tag_105\n      jump\t// in\n    tag_121:\n        /* \"#utility.yul\":4555:4643   */\n    tag_120:\n        /* \"#utility.yul\":4663:4673   */\n      dup1\n        /* \"#utility.yul\":4659:4661   */\n      0x40\n        /* \"#utility.yul\":4652:4674   */\n      mstore\n        /* \"#utility.yul\":4442:4680   */\n      pop\n        /* \"#utility.yul\":4399:4680   */\n      pop\n      pop\n      jump\t// out\n        /* \"#utility.yul\":4686:4866   */\n    tag_42:\n        /* \"#utility.yul\":4734:4811   */\n      0x4e487b7100000000000000000000000000000000000000000000000000000000\n        /* \"#utility.yul\":4731:4732   */\n      0x00\n        /* \"#utility.yul\":4724:4812   */\n      mstore\n        /* \"#utility.yul\":4831:4835   */\n      0x32\n        /* \"#utility.yul\":4828:4829   */\n      0x04\n        /* \"#utility.yul\":4821:4836   */\n      mstore\n        /* \"#utility.yul\":4855:4859   */\n      0x24\n        /* \"#utility.yul\":4852:4853   */\n      0x00\n        /* \"#utility.yul\":4845:4860   */\n      revert\n        /* \"#utility.yul\":4872:5052   */\n    tag_105:\n        /* \"#utility.yul\":4920:4997   */\n      0x4e487b7100000000000000000000000000000000000000000000000000000000\n        /* \"#utility.yul\":4917:4918   */\n      0x00\n        /* \"#utility.yul\":4910:4998   */\n      mstore\n        /* \"#utility.yul\":5017:5021   */\n      0x41\n        /* \"#utility.yul\":5014:5015   */\n      0x04\n        /* \"#utility.yul\":5007:5022   */\n      mstore\n        /* \"#utility.yul\":5041:5045   */\n      0x24\n        /* \"#utility.yul\":5038:5039   */\n      0x00\n        /* \"#utility.yul\":5031:5046   */\n      revert\n        /* \"#utility.yul\":5058:5175   */\n    tag_63:\n        /* \"#utility.yul\":5167:5168   */\n      0x00\n        /* \"#utility.yul\":5164:5165   */\n      dup1\n        /* \"#utility.yul\":5157:5169   */\n      revert\n        /* \"#utility.yul\":5181:5298   */\n    tag_53:\n        /* \"#utility.yul\":5290:5291   */\n      0x00\n        /* \"#utility.yul\":5287:5288   */\n      dup1\n        /* \"#utility.yul\":5280:5292   */\n      revert\n        /* \"#utility.yul\":5304:5421   */\n    tag_82:\n        /* \"#utility.yul\":5413:5414   */\n      0x00\n        /* \"#utility.yul\":5410:5411   */\n      dup1\n        /* \"#utility.yul\":5403:5415   */\n      revert\n        /* \"#utility.yul\":5427:5544   */\n    tag_74:\n        /* \"#utility.yul\":5536:5537   */\n      0x00\n        /* \"#utility.yul\":5533:5534   */\n      dup1\n        /* \"#utility.yul\":5526:5538   */\n      revert\n        /* \"#utility.yul\":5550:5652   */\n    tag_119:\n        /* \"#utility.yul\":5591:5597   */\n      0x00\n        /* \"#utility.yul\":5642:5644   */\n      0x1f\n        /* \"#utility.yul\":5638:5645   */\n      not\n        /* \"#utility.yul\":5633:5635   */\n      0x1f\n        /* \"#utility.yul\":5626:5631   */\n      dup4\n        /* \"#utility.yul\":5622:5636   */\n      add\n        /* \"#utility.yul\":5618:5646   */\n      and\n        /* \"#utility.yul\":5608:5646   */\n      swap1\n      pop\n        /* \"#utility.yul\":5550:5652   */\n      swap2\n      swap1\n      pop\n      jump\t// out\n        /* \"#utility.yul\":5658:5780   */\n    tag_67:\n        /* \"#utility.yul\":5731:5755   */\n      tag_130\n        /* \"#utility.yul\":5749:5754   */\n      dup2\n        /* \"#utility.yul\":5731:5755   */\n      tag_91\n      jump\t// in\n    tag_130:\n        /* \"#utility.yul\":5724:5729   */\n      dup2\n        /* \"#utility.yul\":5721:5756   */\n      eq\n        /* \"#utility.yul\":5711:5774   */\n      tag_131\n      jumpi\n        /* \"#utility.yul\":5770:5771   */\n      0x00\n        /* \"#utility.yul\":5767:5768   */\n      dup1\n        /* \"#utility.yul\":5760:5772   */\n      revert\n        /* \"#utility.yul\":5711:5774   */\n    tag_131:\n        /* \"#utility.yul\":5658:5780   */\n      pop\n      jump\t// out\n\n    auxdata: 0xa2646970667358221220b9be20320a36489216bca8232e774c9150da12ad89f65fed48a7f597ba16425664736f6c63430008070033\n}\n",
				"bytecode": {
					"linkReferences": {},
					"object": "60e0604052600860a09081525034801561001857600080fd5b5060405161077b38038061077b833981810160405281019061003a91906100c5565b808073ffffffffffffffffffffffffffffffffffffffff1660808173ffffffffffffffffffffffffffffffffffffffff1660601b81525050508073ffffffffffffffffffffffffffffffffffffffff1660c08173ffffffffffffffffffffffffffffffffffffffff1660601b8152505050610140565b6000815190506100bf81610129565b92915050565b6000602082840312156100db576100da610124565b5b60006100e9848285016100b0565b91505092915050565b60006100fd82610104565b9050919050565b600073ffffffffffffffffffffffffffffffffffffffff82169050919050565b600080fd5b610132816100f2565b811461013d57600080fd5b50565b60805160601c60a05160c05160601c6105fb61018060003960008181610127015261017101526000818161014b01526101ad0152600050506105fb6000f3fe60806040526004361061004a5760003560e01c8063164f00551461004f5780633bd359aa146100785780633eea160a146100a35780635119c478146100ce578063fd210fd9146100ec575b600080fd5b34801561005b57600080fd5b5061007660048036038101906100719190610399565b610117565b005b34801561008457600080fd5b5061008d610125565b60405161009a9190610413565b60405180910390f35b3480156100af57600080fd5b506100b8610149565b6040516100c5919061042e565b60405180910390f35b6100d661016d565b6040516100e3919061042e565b60405180910390f35b3480156100f857600080fd5b5061010161023f565b60405161010e919061042e565b60405180910390f35b6101218282610245565b5050565b7f000000000000000000000000000000000000000000000000000000000000000081565b7f000000000000000000000000000000000000000000000000000000000000000081565b60007f000000000000000000000000000000000000000000000000000000000000000073ffffffffffffffffffffffffffffffffffffffff16631eab71407f00000000000000000000000000000000000000000000000000000000000000006040518263ffffffff1660e01b81526004016101e8919061042e565b602060405180830381600087803b15801561020257600080fd5b505af1158015610216573d6000803e3d6000fd5b505050506040513d601f19601f8201168201806040525081019061023a919061036c565b905090565b60005481565b806000815181106102595761025861052b565b5b60200260200101516000819055507f6e08db27cb3873a00cbe674341c6e1e77fd9a14c377f8b255031ca67d6a84df8600054604051610298919061042e565b60405180910390a15050565b60006102b76102b28461046e565b610449565b905080838252602082019050828560208602820111156102da576102d961058e565b5b60005b8581101561030a57816102f08882610342565b8452602084019350602083019250506001810190506102dd565b5050509392505050565b600082601f83011261032957610328610589565b5b81356103398482602086016102a4565b91505092915050565b600081359050610351816105ae565b92915050565b600081519050610366816105ae565b92915050565b60006020828403121561038257610381610598565b5b600061039084828501610357565b91505092915050565b600080604083850312156103b0576103af610598565b5b60006103be85828601610342565b925050602083013567ffffffffffffffff8111156103df576103de610593565b5b6103eb85828601610314565b9150509250929050565b6103fe816104c4565b82525050565b61040d816104ba565b82525050565b600060208201905061042860008301846103f5565b92915050565b60006020820190506104436000830184610404565b92915050565b6000610453610464565b905061045f82826104fa565b919050565b6000604051905090565b600067ffffffffffffffff8211156104895761048861055a565b5b602082029050602081019050919050565b600073ffffffffffffffffffffffffffffffffffffffff82169050919050565b6000819050919050565b60006104cf826104d6565b9050919050565b60006104e1826104e8565b9050919050565b60006104f38261049a565b9050919050565b6105038261059d565b810181811067ffffffffffffffff821117156105225761052161055a565b5b80604052505050565b7f4e487b7100000000000000000000000000000000000000000000000000000000600052603260045260246000fd5b7f4e487b7100000000000000000000000000000000000000000000000000000000600052604160045260246000fd5b600080fd5b600080fd5b600080fd5b600080fd5b6000601f19601f8301169050919050565b6105b7816104ba565b81146105c257600080fd5b5056fea2646970667358221220b9be20320a36489216bca8232e774c9150da12ad89f65fed48a7f597ba16425664736f6c63430008070033",
					"opcodes": "PUSH1 0xE0 PUSH1 0x40 MSTORE PUSH1 0x8 PUSH1 0xA0 SWAP1 DUP2 MSTORE POP CALLVALUE DUP1 ISZERO PUSH2 0x18 JUMPI PUSH1 0x0 DUP1 REVERT JUMPDEST POP PUSH1 0x40 MLOAD PUSH2 0x77B CODESIZE SUB DUP1 PUSH2 0x77B DUP4 CODECOPY DUP2 DUP2 ADD PUSH1 0x40 MSTORE DUP2 ADD SWAP1 PUSH2 0x3A SWAP2 SWAP1 PUSH2 0xC5 JUMP JUMPDEST DUP1 DUP1 PUSH20 0xFFFFFFFFFFFFFFFFFFFFFFFFFFFFFFFFFFFFFFFF AND PUSH1 0x80 DUP2 PUSH20 0xFFFFFFFFFFFFFFFFFFFFFFFFFFFFFFFFFFFFFFFF AND PUSH1 0x60 SHL DUP2 MSTORE POP POP POP DUP1 PUSH20 0xFFFFFFFFFFFFFFFFFFFFFFFFFFFFFFFFFFFFFFFF AND PUSH1 0xC0 DUP2 PUSH20 0xFFFFFFFFFFFFFFFFFFFFFFFFFFFFFFFFFFFFFFFF AND PUSH1 0x60 SHL DUP2 MSTORE POP POP POP PUSH2 0x140 JUMP JUMPDEST PUSH1 0x0 DUP2 MLOAD SWAP1 POP PUSH2 0xBF DUP2 PUSH2 0x129 JUMP JUMPDEST SWAP3 SWAP2 POP POP JUMP JUMPDEST PUSH1 0x0 PUSH1 0x20 DUP3 DUP5 SUB SLT ISZERO PUSH2 0xDB JUMPI PUSH2 0xDA PUSH2 0x124 JUMP JUMPDEST JUMPDEST PUSH1 0x0 PUSH2 0xE9 DUP5 DUP3 DUP6 ADD PUSH2 0xB0 JUMP JUMPDEST SWAP2 POP POP SWAP3 SWAP2 POP POP JUMP JUMPDEST PUSH1 0x0 PUSH2 0xFD DUP3 PUSH2 0x104 JUMP JUMPDEST SWAP1 POP SWAP2 SWAP1 POP JUMP JUMPDEST PUSH1 0x0 PUSH20 0xFFFFFFFFFFFFFFFFFFFFFFFFFFFFFFFFFFFFFFFF DUP3 AND SWAP1 POP SWAP2 SWAP1 POP JUMP JUMPDEST PUSH1 0x0 DUP1 REVERT JUMPDEST PUSH2 0x132 DUP2 PUSH2 0xF2 JUMP JUMPDEST DUP2 EQ PUSH2 0x13D JUMPI PUSH1 0x0 DUP1 REVERT JUMPDEST POP JUMP JUMPDEST PUSH1 0x80 MLOAD PUSH1 0x60 SHR PUSH1 0xA0 MLOAD PUSH1 0xC0 MLOAD PUSH1 0x60 SHR PUSH2 0x5FB PUSH2 0x180 PUSH1 0x0 CODECOPY PUSH1 0x0 DUP2 DUP2 PUSH2 0x127 ADD MSTORE PUSH2 0x171 ADD MSTORE PUSH1 0x0 DUP2 DUP2 PUSH2 0x14B ADD MSTORE PUSH2 0x1AD ADD MSTORE PUSH1 0x0 POP POP PUSH2 0x5FB PUSH1 0x0 RETURN INVALID PUSH1 0x80 PUSH1 0x40 MSTORE PUSH1 0x4 CALLDATASIZE LT PUSH2 0x4A JUMPI PUSH1 0x0 CALLDATALOAD PUSH1 0xE0 SHR DUP1 PUSH4 0x164F0055 EQ PUSH2 0x4F JUMPI DUP1 PUSH4 0x3BD359AA EQ PUSH2 0x78 JUMPI DUP1 PUSH4 0x3EEA160A EQ PUSH2 0xA3 JUMPI DUP1 PUSH4 0x5119C478 EQ PUSH2 0xCE JUMPI DUP1 PUSH4 0xFD210FD9 EQ PUSH2 0xEC JUMPI JUMPDEST PUSH1 0x0 DUP1 REVERT JUMPDEST CALLVALUE DUP1 ISZERO PUSH2 0x5B JUMPI PUSH1 0x0 DUP1 REVERT JUMPDEST POP PUSH2 0x76 PUSH1 0x4 DUP1 CALLDATASIZE SUB DUP2 ADD SWAP1 PUSH2 0x71 SWAP2 SWAP1 PUSH2 0x399 JUMP JUMPDEST PUSH2 0x117 JUMP JUMPDEST STOP JUMPDEST CALLVALUE DUP1 ISZERO PUSH2 0x84 JUMPI PUSH1 0x0 DUP1 REVERT JUMPDEST POP PUSH2 0x8D PUSH2 0x125 JUMP JUMPDEST PUSH1 0x40 MLOAD PUSH2 0x9A SWAP2 SWAP1 PUSH2 0x413 JUMP JUMPDEST PUSH1 0x40 MLOAD DUP1 SWAP2 SUB SWAP1 RETURN JUMPDEST CALLVALUE DUP1 ISZERO PUSH2 0xAF JUMPI PUSH1 0x0 DUP1 REVERT JUMPDEST POP PUSH2 0xB8 PUSH2 0x149 JUMP JUMPDEST PUSH1 0x40 MLOAD PUSH2 0xC5 SWAP2 SWAP1 PUSH2 0x42E JUMP JUMPDEST PUSH1 0x40 MLOAD DUP1 SWAP2 SUB SWAP1 RETURN JUMPDEST PUSH2 0xD6 PUSH2 0x16D JUMP JUMPDEST PUSH1 0x40 MLOAD PUSH2 0xE3 SWAP2 SWAP1 PUSH2 0x42E JUMP JUMPDEST PUSH1 0x40 MLOAD DUP1 SWAP2 SUB SWAP1 RETURN JUMPDEST CALLVALUE DUP1 ISZERO PUSH2 0xF8 JUMPI PUSH1 0x0 DUP1 REVERT JUMPDEST POP PUSH2 0x101 PUSH2 0x23F JUMP JUMPDEST PUSH1 0x40 MLOAD PUSH2 0x10E SWAP2 SWAP1 PUSH2 0x42E JUMP JUMPDEST PUSH1 0x40 MLOAD DUP1 SWAP2 SUB SWAP1 RETURN JUMPDEST PUSH2 0x121 DUP3 DUP3 PUSH2 0x245 JUMP JUMPDEST POP POP JUMP JUMPDEST PUSH32 0x0 DUP2 JUMP JUMPDEST PUSH32 0x0 DUP2 JUMP JUMPDEST PUSH1 0x0 PUSH32 0x0 PUSH20 0xFFFFFFFFFFFFFFFFFFFFFFFFFFFFFFFFFFFFFFFF AND PUSH4 0x1EAB7140 PUSH32 0x0 PUSH1 0x40 MLOAD DUP3 PUSH4 0xFFFFFFFF AND PUSH1 0xE0 SHL DUP2 MSTORE PUSH1 0x4 ADD PUSH2 0x1E8 SWAP2 SWAP1 PUSH2 0x42E JUMP JUMPDEST PUSH1 0x20 PUSH1 0x40 MLOAD DUP1 DUP4 SUB DUP2 PUSH1 0x0 DUP8 DUP1 EXTCODESIZE ISZERO DUP1 ISZERO PUSH2 0x202 JUMPI PUSH1 0x0 DUP1 REVERT JUMPDEST POP GAS CALL ISZERO DUP1 ISZERO PUSH2 0x216 JUMPI RETURNDATASIZE PUSH1 0x0 DUP1 RETURNDATACOPY RETURNDATASIZE PUSH1 0x0 REVERT JUMPDEST POP POP POP POP PUSH1 0x40 MLOAD RETURNDATASIZE PUSH1 0x1F NOT PUSH1 0x1F DUP3 ADD AND DUP3 ADD DUP1 PUSH1 0x40 MSTORE POP DUP2 ADD SWAP1 PUSH2 0x23A SWAP2 SWAP1 PUSH2 0x36C JUMP JUMPDEST SWAP1 POP SWAP1 JUMP JUMPDEST PUSH1 0x0 SLOAD DUP2 JUMP JUMPDEST DUP1 PUSH1 0x0 DUP2 MLOAD DUP2 LT PUSH2 0x259 JUMPI PUSH2 0x258 PUSH2 0x52B JUMP JUMPDEST JUMPDEST PUSH1 0x20 MUL PUSH1 0x20 ADD ADD MLOAD PUSH1 0x0 DUP2 SWAP1 SSTORE POP PUSH32 0x6E08DB27CB3873A00CBE674341C6E1E77FD9A14C377F8B255031CA67D6A84DF8 PUSH1 0x0 SLOAD PUSH1 0x40 MLOAD PUSH2 0x298 SWAP2 SWAP1 PUSH2 0x42E JUMP JUMPDEST PUSH1 0x40 MLOAD DUP1 SWAP2 SUB SWAP1 LOG1 POP POP JUMP JUMPDEST PUSH1 0x0 PUSH2 0x2B7 PUSH2 0x2B2 DUP5 PUSH2 0x46E JUMP JUMPDEST PUSH2 0x449 JUMP JUMPDEST SWAP1 POP DUP1 DUP4 DUP3 MSTORE PUSH1 0x20 DUP3 ADD SWAP1 POP DUP3 DUP6 PUSH1 0x20 DUP7 MUL DUP3 ADD GT ISZERO PUSH2 0x2DA JUMPI PUSH2 0x2D9 PUSH2 0x58E JUMP JUMPDEST JUMPDEST PUSH1 0x0 JUMPDEST DUP6 DUP2 LT ISZERO PUSH2 0x30A JUMPI DUP2 PUSH2 0x2F0 DUP9 DUP3 PUSH2 0x342 JUMP JUMPDEST DUP5 MSTORE PUSH1 0x20 DUP5 ADD SWAP4 POP PUSH1 0x20 DUP4 ADD SWAP3 POP POP PUSH1 0x1 DUP2 ADD SWAP1 POP PUSH2 0x2DD JUMP JUMPDEST POP POP POP SWAP4 SWAP3 POP POP POP JUMP JUMPDEST PUSH1 0x0 DUP3 PUSH1 0x1F DUP4 ADD SLT PUSH2 0x329 JUMPI PUSH2 0x328 PUSH2 0x589 JUMP JUMPDEST JUMPDEST DUP2 CALLDATALOAD PUSH2 0x339 DUP5 DUP3 PUSH1 0x20 DUP7 ADD PUSH2 0x2A4 JUMP JUMPDEST SWAP2 POP POP SWAP3 SWAP2 POP POP JUMP JUMPDEST PUSH1 0x0 DUP2 CALLDATALOAD SWAP1 POP PUSH2 0x351 DUP2 PUSH2 0x5AE JUMP JUMPDEST SWAP3 SWAP2 POP POP JUMP JUMPDEST PUSH1 0x0 DUP2 MLOAD SWAP1 POP PUSH2 0x366 DUP2 PUSH2 0x5AE JUMP JUMPDEST SWAP3 SWAP2 POP POP JUMP JUMPDEST PUSH1 0x0 PUSH1 0x20 DUP3 DUP5 SUB SLT ISZERO PUSH2 0x382 JUMPI PUSH2 0x381 PUSH2 0x598 JUMP JUMPDEST JUMPDEST PUSH1 0x0 PUSH2 0x390 DUP5 DUP3 DUP6 ADD PUSH2 0x357 JUMP JUMPDEST SWAP2 POP POP SWAP3 SWAP2 POP POP JUMP JUMPDEST PUSH1 0x0 DUP1 PUSH1 0x40 DUP4 DUP6 SUB SLT ISZERO PUSH2 0x3B0 JUMPI PUSH2 0x3AF PUSH2 0x598 JUMP JUMPDEST JUMPDEST PUSH1 0x0 PUSH2 0x3BE DUP6 DUP3 DUP7 ADD PUSH2 0x342 JUMP JUMPDEST SWAP3 POP POP PUSH1 0x20 DUP4 ADD CALLDATALOAD PUSH8 0xFFFFFFFFFFFFFFFF DUP2 GT ISZERO PUSH2 0x3DF JUMPI PUSH2 0x3DE PUSH2 0x593 JUMP JUMPDEST JUMPDEST PUSH2 0x3EB DUP6 DUP3 DUP7 ADD PUSH2 0x314 JUMP JUMPDEST SWAP2 POP POP SWAP3 POP SWAP3 SWAP1 POP JUMP JUMPDEST PUSH2 0x3FE DUP2 PUSH2 0x4C4 JUMP JUMPDEST DUP3 MSTORE POP POP JUMP JUMPDEST PUSH2 0x40D DUP2 PUSH2 0x4BA JUMP JUMPDEST DUP3 MSTORE POP POP JUMP JUMPDEST PUSH1 0x0 PUSH1 0x20 DUP3 ADD SWAP1 POP PUSH2 0x428 PUSH1 0x0 DUP4 ADD DUP5 PUSH2 0x3F5 JUMP JUMPDEST SWAP3 SWAP2 POP POP JUMP JUMPDEST PUSH1 0x0 PUSH1 0x20 DUP3 ADD SWAP1 POP PUSH2 0x443 PUSH1 0x0 DUP4 ADD DUP5 PUSH2 0x404 JUMP JUMPDEST SWAP3 SWAP2 POP POP JUMP JUMPDEST PUSH1 0x0 PUSH2 0x453 PUSH2 0x464 JUMP JUMPDEST SWAP1 POP PUSH2 0x45F DUP3 DUP3 PUSH2 0x4FA JUMP JUMPDEST SWAP2 SWAP1 POP JUMP JUMPDEST PUSH1 0x0 PUSH1 0x40 MLOAD SWAP1 POP SWAP1 JUMP JUMPDEST PUSH1 0x0 PUSH8 0xFFFFFFFFFFFFFFFF DUP3 GT ISZERO PUSH2 0x489 JUMPI PUSH2 0x488 PUSH2 0x55A JUMP JUMPDEST JUMPDEST PUSH1 0x20 DUP3 MUL SWAP1 POP PUSH1 0x20 DUP2 ADD SWAP1 POP SWAP2 SWAP1 POP JUMP JUMPDEST PUSH1 0x0 PUSH20 0xFFFFFFFFFFFFFFFFFFFFFFFFFFFFFFFFFFFFFFFF DUP3 AND SWAP1 POP SWAP2 SWAP1 POP JUMP JUMPDEST PUSH1 0x0 DUP2 SWAP1 POP SWAP2 SWAP1 POP JUMP JUMPDEST PUSH1 0x0 PUSH2 0x4CF DUP3 PUSH2 0x4D6 JUMP JUMPDEST SWAP1 POP SWAP2 SWAP1 POP JUMP JUMPDEST PUSH1 0x0 PUSH2 0x4E1 DUP3 PUSH2 0x4E8 JUMP JUMPDEST SWAP1 POP SWAP2 SWAP1 POP JUMP JUMPDEST PUSH1 0x0 PUSH2 0x4F3 DUP3 PUSH2 0x49A JUMP JUMPDEST SWAP1 POP SWAP2 SWAP1 POP JUMP JUMPDEST PUSH2 0x503 DUP3 PUSH2 0x59D JUMP JUMPDEST DUP2 ADD DUP2 DUP2 LT PUSH8 0xFFFFFFFFFFFFFFFF DUP3 GT OR ISZERO PUSH2 0x522 JUMPI PUSH2 0x521 PUSH2 0x55A JUMP JUMPDEST JUMPDEST DUP1 PUSH1 0x40 MSTORE POP POP POP JUMP JUMPDEST PUSH32 0x4E487B7100000000000000000000000000000000000000000000000000000000 PUSH1 0x0 MSTORE PUSH1 0x32 PUSH1 0x4 MSTORE PUSH1 0x24 PUSH1 0x0 REVERT JUMPDEST PUSH32 0x4E487B7100000000000000000000000000000000000000000000000000000000 PUSH1 0x0 MSTORE PUSH1 0x41 PUSH1 0x4 MSTORE PUSH1 0x24 PUSH1 0x0 REVERT JUMPDEST PUSH1 0x0 DUP1 REVERT JUMPDEST PUSH1 0x0 DUP1 REVERT JUMPDEST PUSH1 0x0 DUP1 REVERT JUMPDEST PUSH1 0x0 DUP1 REVERT JUMPDEST PUSH1 0x0 PUSH1 0x1F NOT PUSH1 0x1F DUP4 ADD AND SWAP1 POP SWAP2 SWAP1 POP JUMP JUMPDEST PUSH2 0x5B7 DUP2 PUSH2 0x4BA JUMP JUMPDEST DUP2 EQ PUSH2 0x5C2 JUMPI PUSH1 0x0 DUP1 REVERT JUMPDEST POP JUMP INVALID LOG2 PUSH5 0x6970667358 0x22 SLT KECCAK256 0xB9 0xBE KECCAK256 ORIGIN EXP CALLDATASIZE BASEFEE SWAP3 AND 0xBC 0xA8 0x23 0x2E PUSH24 0x4C9150DA12AD89F65FED48A7F597BA16425664736F6C6343 STOP ADDMOD SMOD STOP CALLER "
				},
				"gasEstimates": {
					"creation": {
						"codeDepositCost": "306200",
						"executionCost": "infinite",
						"totalCost": "infinite"
					},
					"external": {
						"i_argument()": "infinite",
						"i_mock()": "infinite",
						"internalRequest()": "infinite",
						"rawExternalContractFunction(uint256,uint256[])": "infinite",
						"s_randomWord()": "2495"
					},
					"internal": {
						"externalContractFunction(uint256,uint256[] memory)": "infinite"
					}
				},
				"methodIdentifiers": {
					"i_argument()": "3eea160a",
					"i_mock()": "3bd359aa",
					"internalRequest()": "5119c478",
					"rawExternalContractFunction(uint256,uint256[])": "164f0055",
					"s_randomWord()": "fd210fd9"
				}
			},
			"storageLayout": {
				"storage": [
					{
						"astId": 10,
						"contract": "contracts/4_Base.sol:Base",
						"label": "s_randomWord",
						"offset": 0,
						"slot": "0",
						"type": "t_uint256"
					}
				],
				"types": {
					"t_uint256": {
						"encoding": "inplace",
						"label": "uint256",
						"numberOfBytes": "32"
					}
				}
			},
			"userdoc": {
				"kind": "user",
				"methods": {},
				"version": 1
			}
		}
	}
}