{
	"contracts/6_Mock.sol": {
		"Mock": {
			"abi": [
				{
					"anonymous": false,
					"inputs": [
						{
							"indexed": true,
							"internalType": "uint256",
							"name": "argument",
							"type": "uint256"
						},
						{
							"indexed": false,
							"internalType": "uint256",
							"name": "requestId",
							"type": "uint256"
						},
						{
							"indexed": true,
							"internalType": "address",
							"name": "sender",
							"type": "address"
						}
					],
					"name": "WordsRequested",
					"type": "event"
				},
				{
					"inputs": [],
					"name": "bridgeFunctionSelector",
					"outputs": [
						{
							"internalType": "bytes32",
							"name": "",
							"type": "bytes32"
						}
					],
					"stateMutability": "view",
					"type": "function"
				},
				{
					"inputs": [
						{
							"internalType": "uint256",
							"name": "_requestId",
							"type": "uint256"
						},
						{
							"internalType": "string",
							"name": "_someString",
							"type": "string"
						}
					],
					"name": "externalContractFunction",
					"outputs": [],
					"stateMutability": "nonpayable",
					"type": "function"
				},
				{
					"inputs": [
						{
							"internalType": "uint256",
							"name": "_requestId",
							"type": "uint256"
						},
						{
							"internalType": "string",
							"name": "_someString",
							"type": "string"
						},
						{
							"internalType": "uint256[]",
							"name": "_words",
							"type": "uint256[]"
						}
					],
					"name": "externalContractFunctionWithOverride",
					"outputs": [],
					"stateMutability": "nonpayable",
					"type": "function"
				},
				{
					"inputs": [],
					"name": "randomWords",
					"outputs": [
						{
							"internalType": "uint256",
							"name": "",
							"type": "uint256"
						}
					],
					"stateMutability": "view",
					"type": "function"
				},
				{
					"inputs": [
						{
							"internalType": "uint256",
							"name": "_argument",
							"type": "uint256"
						}
					],
					"name": "requestWords",
					"outputs": [
						{
							"internalType": "uint256",
							"name": "",
							"type": "uint256"
						}
					],
					"stateMutability": "nonpayable",
					"type": "function"
				},
				{
					"inputs": [],
					"name": "s_someString",
					"outputs": [
						{
							"internalType": "string",
							"name": "",
							"type": "string"
						}
					],
					"stateMutability": "view",
					"type": "function"
				}
			],
			"devdoc": {
				"kind": "dev",
				"methods": {},
				"version": 1
			},
			"evm": {
				"assembly": "    /* \"contracts/6_Mock.sol\":80:1200  contract Mock is IMock {\r... */\n  mstore(0x40, 0x80)\n  callvalue\n  dup1\n  iszero\n  tag_1\n  jumpi\n  0x00\n  dup1\n  revert\ntag_1:\n  pop\n  dataSize(sub_0)\n  dup1\n  dataOffset(sub_0)\n  0x00\n  codecopy\n  0x00\n  return\nstop\n\nsub_0: assembly {\n        /* \"contracts/6_Mock.sol\":80:1200  contract Mock is IMock {\r... */\n      mstore(0x40, 0x80)\n      callvalue\n      dup1\n      iszero\n      tag_1\n      jumpi\n      0x00\n      dup1\n      revert\n    tag_1:\n      pop\n      jumpi(tag_2, lt(calldatasize, 0x04))\n      shr(0xe0, calldataload(0x00))\n      dup1\n      0x1eab7140\n      eq\n      tag_3\n      jumpi\n      dup1\n      0x46df1b6f\n      eq\n      tag_4\n      jumpi\n      dup1\n      0x6a8bb7cc\n      eq\n      tag_5\n      jumpi\n      dup1\n      0x86ceea6d\n      eq\n      tag_6\n      jumpi\n      dup1\n      0x9339ff97\n      eq\n      tag_7\n      jumpi\n      dup1\n      0x9c3a4beb\n      eq\n      tag_8\n      jumpi\n    tag_2:\n      0x00\n      dup1\n      revert\n        /* \"contracts/6_Mock.sol\":992:1197  function requestWords(uint256 _argument) external override returns(uint256) {\r... */\n    tag_3:\n      tag_9\n      0x04\n      dup1\n      calldatasize\n      sub\n      dup2\n      add\n      swap1\n      tag_10\n      swap2\n      swap1\n      tag_11\n      jump\t// in\n    tag_10:\n      tag_12\n      jump\t// in\n    tag_9:\n      mload(0x40)\n      tag_13\n      swap2\n      swap1\n      tag_14\n      jump\t// in\n    tag_13:\n      mload(0x40)\n      dup1\n      swap2\n      sub\n      swap1\n      return\n        /* \"contracts/6_Mock.sol\":545:984  function externalContractFunctionWithOverride(uint256 _requestId, string memory _someString, uint256[] memory _words) public {\r... */\n    tag_4:\n      tag_15\n      0x04\n      dup1\n      calldatasize\n      sub\n      dup2\n      add\n      swap1\n      tag_16\n      swap2\n      swap1\n      tag_17\n      jump\t// in\n    tag_16:\n      tag_18\n      jump\t// in\n    tag_15:\n      stop\n        /* \"contracts/6_Mock.sol\":170:196  uint256 public randomWords */\n    tag_5:\n      tag_19\n      tag_20\n      jump\t// in\n    tag_19:\n      mload(0x40)\n      tag_21\n      swap2\n      swap1\n      tag_14\n      jump\t// in\n    tag_21:\n      mload(0x40)\n      dup1\n      swap2\n      sub\n      swap1\n      return\n        /* \"contracts/6_Mock.sol\":351:539  function externalContractFunction(uint256 _requestId, string memory _someString) external {\r... */\n    tag_6:\n      tag_22\n      0x04\n      dup1\n      calldatasize\n      sub\n      dup2\n      add\n      swap1\n      tag_23\n      swap2\n      swap1\n      tag_24\n      jump\t// in\n    tag_23:\n      tag_25\n      jump\t// in\n    tag_22:\n      stop\n        /* \"contracts/6_Mock.sol\":112:163  string public constant s_someString = \"some string\" */\n    tag_7:\n      tag_26\n      tag_27\n      jump\t// in\n    tag_26:\n      mload(0x40)\n      tag_28\n      swap2\n      swap1\n      tag_29\n      jump\t// in\n    tag_28:\n      mload(0x40)\n      dup1\n      swap2\n      sub\n      swap1\n      return\n        /* \"contracts/6_Mock.sol\":203:240  bytes32 public bridgeFunctionSelector */\n    tag_8:\n      tag_30\n      tag_31\n      jump\t// in\n    tag_30:\n      mload(0x40)\n      tag_32\n      swap2\n      swap1\n      tag_33\n      jump\t// in\n    tag_32:\n      mload(0x40)\n      dup1\n      swap2\n      sub\n      swap1\n      return\n        /* \"contracts/6_Mock.sol\":992:1197  function requestWords(uint256 _argument) external override returns(uint256) {\r... */\n    tag_12:\n        /* \"contracts/6_Mock.sol\":1059:1066  uint256 */\n      0x00\n        /* \"contracts/6_Mock.sol\":1079:1096  uint256 requestId */\n      dup1\n        /* \"contracts/6_Mock.sol\":1099:1100  1 */\n      0x01\n        /* \"contracts/6_Mock.sol\":1079:1100  uint256 requestId = 1 */\n      swap1\n      pop\n        /* \"contracts/6_Mock.sol\":1151:1161  msg.sender */\n      caller\n        /* \"contracts/6_Mock.sol\":1116:1162  WordsRequested(_argument,requestId,msg.sender) */\n      0xffffffffffffffffffffffffffffffffffffffff\n      and\n        /* \"contracts/6_Mock.sol\":1131:1140  _argument */\n      dup4\n        /* \"contracts/6_Mock.sol\":1116:1162  WordsRequested(_argument,requestId,msg.sender) */\n      0xa4e63fd372f45acb6181a4bc05e6d53c5faa3fe81ceb10e4266c7bec09eadb2a\n        /* \"contracts/6_Mock.sol\":1141:1150  requestId */\n      dup4\n        /* \"contracts/6_Mock.sol\":1116:1162  WordsRequested(_argument,requestId,msg.sender) */\n      mload(0x40)\n      tag_35\n      swap2\n      swap1\n      tag_14\n      jump\t// in\n    tag_35:\n      mload(0x40)\n      dup1\n      swap2\n      sub\n      swap1\n      log3\n        /* \"contracts/6_Mock.sol\":1180:1189  requestId */\n      dup1\n        /* \"contracts/6_Mock.sol\":1173:1189  return requestId */\n      swap2\n      pop\n      pop\n        /* \"contracts/6_Mock.sol\":992:1197  function requestWords(uint256 _argument) external override returns(uint256) {\r... */\n      swap2\n      swap1\n      pop\n      jump\t// out\n        /* \"contracts/6_Mock.sol\":545:984  function externalContractFunctionWithOverride(uint256 _requestId, string memory _someString, uint256[] memory _words) public {\r... */\n    tag_18:\n        /* \"contracts/6_Mock.sol\":722:732  _requestId */\n      dup3\n        /* \"contracts/6_Mock.sol\":734:735  0 */\n      0x00\n        /* \"contracts/6_Mock.sol\":711:736  abi.encode(_requestId, 0) */\n      add(0x20, mload(0x40))\n      tag_37\n      swap3\n      swap2\n      swap1\n      tag_38\n      jump\t// in\n    tag_37:\n      mload(0x40)\n      0x20\n      dup2\n      dup4\n      sub\n      sub\n      dup2\n      mstore\n      swap1\n      0x40\n      mstore\n        /* \"contracts/6_Mock.sol\":701:737  keccak256(abi.encode(_requestId, 0)) */\n      dup1\n      mload\n      swap1\n      0x20\n      add\n      keccak256\n        /* \"contracts/6_Mock.sol\":693:738  uint256(keccak256(abi.encode(_requestId, 0))) */\n      0x00\n      shr\n        /* \"contracts/6_Mock.sol\":681:687  _words */\n      dup2\n        /* \"contracts/6_Mock.sol\":688:689  0 */\n      0x00\n        /* \"contracts/6_Mock.sol\":681:690  _words[0] */\n      dup2\n      mload\n      dup2\n      lt\n      tag_39\n      jumpi\n      tag_40\n      tag_41\n      jump\t// in\n    tag_40:\n    tag_39:\n      0x20\n      mul\n      0x20\n      add\n      add\n        /* \"contracts/6_Mock.sol\":681:738  _words[0] = uint256(keccak256(abi.encode(_requestId, 0))) */\n      dup2\n      dup2\n      mstore\n      pop\n      pop\n        /* \"contracts/6_Mock.sol\":763:769  _words */\n      dup1\n        /* \"contracts/6_Mock.sol\":770:771  0 */\n      0x00\n        /* \"contracts/6_Mock.sol\":763:772  _words[0] */\n      dup2\n      mload\n      dup2\n      lt\n      tag_42\n      jumpi\n      tag_43\n      tag_41\n      jump\t// in\n    tag_43:\n    tag_42:\n      0x20\n      mul\n      0x20\n      add\n      add\n      mload\n        /* \"contracts/6_Mock.sol\":749:760  randomWords */\n      0x00\n        /* \"contracts/6_Mock.sol\":749:772  randomWords = _words[0] */\n      dup2\n      swap1\n      sstore\n      pop\n        /* \"contracts/6_Mock.sol\":783:796  Bridge bridge */\n      0x00\n        /* \"contracts/6_Mock.sol\":832:875  bridge.rawExternalContractFunction.selector */\n      shl(0xe0, 0x164f0055)\n        /* \"contracts/6_Mock.sol\":807:875  bridgeFunctionSelector = bridge.rawExternalContractFunction.selector */\n      not(0xffffffffffffffffffffffffffffffffffffffffffffffffffffffff)\n      and\n        /* \"contracts/6_Mock.sol\":807:829  bridgeFunctionSelector */\n      0x01\n        /* \"contracts/6_Mock.sol\":807:875  bridgeFunctionSelector = bridge.rawExternalContractFunction.selector */\n      dup2\n      swap1\n      sstore\n      pop\n        /* \"contracts/6_Mock.sol\":886:906  bytes memory callReq */\n      0x00\n        /* \"contracts/6_Mock.sol\":932:975  bridge.rawExternalContractFunction.selector */\n      shl(0xe0, 0x164f0055)\n        /* \"contracts/6_Mock.sol\":909:976  abi.encodeWithSelector(bridge.rawExternalContractFunction.selector) */\n      add(0x24, mload(0x40))\n      mload(0x40)\n      0x20\n      dup2\n      dup4\n      sub\n      sub\n      dup2\n      mstore\n      swap1\n      0x40\n      mstore\n      swap1\n      not(0xffffffffffffffffffffffffffffffffffffffffffffffffffffffff)\n      and\n      0x20\n      dup3\n      add\n      dup1\n      mload\n      0xffffffffffffffffffffffffffffffffffffffffffffffffffffffff\n      dup4\n      dup2\n      dup4\n      and\n      or\n      dup4\n      mstore\n      pop\n      pop\n      pop\n      pop\n        /* \"contracts/6_Mock.sol\":886:976  bytes memory callReq = abi.encodeWithSelector(bridge.rawExternalContractFunction.selector) */\n      swap1\n      pop\n        /* \"contracts/6_Mock.sol\":670:984  {\r... */\n      pop\n      pop\n        /* \"contracts/6_Mock.sol\":545:984  function externalContractFunctionWithOverride(uint256 _requestId, string memory _someString, uint256[] memory _words) public {\r... */\n      pop\n      pop\n      pop\n      jump\t// out\n        /* \"contracts/6_Mock.sol\":170:196  uint256 public randomWords */\n    tag_20:\n      sload(0x00)\n      dup2\n      jump\t// out\n        /* \"contracts/6_Mock.sol\":351:539  function externalContractFunction(uint256 _requestId, string memory _someString) external {\r... */\n    tag_25:\n        /* \"contracts/6_Mock.sol\":452:531  externalContractFunctionWithOverride(_requestId, _someString, new uint256[](0)) */\n      tag_45\n        /* \"contracts/6_Mock.sol\":489:499  _requestId */\n      dup3\n        /* \"contracts/6_Mock.sol\":501:512  _someString */\n      dup3\n        /* \"contracts/6_Mock.sol\":528:529  0 */\n      0x00\n        /* \"contracts/6_Mock.sol\":514:530  new uint256[](0) */\n      0xffffffffffffffff\n      dup2\n      gt\n      iszero\n      tag_46\n      jumpi\n      tag_47\n      tag_48\n      jump\t// in\n    tag_47:\n    tag_46:\n      mload(0x40)\n      swap1\n      dup1\n      dup3\n      mstore\n      dup1\n      0x20\n      mul\n      0x20\n      add\n      dup3\n      add\n      0x40\n      mstore\n      dup1\n      iszero\n      tag_49\n      jumpi\n      dup2\n      0x20\n      add\n      0x20\n      dup3\n      mul\n      dup1\n      calldatasize\n      dup4\n      calldatacopy\n      dup1\n      dup3\n      add\n      swap2\n      pop\n      pop\n      swap1\n      pop\n    tag_49:\n      pop\n        /* \"contracts/6_Mock.sol\":452:488  externalContractFunctionWithOverride */\n      tag_18\n        /* \"contracts/6_Mock.sol\":452:531  externalContractFunctionWithOverride(_requestId, _someString, new uint256[](0)) */\n      jump\t// in\n    tag_45:\n        /* \"contracts/6_Mock.sol\":351:539  function externalContractFunction(uint256 _requestId, string memory _someString) external {\r... */\n      pop\n      pop\n      jump\t// out\n        /* \"contracts/6_Mock.sol\":112:163  string public constant s_someString = \"some string\" */\n    tag_27:\n      mload(0x40)\n      dup1\n      0x40\n      add\n      0x40\n      mstore\n      dup1\n      0x0b\n      dup2\n      mstore\n      0x20\n      add\n      0x736f6d6520737472696e67000000000000000000000000000000000000000000\n      dup2\n      mstore\n      pop\n      dup2\n      jump\t// out\n        /* \"contracts/6_Mock.sol\":203:240  bytes32 public bridgeFunctionSelector */\n    tag_31:\n      sload(0x01)\n      dup2\n      jump\t// out\n        /* \"#utility.yul\":24:746   */\n    tag_51:\n        /* \"#utility.yul\":120:125   */\n      0x00\n        /* \"#utility.yul\":145:226   */\n      tag_53\n        /* \"#utility.yul\":161:225   */\n      tag_54\n        /* \"#utility.yul\":218:224   */\n      dup5\n        /* \"#utility.yul\":161:225   */\n      tag_55\n      jump\t// in\n    tag_54:\n        /* \"#utility.yul\":145:226   */\n      tag_56\n      jump\t// in\n    tag_53:\n        /* \"#utility.yul\":136:226   */\n      swap1\n      pop\n        /* \"#utility.yul\":246:251   */\n      dup1\n        /* \"#utility.yul\":275:281   */\n      dup4\n        /* \"#utility.yul\":268:273   */\n      dup3\n        /* \"#utility.yul\":261:282   */\n      mstore\n        /* \"#utility.yul\":309:313   */\n      0x20\n        /* \"#utility.yul\":302:307   */\n      dup3\n        /* \"#utility.yul\":298:314   */\n      add\n        /* \"#utility.yul\":291:314   */\n      swap1\n      pop\n        /* \"#utility.yul\":335:341   */\n      dup3\n        /* \"#utility.yul\":385:388   */\n      dup6\n        /* \"#utility.yul\":377:381   */\n      0x20\n        /* \"#utility.yul\":369:375   */\n      dup7\n        /* \"#utility.yul\":365:382   */\n      mul\n        /* \"#utility.yul\":360:363   */\n      dup3\n        /* \"#utility.yul\":356:383   */\n      add\n        /* \"#utility.yul\":353:389   */\n      gt\n        /* \"#utility.yul\":350:493   */\n      iszero\n      tag_57\n      jumpi\n        /* \"#utility.yul\":404:483   */\n      tag_58\n      tag_59\n      jump\t// in\n    tag_58:\n        /* \"#utility.yul\":350:493   */\n    tag_57:\n        /* \"#utility.yul\":517:518   */\n      0x00\n        /* \"#utility.yul\":502:740   */\n    tag_60:\n        /* \"#utility.yul\":527:533   */\n      dup6\n        /* \"#utility.yul\":524:525   */\n      dup2\n        /* \"#utility.yul\":521:534   */\n      lt\n        /* \"#utility.yul\":502:740   */\n      iszero\n      tag_62\n      jumpi\n        /* \"#utility.yul\":595:598   */\n      dup2\n        /* \"#utility.yul\":624:661   */\n      tag_63\n        /* \"#utility.yul\":657:660   */\n      dup9\n        /* \"#utility.yul\":645:655   */\n      dup3\n        /* \"#utility.yul\":624:661   */\n      tag_64\n      jump\t// in\n    tag_63:\n        /* \"#utility.yul\":619:622   */\n      dup5\n        /* \"#utility.yul\":612:662   */\n      mstore\n        /* \"#utility.yul\":691:695   */\n      0x20\n        /* \"#utility.yul\":686:689   */\n      dup5\n        /* \"#utility.yul\":682:696   */\n      add\n        /* \"#utility.yul\":675:696   */\n      swap4\n      pop\n        /* \"#utility.yul\":725:729   */\n      0x20\n        /* \"#utility.yul\":720:723   */\n      dup4\n        /* \"#utility.yul\":716:730   */\n      add\n        /* \"#utility.yul\":709:730   */\n      swap3\n      pop\n        /* \"#utility.yul\":562:740   */\n      pop\n        /* \"#utility.yul\":549:550   */\n      0x01\n        /* \"#utility.yul\":546:547   */\n      dup2\n        /* \"#utility.yul\":542:551   */\n      add\n        /* \"#utility.yul\":537:551   */\n      swap1\n      pop\n        /* \"#utility.yul\":502:740   */\n      jump(tag_60)\n    tag_62:\n        /* \"#utility.yul\":506:520   */\n      pop\n        /* \"#utility.yul\":126:746   */\n      pop\n      pop\n        /* \"#utility.yul\":24:746   */\n      swap4\n      swap3\n      pop\n      pop\n      pop\n      jump\t// out\n        /* \"#utility.yul\":752:1164   */\n    tag_65:\n        /* \"#utility.yul\":830:835   */\n      0x00\n        /* \"#utility.yul\":855:921   */\n      tag_67\n        /* \"#utility.yul\":871:920   */\n      tag_68\n        /* \"#utility.yul\":913:919   */\n      dup5\n        /* \"#utility.yul\":871:920   */\n      tag_69\n      jump\t// in\n    tag_68:\n        /* \"#utility.yul\":855:921   */\n      tag_56\n      jump\t// in\n    tag_67:\n        /* \"#utility.yul\":846:921   */\n      swap1\n      pop\n        /* \"#utility.yul\":944:950   */\n      dup3\n        /* \"#utility.yul\":937:942   */\n      dup2\n        /* \"#utility.yul\":930:951   */\n      mstore\n        /* \"#utility.yul\":982:986   */\n      0x20\n        /* \"#utility.yul\":975:980   */\n      dup2\n        /* \"#utility.yul\":971:987   */\n      add\n        /* \"#utility.yul\":1020:1023   */\n      dup5\n        /* \"#utility.yul\":1011:1017   */\n      dup5\n        /* \"#utility.yul\":1006:1009   */\n      dup5\n        /* \"#utility.yul\":1002:1018   */\n      add\n        /* \"#utility.yul\":999:1024   */\n      gt\n        /* \"#utility.yul\":996:1108   */\n      iszero\n      tag_70\n      jumpi\n        /* \"#utility.yul\":1027:1106   */\n      tag_71\n      tag_72\n      jump\t// in\n    tag_71:\n        /* \"#utility.yul\":996:1108   */\n    tag_70:\n        /* \"#utility.yul\":1117:1158   */\n      tag_73\n        /* \"#utility.yul\":1151:1157   */\n      dup5\n        /* \"#utility.yul\":1146:1149   */\n      dup3\n        /* \"#utility.yul\":1141:1144   */\n      dup6\n        /* \"#utility.yul\":1117:1158   */\n      tag_74\n      jump\t// in\n    tag_73:\n        /* \"#utility.yul\":836:1164   */\n      pop\n        /* \"#utility.yul\":752:1164   */\n      swap4\n      swap3\n      pop\n      pop\n      pop\n      jump\t// out\n        /* \"#utility.yul\":1187:1557   */\n    tag_75:\n        /* \"#utility.yul\":1258:1263   */\n      0x00\n        /* \"#utility.yul\":1307:1310   */\n      dup3\n        /* \"#utility.yul\":1300:1304   */\n      0x1f\n        /* \"#utility.yul\":1292:1298   */\n      dup4\n        /* \"#utility.yul\":1288:1305   */\n      add\n        /* \"#utility.yul\":1284:1311   */\n      slt\n        /* \"#utility.yul\":1274:1396   */\n      tag_77\n      jumpi\n        /* \"#utility.yul\":1315:1394   */\n      tag_78\n      tag_79\n      jump\t// in\n    tag_78:\n        /* \"#utility.yul\":1274:1396   */\n    tag_77:\n        /* \"#utility.yul\":1432:1438   */\n      dup2\n        /* \"#utility.yul\":1419:1439   */\n      calldataload\n        /* \"#utility.yul\":1457:1551   */\n      tag_80\n        /* \"#utility.yul\":1547:1550   */\n      dup5\n        /* \"#utility.yul\":1539:1545   */\n      dup3\n        /* \"#utility.yul\":1532:1536   */\n      0x20\n        /* \"#utility.yul\":1524:1530   */\n      dup7\n        /* \"#utility.yul\":1520:1537   */\n      add\n        /* \"#utility.yul\":1457:1551   */\n      tag_51\n      jump\t// in\n    tag_80:\n        /* \"#utility.yul\":1448:1551   */\n      swap2\n      pop\n        /* \"#utility.yul\":1264:1557   */\n      pop\n        /* \"#utility.yul\":1187:1557   */\n      swap3\n      swap2\n      pop\n      pop\n      jump\t// out\n        /* \"#utility.yul\":1577:1917   */\n    tag_81:\n        /* \"#utility.yul\":1633:1638   */\n      0x00\n        /* \"#utility.yul\":1682:1685   */\n      dup3\n        /* \"#utility.yul\":1675:1679   */\n      0x1f\n        /* \"#utility.yul\":1667:1673   */\n      dup4\n        /* \"#utility.yul\":1663:1680   */\n      add\n        /* \"#utility.yul\":1659:1686   */\n      slt\n        /* \"#utility.yul\":1649:1771   */\n      tag_83\n      jumpi\n        /* \"#utility.yul\":1690:1769   */\n      tag_84\n      tag_79\n      jump\t// in\n    tag_84:\n        /* \"#utility.yul\":1649:1771   */\n    tag_83:\n        /* \"#utility.yul\":1807:1813   */\n      dup2\n        /* \"#utility.yul\":1794:1814   */\n      calldataload\n        /* \"#utility.yul\":1832:1911   */\n      tag_85\n        /* \"#utility.yul\":1907:1910   */\n      dup5\n        /* \"#utility.yul\":1899:1905   */\n      dup3\n        /* \"#utility.yul\":1892:1896   */\n      0x20\n        /* \"#utility.yul\":1884:1890   */\n      dup7\n        /* \"#utility.yul\":1880:1897   */\n      add\n        /* \"#utility.yul\":1832:1911   */\n      tag_65\n      jump\t// in\n    tag_85:\n        /* \"#utility.yul\":1823:1911   */\n      swap2\n      pop\n        /* \"#utility.yul\":1639:1917   */\n      pop\n        /* \"#utility.yul\":1577:1917   */\n      swap3\n      swap2\n      pop\n      pop\n      jump\t// out\n        /* \"#utility.yul\":1923:2062   */\n    tag_64:\n        /* \"#utility.yul\":1969:1974   */\n      0x00\n        /* \"#utility.yul\":2007:2013   */\n      dup2\n        /* \"#utility.yul\":1994:2014   */\n      calldataload\n        /* \"#utility.yul\":1985:2014   */\n      swap1\n      pop\n        /* \"#utility.yul\":2023:2056   */\n      tag_87\n        /* \"#utility.yul\":2050:2055   */\n      dup2\n        /* \"#utility.yul\":2023:2056   */\n      tag_88\n      jump\t// in\n    tag_87:\n        /* \"#utility.yul\":1923:2062   */\n      swap3\n      swap2\n      pop\n      pop\n      jump\t// out\n        /* \"#utility.yul\":2068:2397   */\n    tag_11:\n        /* \"#utility.yul\":2127:2133   */\n      0x00\n        /* \"#utility.yul\":2176:2178   */\n      0x20\n        /* \"#utility.yul\":2164:2173   */\n      dup3\n        /* \"#utility.yul\":2155:2162   */\n      dup5\n        /* \"#utility.yul\":2151:2174   */\n      sub\n        /* \"#utility.yul\":2147:2179   */\n      slt\n        /* \"#utility.yul\":2144:2263   */\n      iszero\n      tag_90\n      jumpi\n        /* \"#utility.yul\":2182:2261   */\n      tag_91\n      tag_92\n      jump\t// in\n    tag_91:\n        /* \"#utility.yul\":2144:2263   */\n    tag_90:\n        /* \"#utility.yul\":2302:2303   */\n      0x00\n        /* \"#utility.yul\":2327:2380   */\n      tag_93\n        /* \"#utility.yul\":2372:2379   */\n      dup5\n        /* \"#utility.yul\":2363:2369   */\n      dup3\n        /* \"#utility.yul\":2352:2361   */\n      dup6\n        /* \"#utility.yul\":2348:2370   */\n      add\n        /* \"#utility.yul\":2327:2380   */\n      tag_64\n      jump\t// in\n    tag_93:\n        /* \"#utility.yul\":2317:2380   */\n      swap2\n      pop\n        /* \"#utility.yul\":2273:2390   */\n      pop\n        /* \"#utility.yul\":2068:2397   */\n      swap3\n      swap2\n      pop\n      pop\n      jump\t// out\n        /* \"#utility.yul\":2403:3057   */\n    tag_24:\n        /* \"#utility.yul\":2481:2487   */\n      0x00\n        /* \"#utility.yul\":2489:2495   */\n      dup1\n        /* \"#utility.yul\":2538:2540   */\n      0x40\n        /* \"#utility.yul\":2526:2535   */\n      dup4\n        /* \"#utility.yul\":2517:2524   */\n      dup6\n        /* \"#utility.yul\":2513:2536   */\n      sub\n        /* \"#utility.yul\":2509:2541   */\n      slt\n        /* \"#utility.yul\":2506:2625   */\n      iszero\n      tag_95\n      jumpi\n        /* \"#utility.yul\":2544:2623   */\n      tag_96\n      tag_92\n      jump\t// in\n    tag_96:\n        /* \"#utility.yul\":2506:2625   */\n    tag_95:\n        /* \"#utility.yul\":2664:2665   */\n      0x00\n        /* \"#utility.yul\":2689:2742   */\n      tag_97\n        /* \"#utility.yul\":2734:2741   */\n      dup6\n        /* \"#utility.yul\":2725:2731   */\n      dup3\n        /* \"#utility.yul\":2714:2723   */\n      dup7\n        /* \"#utility.yul\":2710:2732   */\n      add\n        /* \"#utility.yul\":2689:2742   */\n      tag_64\n      jump\t// in\n    tag_97:\n        /* \"#utility.yul\":2679:2742   */\n      swap3\n      pop\n        /* \"#utility.yul\":2635:2752   */\n      pop\n        /* \"#utility.yul\":2819:2821   */\n      0x20\n        /* \"#utility.yul\":2808:2817   */\n      dup4\n        /* \"#utility.yul\":2804:2822   */\n      add\n        /* \"#utility.yul\":2791:2823   */\n      calldataload\n        /* \"#utility.yul\":2850:2868   */\n      0xffffffffffffffff\n        /* \"#utility.yul\":2842:2848   */\n      dup2\n        /* \"#utility.yul\":2839:2869   */\n      gt\n        /* \"#utility.yul\":2836:2953   */\n      iszero\n      tag_98\n      jumpi\n        /* \"#utility.yul\":2872:2951   */\n      tag_99\n      tag_100\n      jump\t// in\n    tag_99:\n        /* \"#utility.yul\":2836:2953   */\n    tag_98:\n        /* \"#utility.yul\":2977:3040   */\n      tag_101\n        /* \"#utility.yul\":3032:3039   */\n      dup6\n        /* \"#utility.yul\":3023:3029   */\n      dup3\n        /* \"#utility.yul\":3012:3021   */\n      dup7\n        /* \"#utility.yul\":3008:3030   */\n      add\n        /* \"#utility.yul\":2977:3040   */\n      tag_81\n      jump\t// in\n    tag_101:\n        /* \"#utility.yul\":2967:3040   */\n      swap2\n      pop\n        /* \"#utility.yul\":2762:3050   */\n      pop\n        /* \"#utility.yul\":2403:3057   */\n      swap3\n      pop\n      swap3\n      swap1\n      pop\n      jump\t// out\n        /* \"#utility.yul\":3063:4072   */\n    tag_17:\n        /* \"#utility.yul\":3175:3181   */\n      0x00\n        /* \"#utility.yul\":3183:3189   */\n      dup1\n        /* \"#utility.yul\":3191:3197   */\n      0x00\n        /* \"#utility.yul\":3240:3242   */\n      0x60\n        /* \"#utility.yul\":3228:3237   */\n      dup5\n        /* \"#utility.yul\":3219:3226   */\n      dup7\n        /* \"#utility.yul\":3215:3238   */\n      sub\n        /* \"#utility.yul\":3211:3243   */\n      slt\n        /* \"#utility.yul\":3208:3327   */\n      iszero\n      tag_103\n      jumpi\n        /* \"#utility.yul\":3246:3325   */\n      tag_104\n      tag_92\n      jump\t// in\n    tag_104:\n        /* \"#utility.yul\":3208:3327   */\n    tag_103:\n        /* \"#utility.yul\":3366:3367   */\n      0x00\n        /* \"#utility.yul\":3391:3444   */\n      tag_105\n        /* \"#utility.yul\":3436:3443   */\n      dup7\n        /* \"#utility.yul\":3427:3433   */\n      dup3\n        /* \"#utility.yul\":3416:3425   */\n      dup8\n        /* \"#utility.yul\":3412:3434   */\n      add\n        /* \"#utility.yul\":3391:3444   */\n      tag_64\n      jump\t// in\n    tag_105:\n        /* \"#utility.yul\":3381:3444   */\n      swap4\n      pop\n        /* \"#utility.yul\":3337:3454   */\n      pop\n        /* \"#utility.yul\":3521:3523   */\n      0x20\n        /* \"#utility.yul\":3510:3519   */\n      dup5\n        /* \"#utility.yul\":3506:3524   */\n      add\n        /* \"#utility.yul\":3493:3525   */\n      calldataload\n        /* \"#utility.yul\":3552:3570   */\n      0xffffffffffffffff\n        /* \"#utility.yul\":3544:3550   */\n      dup2\n        /* \"#utility.yul\":3541:3571   */\n      gt\n        /* \"#utility.yul\":3538:3655   */\n      iszero\n      tag_106\n      jumpi\n        /* \"#utility.yul\":3574:3653   */\n      tag_107\n      tag_100\n      jump\t// in\n    tag_107:\n        /* \"#utility.yul\":3538:3655   */\n    tag_106:\n        /* \"#utility.yul\":3679:3742   */\n      tag_108\n        /* \"#utility.yul\":3734:3741   */\n      dup7\n        /* \"#utility.yul\":3725:3731   */\n      dup3\n        /* \"#utility.yul\":3714:3723   */\n      dup8\n        /* \"#utility.yul\":3710:3732   */\n      add\n        /* \"#utility.yul\":3679:3742   */\n      tag_81\n      jump\t// in\n    tag_108:\n        /* \"#utility.yul\":3669:3742   */\n      swap3\n      pop\n        /* \"#utility.yul\":3464:3752   */\n      pop\n        /* \"#utility.yul\":3819:3821   */\n      0x40\n        /* \"#utility.yul\":3808:3817   */\n      dup5\n        /* \"#utility.yul\":3804:3822   */\n      add\n        /* \"#utility.yul\":3791:3823   */\n      calldataload\n        /* \"#utility.yul\":3850:3868   */\n      0xffffffffffffffff\n        /* \"#utility.yul\":3842:3848   */\n      dup2\n        /* \"#utility.yul\":3839:3869   */\n      gt\n        /* \"#utility.yul\":3836:3953   */\n      iszero\n      tag_109\n      jumpi\n        /* \"#utility.yul\":3872:3951   */\n      tag_110\n      tag_100\n      jump\t// in\n    tag_110:\n        /* \"#utility.yul\":3836:3953   */\n    tag_109:\n        /* \"#utility.yul\":3977:4055   */\n      tag_111\n        /* \"#utility.yul\":4047:4054   */\n      dup7\n        /* \"#utility.yul\":4038:4044   */\n      dup3\n        /* \"#utility.yul\":4027:4036   */\n      dup8\n        /* \"#utility.yul\":4023:4045   */\n      add\n        /* \"#utility.yul\":3977:4055   */\n      tag_75\n      jump\t// in\n    tag_111:\n        /* \"#utility.yul\":3967:4055   */\n      swap2\n      pop\n        /* \"#utility.yul\":3762:4065   */\n      pop\n        /* \"#utility.yul\":3063:4072   */\n      swap3\n      pop\n      swap3\n      pop\n      swap3\n      jump\t// out\n        /* \"#utility.yul\":4078:4196   */\n    tag_112:\n        /* \"#utility.yul\":4165:4189   */\n      tag_114\n        /* \"#utility.yul\":4183:4188   */\n      dup2\n        /* \"#utility.yul\":4165:4189   */\n      tag_115\n      jump\t// in\n    tag_114:\n        /* \"#utility.yul\":4160:4163   */\n      dup3\n        /* \"#utility.yul\":4153:4190   */\n      mstore\n        /* \"#utility.yul\":4078:4196   */\n      pop\n      pop\n      jump\t// out\n        /* \"#utility.yul\":4202:4345   */\n    tag_116:\n        /* \"#utility.yul\":4295:4338   */\n      tag_118\n        /* \"#utility.yul\":4332:4337   */\n      dup2\n        /* \"#utility.yul\":4295:4338   */\n      tag_119\n      jump\t// in\n    tag_118:\n        /* \"#utility.yul\":4290:4293   */\n      dup3\n        /* \"#utility.yul\":4283:4339   */\n      mstore\n        /* \"#utility.yul\":4202:4345   */\n      pop\n      pop\n      jump\t// out\n        /* \"#utility.yul\":4351:4715   */\n    tag_120:\n        /* \"#utility.yul\":4439:4442   */\n      0x00\n        /* \"#utility.yul\":4467:4506   */\n      tag_122\n        /* \"#utility.yul\":4500:4505   */\n      dup3\n        /* \"#utility.yul\":4467:4506   */\n      tag_123\n      jump\t// in\n    tag_122:\n        /* \"#utility.yul\":4522:4593   */\n      tag_124\n        /* \"#utility.yul\":4586:4592   */\n      dup2\n        /* \"#utility.yul\":4581:4584   */\n      dup6\n        /* \"#utility.yul\":4522:4593   */\n      tag_125\n      jump\t// in\n    tag_124:\n        /* \"#utility.yul\":4515:4593   */\n      swap4\n      pop\n        /* \"#utility.yul\":4602:4654   */\n      tag_126\n        /* \"#utility.yul\":4647:4653   */\n      dup2\n        /* \"#utility.yul\":4642:4645   */\n      dup6\n        /* \"#utility.yul\":4635:4639   */\n      0x20\n        /* \"#utility.yul\":4628:4633   */\n      dup7\n        /* \"#utility.yul\":4624:4640   */\n      add\n        /* \"#utility.yul\":4602:4654   */\n      tag_127\n      jump\t// in\n    tag_126:\n        /* \"#utility.yul\":4679:4708   */\n      tag_128\n        /* \"#utility.yul\":4701:4707   */\n      dup2\n        /* \"#utility.yul\":4679:4708   */\n      tag_129\n      jump\t// in\n    tag_128:\n        /* \"#utility.yul\":4674:4677   */\n      dup5\n        /* \"#utility.yul\":4670:4709   */\n      add\n        /* \"#utility.yul\":4663:4709   */\n      swap2\n      pop\n        /* \"#utility.yul\":4443:4715   */\n      pop\n        /* \"#utility.yul\":4351:4715   */\n      swap3\n      swap2\n      pop\n      pop\n      jump\t// out\n        /* \"#utility.yul\":4721:4839   */\n    tag_130:\n        /* \"#utility.yul\":4808:4832   */\n      tag_132\n        /* \"#utility.yul\":4826:4831   */\n      dup2\n        /* \"#utility.yul\":4808:4832   */\n      tag_133\n      jump\t// in\n    tag_132:\n        /* \"#utility.yul\":4803:4806   */\n      dup3\n        /* \"#utility.yul\":4796:4833   */\n      mstore\n        /* \"#utility.yul\":4721:4839   */\n      pop\n      pop\n      jump\t// out\n        /* \"#utility.yul\":4845:5067   */\n    tag_33:\n        /* \"#utility.yul\":4938:4942   */\n      0x00\n        /* \"#utility.yul\":4976:4978   */\n      0x20\n        /* \"#utility.yul\":4965:4974   */\n      dup3\n        /* \"#utility.yul\":4961:4979   */\n      add\n        /* \"#utility.yul\":4953:4979   */\n      swap1\n      pop\n        /* \"#utility.yul\":4989:5060   */\n      tag_135\n        /* \"#utility.yul\":5057:5058   */\n      0x00\n        /* \"#utility.yul\":5046:5055   */\n      dup4\n        /* \"#utility.yul\":5042:5059   */\n      add\n        /* \"#utility.yul\":5033:5039   */\n      dup5\n        /* \"#utility.yul\":4989:5060   */\n      tag_112\n      jump\t// in\n    tag_135:\n        /* \"#utility.yul\":4845:5067   */\n      swap3\n      swap2\n      pop\n      pop\n      jump\t// out\n        /* \"#utility.yul\":5073:5386   */\n    tag_29:\n        /* \"#utility.yul\":5186:5190   */\n      0x00\n        /* \"#utility.yul\":5224:5226   */\n      0x20\n        /* \"#utility.yul\":5213:5222   */\n      dup3\n        /* \"#utility.yul\":5209:5227   */\n      add\n        /* \"#utility.yul\":5201:5227   */\n      swap1\n      pop\n        /* \"#utility.yul\":5273:5282   */\n      dup2\n        /* \"#utility.yul\":5267:5271   */\n      dup2\n        /* \"#utility.yul\":5263:5283   */\n      sub\n        /* \"#utility.yul\":5259:5260   */\n      0x00\n        /* \"#utility.yul\":5248:5257   */\n      dup4\n        /* \"#utility.yul\":5244:5261   */\n      add\n        /* \"#utility.yul\":5237:5284   */\n      mstore\n        /* \"#utility.yul\":5301:5379   */\n      tag_137\n        /* \"#utility.yul\":5374:5378   */\n      dup2\n        /* \"#utility.yul\":5365:5371   */\n      dup5\n        /* \"#utility.yul\":5301:5379   */\n      tag_120\n      jump\t// in\n    tag_137:\n        /* \"#utility.yul\":5293:5379   */\n      swap1\n      pop\n        /* \"#utility.yul\":5073:5386   */\n      swap3\n      swap2\n      pop\n      pop\n      jump\t// out\n        /* \"#utility.yul\":5392:5614   */\n    tag_14:\n        /* \"#utility.yul\":5485:5489   */\n      0x00\n        /* \"#utility.yul\":5523:5525   */\n      0x20\n        /* \"#utility.yul\":5512:5521   */\n      dup3\n        /* \"#utility.yul\":5508:5526   */\n      add\n        /* \"#utility.yul\":5500:5526   */\n      swap1\n      pop\n        /* \"#utility.yul\":5536:5607   */\n      tag_139\n        /* \"#utility.yul\":5604:5605   */\n      0x00\n        /* \"#utility.yul\":5593:5602   */\n      dup4\n        /* \"#utility.yul\":5589:5606   */\n      add\n        /* \"#utility.yul\":5580:5586   */\n      dup5\n        /* \"#utility.yul\":5536:5607   */\n      tag_130\n      jump\t// in\n    tag_139:\n        /* \"#utility.yul\":5392:5614   */\n      swap3\n      swap2\n      pop\n      pop\n      jump\t// out\n        /* \"#utility.yul\":5620:5964   */\n    tag_38:\n        /* \"#utility.yul\":5747:5751   */\n      0x00\n        /* \"#utility.yul\":5785:5787   */\n      0x40\n        /* \"#utility.yul\":5774:5783   */\n      dup3\n        /* \"#utility.yul\":5770:5788   */\n      add\n        /* \"#utility.yul\":5762:5788   */\n      swap1\n      pop\n        /* \"#utility.yul\":5798:5869   */\n      tag_141\n        /* \"#utility.yul\":5866:5867   */\n      0x00\n        /* \"#utility.yul\":5855:5864   */\n      dup4\n        /* \"#utility.yul\":5851:5868   */\n      add\n        /* \"#utility.yul\":5842:5848   */\n      dup6\n        /* \"#utility.yul\":5798:5869   */\n      tag_130\n      jump\t// in\n    tag_141:\n        /* \"#utility.yul\":5879:5957   */\n      tag_142\n        /* \"#utility.yul\":5953:5955   */\n      0x20\n        /* \"#utility.yul\":5942:5951   */\n      dup4\n        /* \"#utility.yul\":5938:5956   */\n      add\n        /* \"#utility.yul\":5929:5935   */\n      dup5\n        /* \"#utility.yul\":5879:5957   */\n      tag_116\n      jump\t// in\n    tag_142:\n        /* \"#utility.yul\":5620:5964   */\n      swap4\n      swap3\n      pop\n      pop\n      pop\n      jump\t// out\n        /* \"#utility.yul\":5970:6099   */\n    tag_56:\n        /* \"#utility.yul\":6004:6010   */\n      0x00\n        /* \"#utility.yul\":6031:6051   */\n      tag_144\n      tag_145\n      jump\t// in\n    tag_144:\n        /* \"#utility.yul\":6021:6051   */\n      swap1\n      pop\n        /* \"#utility.yul\":6060:6093   */\n      tag_146\n        /* \"#utility.yul\":6088:6092   */\n      dup3\n        /* \"#utility.yul\":6080:6086   */\n      dup3\n        /* \"#utility.yul\":6060:6093   */\n      tag_147\n      jump\t// in\n    tag_146:\n        /* \"#utility.yul\":5970:6099   */\n      swap2\n      swap1\n      pop\n      jump\t// out\n        /* \"#utility.yul\":6105:6180   */\n    tag_145:\n        /* \"#utility.yul\":6138:6144   */\n      0x00\n        /* \"#utility.yul\":6171:6173   */\n      0x40\n        /* \"#utility.yul\":6165:6174   */\n      mload\n        /* \"#utility.yul\":6155:6174   */\n      swap1\n      pop\n        /* \"#utility.yul\":6105:6180   */\n      swap1\n      jump\t// out\n        /* \"#utility.yul\":6186:6497   */\n    tag_55:\n        /* \"#utility.yul\":6263:6267   */\n      0x00\n        /* \"#utility.yul\":6353:6371   */\n      0xffffffffffffffff\n        /* \"#utility.yul\":6345:6351   */\n      dup3\n        /* \"#utility.yul\":6342:6372   */\n      gt\n        /* \"#utility.yul\":6339:6395   */\n      iszero\n      tag_150\n      jumpi\n        /* \"#utility.yul\":6375:6393   */\n      tag_151\n      tag_48\n      jump\t// in\n    tag_151:\n        /* \"#utility.yul\":6339:6395   */\n    tag_150:\n        /* \"#utility.yul\":6425:6429   */\n      0x20\n        /* \"#utility.yul\":6417:6423   */\n      dup3\n        /* \"#utility.yul\":6413:6430   */\n      mul\n        /* \"#utility.yul\":6405:6430   */\n      swap1\n      pop\n        /* \"#utility.yul\":6485:6489   */\n      0x20\n        /* \"#utility.yul\":6479:6483   */\n      dup2\n        /* \"#utility.yul\":6475:6490   */\n      add\n        /* \"#utility.yul\":6467:6490   */\n      swap1\n      pop\n        /* \"#utility.yul\":6186:6497   */\n      swap2\n      swap1\n      pop\n      jump\t// out\n        /* \"#utility.yul\":6503:6811   */\n    tag_69:\n        /* \"#utility.yul\":6565:6569   */\n      0x00\n        /* \"#utility.yul\":6655:6673   */\n      0xffffffffffffffff\n        /* \"#utility.yul\":6647:6653   */\n      dup3\n        /* \"#utility.yul\":6644:6674   */\n      gt\n        /* \"#utility.yul\":6641:6697   */\n      iszero\n      tag_153\n      jumpi\n        /* \"#utility.yul\":6677:6695   */\n      tag_154\n      tag_48\n      jump\t// in\n    tag_154:\n        /* \"#utility.yul\":6641:6697   */\n    tag_153:\n        /* \"#utility.yul\":6715:6744   */\n      tag_155\n        /* \"#utility.yul\":6737:6743   */\n      dup3\n        /* \"#utility.yul\":6715:6744   */\n      tag_129\n      jump\t// in\n    tag_155:\n        /* \"#utility.yul\":6707:6744   */\n      swap1\n      pop\n        /* \"#utility.yul\":6799:6803   */\n      0x20\n        /* \"#utility.yul\":6793:6797   */\n      dup2\n        /* \"#utility.yul\":6789:6804   */\n      add\n        /* \"#utility.yul\":6781:6804   */\n      swap1\n      pop\n        /* \"#utility.yul\":6503:6811   */\n      swap2\n      swap1\n      pop\n      jump\t// out\n        /* \"#utility.yul\":6817:6916   */\n    tag_123:\n        /* \"#utility.yul\":6869:6875   */\n      0x00\n        /* \"#utility.yul\":6903:6908   */\n      dup2\n        /* \"#utility.yul\":6897:6909   */\n      mload\n        /* \"#utility.yul\":6887:6909   */\n      swap1\n      pop\n        /* \"#utility.yul\":6817:6916   */\n      swap2\n      swap1\n      pop\n      jump\t// out\n        /* \"#utility.yul\":6922:7091   */\n    tag_125:\n        /* \"#utility.yul\":7006:7017   */\n      0x00\n        /* \"#utility.yul\":7040:7046   */\n      dup3\n        /* \"#utility.yul\":7035:7038   */\n      dup3\n        /* \"#utility.yul\":7028:7047   */\n      mstore\n        /* \"#utility.yul\":7080:7084   */\n      0x20\n        /* \"#utility.yul\":7075:7078   */\n      dup3\n        /* \"#utility.yul\":7071:7085   */\n      add\n        /* \"#utility.yul\":7056:7085   */\n      swap1\n      pop\n        /* \"#utility.yul\":6922:7091   */\n      swap3\n      swap2\n      pop\n      pop\n      jump\t// out\n        /* \"#utility.yul\":7097:7174   */\n    tag_115:\n        /* \"#utility.yul\":7134:7141   */\n      0x00\n        /* \"#utility.yul\":7163:7168   */\n      dup2\n        /* \"#utility.yul\":7152:7168   */\n      swap1\n      pop\n        /* \"#utility.yul\":7097:7174   */\n      swap2\n      swap1\n      pop\n      jump\t// out\n        /* \"#utility.yul\":7180:7257   */\n    tag_133:\n        /* \"#utility.yul\":7217:7224   */\n      0x00\n        /* \"#utility.yul\":7246:7251   */\n      dup2\n        /* \"#utility.yul\":7235:7251   */\n      swap1\n      pop\n        /* \"#utility.yul\":7180:7257   */\n      swap2\n      swap1\n      pop\n      jump\t// out\n        /* \"#utility.yul\":7263:7349   */\n    tag_160:\n        /* \"#utility.yul\":7298:7305   */\n      0x00\n        /* \"#utility.yul\":7338:7342   */\n      0xff\n        /* \"#utility.yul\":7331:7336   */\n      dup3\n        /* \"#utility.yul\":7327:7343   */\n      and\n        /* \"#utility.yul\":7316:7343   */\n      swap1\n      pop\n        /* \"#utility.yul\":7263:7349   */\n      swap2\n      swap1\n      pop\n      jump\t// out\n        /* \"#utility.yul\":7355:7472   */\n    tag_119:\n        /* \"#utility.yul\":7411:7420   */\n      0x00\n        /* \"#utility.yul\":7444:7466   */\n      tag_163\n        /* \"#utility.yul\":7460:7465   */\n      dup3\n        /* \"#utility.yul\":7444:7466   */\n      tag_160\n      jump\t// in\n    tag_163:\n        /* \"#utility.yul\":7431:7466   */\n      swap1\n      pop\n        /* \"#utility.yul\":7355:7472   */\n      swap2\n      swap1\n      pop\n      jump\t// out\n        /* \"#utility.yul\":7478:7632   */\n    tag_74:\n        /* \"#utility.yul\":7562:7568   */\n      dup3\n        /* \"#utility.yul\":7557:7560   */\n      dup2\n        /* \"#utility.yul\":7552:7555   */\n      dup4\n        /* \"#utility.yul\":7539:7569   */\n      calldatacopy\n        /* \"#utility.yul\":7624:7625   */\n      0x00\n        /* \"#utility.yul\":7615:7621   */\n      dup4\n        /* \"#utility.yul\":7610:7613   */\n      dup4\n        /* \"#utility.yul\":7606:7622   */\n      add\n        /* \"#utility.yul\":7599:7626   */\n      mstore\n        /* \"#utility.yul\":7478:7632   */\n      pop\n      pop\n      pop\n      jump\t// out\n        /* \"#utility.yul\":7638:7945   */\n    tag_127:\n        /* \"#utility.yul\":7706:7707   */\n      0x00\n        /* \"#utility.yul\":7716:7829   */\n    tag_166:\n        /* \"#utility.yul\":7730:7736   */\n      dup4\n        /* \"#utility.yul\":7727:7728   */\n      dup2\n        /* \"#utility.yul\":7724:7737   */\n      lt\n        /* \"#utility.yul\":7716:7829   */\n      iszero\n      tag_168\n      jumpi\n        /* \"#utility.yul\":7815:7816   */\n      dup1\n        /* \"#utility.yul\":7810:7813   */\n      dup3\n        /* \"#utility.yul\":7806:7817   */\n      add\n        /* \"#utility.yul\":7800:7818   */\n      mload\n        /* \"#utility.yul\":7796:7797   */\n      dup2\n        /* \"#utility.yul\":7791:7794   */\n      dup5\n        /* \"#utility.yul\":7787:7798   */\n      add\n        /* \"#utility.yul\":7780:7819   */\n      mstore\n        /* \"#utility.yul\":7752:7754   */\n      0x20\n        /* \"#utility.yul\":7749:7750   */\n      dup2\n        /* \"#utility.yul\":7745:7755   */\n      add\n        /* \"#utility.yul\":7740:7755   */\n      swap1\n      pop\n        /* \"#utility.yul\":7716:7829   */\n      jump(tag_166)\n    tag_168:\n        /* \"#utility.yul\":7847:7853   */\n      dup4\n        /* \"#utility.yul\":7844:7845   */\n      dup2\n        /* \"#utility.yul\":7841:7854   */\n      gt\n        /* \"#utility.yul\":7838:7939   */\n      iszero\n      tag_169\n      jumpi\n        /* \"#utility.yul\":7927:7928   */\n      0x00\n        /* \"#utility.yul\":7918:7924   */\n      dup5\n        /* \"#utility.yul\":7913:7916   */\n      dup5\n        /* \"#utility.yul\":7909:7925   */\n      add\n        /* \"#utility.yul\":7902:7929   */\n      mstore\n        /* \"#utility.yul\":7838:7939   */\n    tag_169:\n        /* \"#utility.yul\":7687:7945   */\n      pop\n        /* \"#utility.yul\":7638:7945   */\n      pop\n      pop\n      pop\n      jump\t// out\n        /* \"#utility.yul\":7951:8232   */\n    tag_147:\n        /* \"#utility.yul\":8034:8061   */\n      tag_171\n        /* \"#utility.yul\":8056:8060   */\n      dup3\n        /* \"#utility.yul\":8034:8061   */\n      tag_129\n      jump\t// in\n    tag_171:\n        /* \"#utility.yul\":8026:8032   */\n      dup2\n        /* \"#utility.yul\":8022:8062   */\n      add\n        /* \"#utility.yul\":8164:8170   */\n      dup2\n        /* \"#utility.yul\":8152:8162   */\n      dup2\n        /* \"#utility.yul\":8149:8171   */\n      lt\n        /* \"#utility.yul\":8128:8146   */\n      0xffffffffffffffff\n        /* \"#utility.yul\":8116:8126   */\n      dup3\n        /* \"#utility.yul\":8113:8147   */\n      gt\n        /* \"#utility.yul\":8110:8172   */\n      or\n        /* \"#utility.yul\":8107:8195   */\n      iszero\n      tag_172\n      jumpi\n        /* \"#utility.yul\":8175:8193   */\n      tag_173\n      tag_48\n      jump\t// in\n    tag_173:\n        /* \"#utility.yul\":8107:8195   */\n    tag_172:\n        /* \"#utility.yul\":8215:8225   */\n      dup1\n        /* \"#utility.yul\":8211:8213   */\n      0x40\n        /* \"#utility.yul\":8204:8226   */\n      mstore\n        /* \"#utility.yul\":7994:8232   */\n      pop\n        /* \"#utility.yul\":7951:8232   */\n      pop\n      pop\n      jump\t// out\n        /* \"#utility.yul\":8238:8418   */\n    tag_41:\n        /* \"#utility.yul\":8286:8363   */\n      0x4e487b7100000000000000000000000000000000000000000000000000000000\n        /* \"#utility.yul\":8283:8284   */\n      0x00\n        /* \"#utility.yul\":8276:8364   */\n      mstore\n        /* \"#utility.yul\":8383:8387   */\n      0x32\n        /* \"#utility.yul\":8380:8381   */\n      0x04\n        /* \"#utility.yul\":8373:8388   */\n      mstore\n        /* \"#utility.yul\":8407:8411   */\n      0x24\n        /* \"#utility.yul\":8404:8405   */\n      0x00\n        /* \"#utility.yul\":8397:8412   */\n      revert\n        /* \"#utility.yul\":8424:8604   */\n    tag_48:\n        /* \"#utility.yul\":8472:8549   */\n      0x4e487b7100000000000000000000000000000000000000000000000000000000\n        /* \"#utility.yul\":8469:8470   */\n      0x00\n        /* \"#utility.yul\":8462:8550   */\n      mstore\n        /* \"#utility.yul\":8569:8573   */\n      0x41\n        /* \"#utility.yul\":8566:8567   */\n      0x04\n        /* \"#utility.yul\":8559:8574   */\n      mstore\n        /* \"#utility.yul\":8593:8597   */\n      0x24\n        /* \"#utility.yul\":8590:8591   */\n      0x00\n        /* \"#utility.yul\":8583:8598   */\n      revert\n        /* \"#utility.yul\":8610:8727   */\n    tag_79:\n        /* \"#utility.yul\":8719:8720   */\n      0x00\n        /* \"#utility.yul\":8716:8717   */\n      dup1\n        /* \"#utility.yul\":8709:8721   */\n      revert\n        /* \"#utility.yul\":8733:8850   */\n    tag_59:\n        /* \"#utility.yul\":8842:8843   */\n      0x00\n        /* \"#utility.yul\":8839:8840   */\n      dup1\n        /* \"#utility.yul\":8832:8844   */\n      revert\n        /* \"#utility.yul\":8856:8973   */\n    tag_72:\n        /* \"#utility.yul\":8965:8966   */\n      0x00\n        /* \"#utility.yul\":8962:8963   */\n      dup1\n        /* \"#utility.yul\":8955:8967   */\n      revert\n        /* \"#utility.yul\":8979:9096   */\n    tag_100:\n        /* \"#utility.yul\":9088:9089   */\n      0x00\n        /* \"#utility.yul\":9085:9086   */\n      dup1\n        /* \"#utility.yul\":9078:9090   */\n      revert\n        /* \"#utility.yul\":9102:9219   */\n    tag_92:\n        /* \"#utility.yul\":9211:9212   */\n      0x00\n        /* \"#utility.yul\":9208:9209   */\n      dup1\n        /* \"#utility.yul\":9201:9213   */\n      revert\n        /* \"#utility.yul\":9225:9327   */\n    tag_129:\n        /* \"#utility.yul\":9266:9272   */\n      0x00\n        /* \"#utility.yul\":9317:9319   */\n      0x1f\n        /* \"#utility.yul\":9313:9320   */\n      not\n        /* \"#utility.yul\":9308:9310   */\n      0x1f\n        /* \"#utility.yul\":9301:9306   */\n      dup4\n        /* \"#utility.yul\":9297:9311   */\n      add\n        /* \"#utility.yul\":9293:9321   */\n      and\n        /* \"#utility.yul\":9283:9321   */\n      swap1\n      pop\n        /* \"#utility.yul\":9225:9327   */\n      swap2\n      swap1\n      pop\n      jump\t// out\n        /* \"#utility.yul\":9333:9455   */\n    tag_88:\n        /* \"#utility.yul\":9406:9430   */\n      tag_183\n        /* \"#utility.yul\":9424:9429   */\n      dup2\n        /* \"#utility.yul\":9406:9430   */\n      tag_133\n      jump\t// in\n    tag_183:\n        /* \"#utility.yul\":9399:9404   */\n      dup2\n        /* \"#utility.yul\":9396:9431   */\n      eq\n        /* \"#utility.yul\":9386:9449   */\n      tag_184\n      jumpi\n        /* \"#utility.yul\":9445:9446   */\n      0x00\n        /* \"#utility.yul\":9442:9443   */\n      dup1\n        /* \"#utility.yul\":9435:9447   */\n      revert\n        /* \"#utility.yul\":9386:9449   */\n    tag_184:\n        /* \"#utility.yul\":9333:9455   */\n      pop\n      jump\t// out\n\n    auxdata: 0xa26469706673582212206f5efe828b5cf74bcddd3393f81828548c7389aa2b49f7551b8a59948cab6df964736f6c63430008070033\n}\n",
				"bytecode": {
					"linkReferences": {},
					"object": "608060405234801561001057600080fd5b50610870806100206000396000f3fe608060405234801561001057600080fd5b50600436106100625760003560e01c80631eab71401461006757806346df1b6f146100975780636a8bb7cc146100b357806386ceea6d146100d15780639339ff97146100ed5780639c3a4beb1461010b575b600080fd5b610081600480360381019061007c919061045c565b610129565b60405161008e9190610613565b60405180910390f35b6100b160048036038101906100ac91906104e5565b610188565b005b6100bb61029c565b6040516100c89190610613565b60405180910390f35b6100eb60048036038101906100e69190610489565b6102a2565b005b6100f56102fa565b60405161010291906105f1565b60405180910390f35b610113610333565b60405161012091906105d6565b60405180910390f35b600080600190503373ffffffffffffffffffffffffffffffffffffffff16837fa4e63fd372f45acb6181a4bc05e6d53c5faa3fe81ceb10e4266c7bec09eadb2a836040516101779190610613565b60405180910390a380915050919050565b82600060405160200161019c92919061062e565b6040516020818303038152906040528051906020012060001c816000815181106101c9576101c861079b565b5b602002602001018181525050806000815181106101e9576101e861079b565b5b6020026020010151600081905550600063164f005560e01b7bffffffffffffffffffffffffffffffffffffffffffffffffffffffff1916600181905550600063164f005560e01b604051602401604051602081830303815290604052907bffffffffffffffffffffffffffffffffffffffffffffffffffffffff19166020820180517bffffffffffffffffffffffffffffffffffffffffffffffffffffffff838183161783525050505090505050505050565b60005481565b6102f68282600067ffffffffffffffff8111156102c2576102c16107ca565b5b6040519080825280602002602001820160405280156102f05781602001602082028036833780820191505090505b50610188565b5050565b6040518060400160405280600b81526020017f736f6d6520737472696e6700000000000000000000000000000000000000000081525081565b60015481565b600061034c6103478461067c565b610657565b9050808382526020820190508285602086028201111561036f5761036e6107fe565b5b60005b8581101561039f57816103858882610447565b845260208401935060208301925050600181019050610372565b5050509392505050565b60006103bc6103b7846106a8565b610657565b9050828152602081018484840111156103d8576103d7610803565b5b6103e3848285610728565b509392505050565b600082601f830112610400576103ff6107f9565b5b8135610410848260208601610339565b91505092915050565b600082601f83011261042e5761042d6107f9565b5b813561043e8482602086016103a9565b91505092915050565b60008135905061045681610823565b92915050565b6000602082840312156104725761047161080d565b5b600061048084828501610447565b91505092915050565b600080604083850312156104a05761049f61080d565b5b60006104ae85828601610447565b925050602083013567ffffffffffffffff8111156104cf576104ce610808565b5b6104db85828601610419565b9150509250929050565b6000806000606084860312156104fe576104fd61080d565b5b600061050c86828701610447565b935050602084013567ffffffffffffffff81111561052d5761052c610808565b5b61053986828701610419565b925050604084013567ffffffffffffffff81111561055a57610559610808565b5b610566868287016103eb565b9150509250925092565b610579816106f5565b82525050565b61058881610716565b82525050565b6000610599826106d9565b6105a381856106e4565b93506105b3818560208601610737565b6105bc81610812565b840191505092915050565b6105d0816106ff565b82525050565b60006020820190506105eb6000830184610570565b92915050565b6000602082019050818103600083015261060b818461058e565b905092915050565b600060208201905061062860008301846105c7565b92915050565b600060408201905061064360008301856105c7565b610650602083018461057f565b9392505050565b6000610661610672565b905061066d828261076a565b919050565b6000604051905090565b600067ffffffffffffffff821115610697576106966107ca565b5b602082029050602081019050919050565b600067ffffffffffffffff8211156106c3576106c26107ca565b5b6106cc82610812565b9050602081019050919050565b600081519050919050565b600082825260208201905092915050565b6000819050919050565b6000819050919050565b600060ff82169050919050565b600061072182610709565b9050919050565b82818337600083830152505050565b60005b8381101561075557808201518184015260208101905061073a565b83811115610764576000848401525b50505050565b61077382610812565b810181811067ffffffffffffffff82111715610792576107916107ca565b5b80604052505050565b7f4e487b7100000000000000000000000000000000000000000000000000000000600052603260045260246000fd5b7f4e487b7100000000000000000000000000000000000000000000000000000000600052604160045260246000fd5b600080fd5b600080fd5b600080fd5b600080fd5b600080fd5b6000601f19601f8301169050919050565b61082c816106ff565b811461083757600080fd5b5056fea26469706673582212206f5efe828b5cf74bcddd3393f81828548c7389aa2b49f7551b8a59948cab6df964736f6c63430008070033",
					"opcodes": "PUSH1 0x80 PUSH1 0x40 MSTORE CALLVALUE DUP1 ISZERO PUSH2 0x10 JUMPI PUSH1 0x0 DUP1 REVERT JUMPDEST POP PUSH2 0x870 DUP1 PUSH2 0x20 PUSH1 0x0 CODECOPY PUSH1 0x0 RETURN INVALID PUSH1 0x80 PUSH1 0x40 MSTORE CALLVALUE DUP1 ISZERO PUSH2 0x10 JUMPI PUSH1 0x0 DUP1 REVERT JUMPDEST POP PUSH1 0x4 CALLDATASIZE LT PUSH2 0x62 JUMPI PUSH1 0x0 CALLDATALOAD PUSH1 0xE0 SHR DUP1 PUSH4 0x1EAB7140 EQ PUSH2 0x67 JUMPI DUP1 PUSH4 0x46DF1B6F EQ PUSH2 0x97 JUMPI DUP1 PUSH4 0x6A8BB7CC EQ PUSH2 0xB3 JUMPI DUP1 PUSH4 0x86CEEA6D EQ PUSH2 0xD1 JUMPI DUP1 PUSH4 0x9339FF97 EQ PUSH2 0xED JUMPI DUP1 PUSH4 0x9C3A4BEB EQ PUSH2 0x10B JUMPI JUMPDEST PUSH1 0x0 DUP1 REVERT JUMPDEST PUSH2 0x81 PUSH1 0x4 DUP1 CALLDATASIZE SUB DUP2 ADD SWAP1 PUSH2 0x7C SWAP2 SWAP1 PUSH2 0x45C JUMP JUMPDEST PUSH2 0x129 JUMP JUMPDEST PUSH1 0x40 MLOAD PUSH2 0x8E SWAP2 SWAP1 PUSH2 0x613 JUMP JUMPDEST PUSH1 0x40 MLOAD DUP1 SWAP2 SUB SWAP1 RETURN JUMPDEST PUSH2 0xB1 PUSH1 0x4 DUP1 CALLDATASIZE SUB DUP2 ADD SWAP1 PUSH2 0xAC SWAP2 SWAP1 PUSH2 0x4E5 JUMP JUMPDEST PUSH2 0x188 JUMP JUMPDEST STOP JUMPDEST PUSH2 0xBB PUSH2 0x29C JUMP JUMPDEST PUSH1 0x40 MLOAD PUSH2 0xC8 SWAP2 SWAP1 PUSH2 0x613 JUMP JUMPDEST PUSH1 0x40 MLOAD DUP1 SWAP2 SUB SWAP1 RETURN JUMPDEST PUSH2 0xEB PUSH1 0x4 DUP1 CALLDATASIZE SUB DUP2 ADD SWAP1 PUSH2 0xE6 SWAP2 SWAP1 PUSH2 0x489 JUMP JUMPDEST PUSH2 0x2A2 JUMP JUMPDEST STOP JUMPDEST PUSH2 0xF5 PUSH2 0x2FA JUMP JUMPDEST PUSH1 0x40 MLOAD PUSH2 0x102 SWAP2 SWAP1 PUSH2 0x5F1 JUMP JUMPDEST PUSH1 0x40 MLOAD DUP1 SWAP2 SUB SWAP1 RETURN JUMPDEST PUSH2 0x113 PUSH2 0x333 JUMP JUMPDEST PUSH1 0x40 MLOAD PUSH2 0x120 SWAP2 SWAP1 PUSH2 0x5D6 JUMP JUMPDEST PUSH1 0x40 MLOAD DUP1 SWAP2 SUB SWAP1 RETURN JUMPDEST PUSH1 0x0 DUP1 PUSH1 0x1 SWAP1 POP CALLER PUSH20 0xFFFFFFFFFFFFFFFFFFFFFFFFFFFFFFFFFFFFFFFF AND DUP4 PUSH32 0xA4E63FD372F45ACB6181A4BC05E6D53C5FAA3FE81CEB10E4266C7BEC09EADB2A DUP4 PUSH1 0x40 MLOAD PUSH2 0x177 SWAP2 SWAP1 PUSH2 0x613 JUMP JUMPDEST PUSH1 0x40 MLOAD DUP1 SWAP2 SUB SWAP1 LOG3 DUP1 SWAP2 POP POP SWAP2 SWAP1 POP JUMP JUMPDEST DUP3 PUSH1 0x0 PUSH1 0x40 MLOAD PUSH1 0x20 ADD PUSH2 0x19C SWAP3 SWAP2 SWAP1 PUSH2 0x62E JUMP JUMPDEST PUSH1 0x40 MLOAD PUSH1 0x20 DUP2 DUP4 SUB SUB DUP2 MSTORE SWAP1 PUSH1 0x40 MSTORE DUP1 MLOAD SWAP1 PUSH1 0x20 ADD KECCAK256 PUSH1 0x0 SHR DUP2 PUSH1 0x0 DUP2 MLOAD DUP2 LT PUSH2 0x1C9 JUMPI PUSH2 0x1C8 PUSH2 0x79B JUMP JUMPDEST JUMPDEST PUSH1 0x20 MUL PUSH1 0x20 ADD ADD DUP2 DUP2 MSTORE POP POP DUP1 PUSH1 0x0 DUP2 MLOAD DUP2 LT PUSH2 0x1E9 JUMPI PUSH2 0x1E8 PUSH2 0x79B JUMP JUMPDEST JUMPDEST PUSH1 0x20 MUL PUSH1 0x20 ADD ADD MLOAD PUSH1 0x0 DUP2 SWAP1 SSTORE POP PUSH1 0x0 PUSH4 0x164F0055 PUSH1 0xE0 SHL PUSH28 0xFFFFFFFFFFFFFFFFFFFFFFFFFFFFFFFFFFFFFFFFFFFFFFFFFFFFFFFF NOT AND PUSH1 0x1 DUP2 SWAP1 SSTORE POP PUSH1 0x0 PUSH4 0x164F0055 PUSH1 0xE0 SHL PUSH1 0x40 MLOAD PUSH1 0x24 ADD PUSH1 0x40 MLOAD PUSH1 0x20 DUP2 DUP4 SUB SUB DUP2 MSTORE SWAP1 PUSH1 0x40 MSTORE SWAP1 PUSH28 0xFFFFFFFFFFFFFFFFFFFFFFFFFFFFFFFFFFFFFFFFFFFFFFFFFFFFFFFF NOT AND PUSH1 0x20 DUP3 ADD DUP1 MLOAD PUSH28 0xFFFFFFFFFFFFFFFFFFFFFFFFFFFFFFFFFFFFFFFFFFFFFFFFFFFFFFFF DUP4 DUP2 DUP4 AND OR DUP4 MSTORE POP POP POP POP SWAP1 POP POP POP POP POP POP JUMP JUMPDEST PUSH1 0x0 SLOAD DUP2 JUMP JUMPDEST PUSH2 0x2F6 DUP3 DUP3 PUSH1 0x0 PUSH8 0xFFFFFFFFFFFFFFFF DUP2 GT ISZERO PUSH2 0x2C2 JUMPI PUSH2 0x2C1 PUSH2 0x7CA JUMP JUMPDEST JUMPDEST PUSH1 0x40 MLOAD SWAP1 DUP1 DUP3 MSTORE DUP1 PUSH1 0x20 MUL PUSH1 0x20 ADD DUP3 ADD PUSH1 0x40 MSTORE DUP1 ISZERO PUSH2 0x2F0 JUMPI DUP2 PUSH1 0x20 ADD PUSH1 0x20 DUP3 MUL DUP1 CALLDATASIZE DUP4 CALLDATACOPY DUP1 DUP3 ADD SWAP2 POP POP SWAP1 POP JUMPDEST POP PUSH2 0x188 JUMP JUMPDEST POP POP JUMP JUMPDEST PUSH1 0x40 MLOAD DUP1 PUSH1 0x40 ADD PUSH1 0x40 MSTORE DUP1 PUSH1 0xB DUP2 MSTORE PUSH1 0x20 ADD PUSH32 0x736F6D6520737472696E67000000000000000000000000000000000000000000 DUP2 MSTORE POP DUP2 JUMP JUMPDEST PUSH1 0x1 SLOAD DUP2 JUMP JUMPDEST PUSH1 0x0 PUSH2 0x34C PUSH2 0x347 DUP5 PUSH2 0x67C JUMP JUMPDEST PUSH2 0x657 JUMP JUMPDEST SWAP1 POP DUP1 DUP4 DUP3 MSTORE PUSH1 0x20 DUP3 ADD SWAP1 POP DUP3 DUP6 PUSH1 0x20 DUP7 MUL DUP3 ADD GT ISZERO PUSH2 0x36F JUMPI PUSH2 0x36E PUSH2 0x7FE JUMP JUMPDEST JUMPDEST PUSH1 0x0 JUMPDEST DUP6 DUP2 LT ISZERO PUSH2 0x39F JUMPI DUP2 PUSH2 0x385 DUP9 DUP3 PUSH2 0x447 JUMP JUMPDEST DUP5 MSTORE PUSH1 0x20 DUP5 ADD SWAP4 POP PUSH1 0x20 DUP4 ADD SWAP3 POP POP PUSH1 0x1 DUP2 ADD SWAP1 POP PUSH2 0x372 JUMP JUMPDEST POP POP POP SWAP4 SWAP3 POP POP POP JUMP JUMPDEST PUSH1 0x0 PUSH2 0x3BC PUSH2 0x3B7 DUP5 PUSH2 0x6A8 JUMP JUMPDEST PUSH2 0x657 JUMP JUMPDEST SWAP1 POP DUP3 DUP2 MSTORE PUSH1 0x20 DUP2 ADD DUP5 DUP5 DUP5 ADD GT ISZERO PUSH2 0x3D8 JUMPI PUSH2 0x3D7 PUSH2 0x803 JUMP JUMPDEST JUMPDEST PUSH2 0x3E3 DUP5 DUP3 DUP6 PUSH2 0x728 JUMP JUMPDEST POP SWAP4 SWAP3 POP POP POP JUMP JUMPDEST PUSH1 0x0 DUP3 PUSH1 0x1F DUP4 ADD SLT PUSH2 0x400 JUMPI PUSH2 0x3FF PUSH2 0x7F9 JUMP JUMPDEST JUMPDEST DUP2 CALLDATALOAD PUSH2 0x410 DUP5 DUP3 PUSH1 0x20 DUP7 ADD PUSH2 0x339 JUMP JUMPDEST SWAP2 POP POP SWAP3 SWAP2 POP POP JUMP JUMPDEST PUSH1 0x0 DUP3 PUSH1 0x1F DUP4 ADD SLT PUSH2 0x42E JUMPI PUSH2 0x42D PUSH2 0x7F9 JUMP JUMPDEST JUMPDEST DUP2 CALLDATALOAD PUSH2 0x43E DUP5 DUP3 PUSH1 0x20 DUP7 ADD PUSH2 0x3A9 JUMP JUMPDEST SWAP2 POP POP SWAP3 SWAP2 POP POP JUMP JUMPDEST PUSH1 0x0 DUP2 CALLDATALOAD SWAP1 POP PUSH2 0x456 DUP2 PUSH2 0x823 JUMP JUMPDEST SWAP3 SWAP2 POP POP JUMP JUMPDEST PUSH1 0x0 PUSH1 0x20 DUP3 DUP5 SUB SLT ISZERO PUSH2 0x472 JUMPI PUSH2 0x471 PUSH2 0x80D JUMP JUMPDEST JUMPDEST PUSH1 0x0 PUSH2 0x480 DUP5 DUP3 DUP6 ADD PUSH2 0x447 JUMP JUMPDEST SWAP2 POP POP SWAP3 SWAP2 POP POP JUMP JUMPDEST PUSH1 0x0 DUP1 PUSH1 0x40 DUP4 DUP6 SUB SLT ISZERO PUSH2 0x4A0 JUMPI PUSH2 0x49F PUSH2 0x80D JUMP JUMPDEST JUMPDEST PUSH1 0x0 PUSH2 0x4AE DUP6 DUP3 DUP7 ADD PUSH2 0x447 JUMP JUMPDEST SWAP3 POP POP PUSH1 0x20 DUP4 ADD CALLDATALOAD PUSH8 0xFFFFFFFFFFFFFFFF DUP2 GT ISZERO PUSH2 0x4CF JUMPI PUSH2 0x4CE PUSH2 0x808 JUMP JUMPDEST JUMPDEST PUSH2 0x4DB DUP6 DUP3 DUP7 ADD PUSH2 0x419 JUMP JUMPDEST SWAP2 POP POP SWAP3 POP SWAP3 SWAP1 POP JUMP JUMPDEST PUSH1 0x0 DUP1 PUSH1 0x0 PUSH1 0x60 DUP5 DUP7 SUB SLT ISZERO PUSH2 0x4FE JUMPI PUSH2 0x4FD PUSH2 0x80D JUMP JUMPDEST JUMPDEST PUSH1 0x0 PUSH2 0x50C DUP7 DUP3 DUP8 ADD PUSH2 0x447 JUMP JUMPDEST SWAP4 POP POP PUSH1 0x20 DUP5 ADD CALLDATALOAD PUSH8 0xFFFFFFFFFFFFFFFF DUP2 GT ISZERO PUSH2 0x52D JUMPI PUSH2 0x52C PUSH2 0x808 JUMP JUMPDEST JUMPDEST PUSH2 0x539 DUP7 DUP3 DUP8 ADD PUSH2 0x419 JUMP JUMPDEST SWAP3 POP POP PUSH1 0x40 DUP5 ADD CALLDATALOAD PUSH8 0xFFFFFFFFFFFFFFFF DUP2 GT ISZERO PUSH2 0x55A JUMPI PUSH2 0x559 PUSH2 0x808 JUMP JUMPDEST JUMPDEST PUSH2 0x566 DUP7 DUP3 DUP8 ADD PUSH2 0x3EB JUMP JUMPDEST SWAP2 POP POP SWAP3 POP SWAP3 POP SWAP3 JUMP JUMPDEST PUSH2 0x579 DUP2 PUSH2 0x6F5 JUMP JUMPDEST DUP3 MSTORE POP POP JUMP JUMPDEST PUSH2 0x588 DUP2 PUSH2 0x716 JUMP JUMPDEST DUP3 MSTORE POP POP JUMP JUMPDEST PUSH1 0x0 PUSH2 0x599 DUP3 PUSH2 0x6D9 JUMP JUMPDEST PUSH2 0x5A3 DUP2 DUP6 PUSH2 0x6E4 JUMP JUMPDEST SWAP4 POP PUSH2 0x5B3 DUP2 DUP6 PUSH1 0x20 DUP7 ADD PUSH2 0x737 JUMP JUMPDEST PUSH2 0x5BC DUP2 PUSH2 0x812 JUMP JUMPDEST DUP5 ADD SWAP2 POP POP SWAP3 SWAP2 POP POP JUMP JUMPDEST PUSH2 0x5D0 DUP2 PUSH2 0x6FF JUMP JUMPDEST DUP3 MSTORE POP POP JUMP JUMPDEST PUSH1 0x0 PUSH1 0x20 DUP3 ADD SWAP1 POP PUSH2 0x5EB PUSH1 0x0 DUP4 ADD DUP5 PUSH2 0x570 JUMP JUMPDEST SWAP3 SWAP2 POP POP JUMP JUMPDEST PUSH1 0x0 PUSH1 0x20 DUP3 ADD SWAP1 POP DUP2 DUP2 SUB PUSH1 0x0 DUP4 ADD MSTORE PUSH2 0x60B DUP2 DUP5 PUSH2 0x58E JUMP JUMPDEST SWAP1 POP SWAP3 SWAP2 POP POP JUMP JUMPDEST PUSH1 0x0 PUSH1 0x20 DUP3 ADD SWAP1 POP PUSH2 0x628 PUSH1 0x0 DUP4 ADD DUP5 PUSH2 0x5C7 JUMP JUMPDEST SWAP3 SWAP2 POP POP JUMP JUMPDEST PUSH1 0x0 PUSH1 0x40 DUP3 ADD SWAP1 POP PUSH2 0x643 PUSH1 0x0 DUP4 ADD DUP6 PUSH2 0x5C7 JUMP JUMPDEST PUSH2 0x650 PUSH1 0x20 DUP4 ADD DUP5 PUSH2 0x57F JUMP JUMPDEST SWAP4 SWAP3 POP POP POP JUMP JUMPDEST PUSH1 0x0 PUSH2 0x661 PUSH2 0x672 JUMP JUMPDEST SWAP1 POP PUSH2 0x66D DUP3 DUP3 PUSH2 0x76A JUMP JUMPDEST SWAP2 SWAP1 POP JUMP JUMPDEST PUSH1 0x0 PUSH1 0x40 MLOAD SWAP1 POP SWAP1 JUMP JUMPDEST PUSH1 0x0 PUSH8 0xFFFFFFFFFFFFFFFF DUP3 GT ISZERO PUSH2 0x697 JUMPI PUSH2 0x696 PUSH2 0x7CA JUMP JUMPDEST JUMPDEST PUSH1 0x20 DUP3 MUL SWAP1 POP PUSH1 0x20 DUP2 ADD SWAP1 POP SWAP2 SWAP1 POP JUMP JUMPDEST PUSH1 0x0 PUSH8 0xFFFFFFFFFFFFFFFF DUP3 GT ISZERO PUSH2 0x6C3 JUMPI PUSH2 0x6C2 PUSH2 0x7CA JUMP JUMPDEST JUMPDEST PUSH2 0x6CC DUP3 PUSH2 0x812 JUMP JUMPDEST SWAP1 POP PUSH1 0x20 DUP2 ADD SWAP1 POP SWAP2 SWAP1 POP JUMP JUMPDEST PUSH1 0x0 DUP2 MLOAD SWAP1 POP SWAP2 SWAP1 POP JUMP JUMPDEST PUSH1 0x0 DUP3 DUP3 MSTORE PUSH1 0x20 DUP3 ADD SWAP1 POP SWAP3 SWAP2 POP POP JUMP JUMPDEST PUSH1 0x0 DUP2 SWAP1 POP SWAP2 SWAP1 POP JUMP JUMPDEST PUSH1 0x0 DUP2 SWAP1 POP SWAP2 SWAP1 POP JUMP JUMPDEST PUSH1 0x0 PUSH1 0xFF DUP3 AND SWAP1 POP SWAP2 SWAP1 POP JUMP JUMPDEST PUSH1 0x0 PUSH2 0x721 DUP3 PUSH2 0x709 JUMP JUMPDEST SWAP1 POP SWAP2 SWAP1 POP JUMP JUMPDEST DUP3 DUP2 DUP4 CALLDATACOPY PUSH1 0x0 DUP4 DUP4 ADD MSTORE POP POP POP JUMP JUMPDEST PUSH1 0x0 JUMPDEST DUP4 DUP2 LT ISZERO PUSH2 0x755 JUMPI DUP1 DUP3 ADD MLOAD DUP2 DUP5 ADD MSTORE PUSH1 0x20 DUP2 ADD SWAP1 POP PUSH2 0x73A JUMP JUMPDEST DUP4 DUP2 GT ISZERO PUSH2 0x764 JUMPI PUSH1 0x0 DUP5 DUP5 ADD MSTORE JUMPDEST POP POP POP POP JUMP JUMPDEST PUSH2 0x773 DUP3 PUSH2 0x812 JUMP JUMPDEST DUP2 ADD DUP2 DUP2 LT PUSH8 0xFFFFFFFFFFFFFFFF DUP3 GT OR ISZERO PUSH2 0x792 JUMPI PUSH2 0x791 PUSH2 0x7CA JUMP JUMPDEST JUMPDEST DUP1 PUSH1 0x40 MSTORE POP POP POP JUMP JUMPDEST PUSH32 0x4E487B7100000000000000000000000000000000000000000000000000000000 PUSH1 0x0 MSTORE PUSH1 0x32 PUSH1 0x4 MSTORE PUSH1 0x24 PUSH1 0x0 REVERT JUMPDEST PUSH32 0x4E487B7100000000000000000000000000000000000000000000000000000000 PUSH1 0x0 MSTORE PUSH1 0x41 PUSH1 0x4 MSTORE PUSH1 0x24 PUSH1 0x0 REVERT JUMPDEST PUSH1 0x0 DUP1 REVERT JUMPDEST PUSH1 0x0 DUP1 REVERT JUMPDEST PUSH1 0x0 DUP1 REVERT JUMPDEST PUSH1 0x0 DUP1 REVERT JUMPDEST PUSH1 0x0 DUP1 REVERT JUMPDEST PUSH1 0x0 PUSH1 0x1F NOT PUSH1 0x1F DUP4 ADD AND SWAP1 POP SWAP2 SWAP1 POP JUMP JUMPDEST PUSH2 0x82C DUP2 PUSH2 0x6FF JUMP JUMPDEST DUP2 EQ PUSH2 0x837 JUMPI PUSH1 0x0 DUP1 REVERT JUMPDEST POP JUMP INVALID LOG2 PUSH5 0x6970667358 0x22 SLT KECCAK256 PUSH16 0x5EFE828B5CF74BCDDD3393F81828548C PUSH20 0x89AA2B49F7551B8A59948CAB6DF964736F6C6343 STOP ADDMOD SMOD STOP CALLER "
				},
				"gasEstimates": {
					"creation": {
						"codeDepositCost": "432000",
						"executionCost": "468",
						"totalCost": "432468"
					},
					"external": {
						"bridgeFunctionSelector()": "2517",
						"externalContractFunction(uint256,string)": "infinite",
						"externalContractFunctionWithOverride(uint256,string,uint256[])": "infinite",
						"randomWords()": "2451",
						"requestWords(uint256)": "infinite",
						"s_someString()": "infinite"
					}
				},
				"methodIdentifiers": {
					"bridgeFunctionSelector()": "9c3a4beb",
					"externalContractFunction(uint256,string)": "86ceea6d",
					"externalContractFunctionWithOverride(uint256,string,uint256[])": "46df1b6f",
					"randomWords()": "6a8bb7cc",
					"requestWords(uint256)": "1eab7140",
					"s_someString()": "9339ff97"
				}
			},
			"storageLayout": {
				"storage": [
					{
						"astId": 47,
						"contract": "contracts/6_Mock.sol:Mock",
						"label": "randomWords",
						"offset": 0,
						"slot": "0",
						"type": "t_uint256"
					},
					{
						"astId": 49,
						"contract": "contracts/6_Mock.sol:Mock",
						"label": "bridgeFunctionSelector",
						"offset": 0,
						"slot": "1",
						"type": "t_bytes32"
					}
				],
				"types": {
					"t_bytes32": {
						"encoding": "inplace",
						"label": "bytes32",
						"numberOfBytes": "32"
					},
					"t_uint256": {
						"encoding": "inplace",
						"label": "uint256",
						"numberOfBytes": "32"
					}
				}
			},
			"userdoc": {
				"kind": "user",
				"methods": {},
				"version": 1
			}
		}
	}
}