{
	"contracts/4_Base.sol": {
		"Base": {
			"abi": [
				{
					"inputs": [
						{
							"internalType": "address",
							"name": "mockAddress",
							"type": "address"
						}
					],
					"stateMutability": "nonpayable",
					"type": "constructor"
				},
				{
					"anonymous": false,
					"inputs": [
						{
							"indexed": false,
							"internalType": "uint256",
							"name": "randomWord",
							"type": "uint256"
						},
						{
							"indexed": false,
							"internalType": "uint256",
							"name": "requestId",
							"type": "uint256"
						}
					],
					"name": "BaseToMockSuccess",
					"type": "event"
				},
				{
					"inputs": [],
					"name": "i_argument",
					"outputs": [
						{
							"internalType": "uint256",
							"name": "",
							"type": "uint256"
						}
					],
					"stateMutability": "view",
					"type": "function"
				},
				{
					"inputs": [],
					"name": "i_mock",
					"outputs": [
						{
							"internalType": "contract IMock",
							"name": "",
							"type": "address"
						}
					],
					"stateMutability": "view",
					"type": "function"
				},
				{
					"inputs": [],
					"name": "internalRequest",
					"outputs": [
						{
							"internalType": "uint256",
							"name": "requestId",
							"type": "uint256"
						}
					],
					"stateMutability": "payable",
					"type": "function"
				},
				{
					"inputs": [
						{
							"internalType": "uint256",
							"name": "requestId",
							"type": "uint256"
						},
						{
							"internalType": "uint256[]",
							"name": "words",
							"type": "uint256[]"
						}
					],
					"name": "rawExternalContractFunction",
					"outputs": [],
					"stateMutability": "nonpayable",
					"type": "function"
				},
				{
					"inputs": [],
					"name": "s_randomWord",
					"outputs": [
						{
							"internalType": "uint256",
							"name": "",
							"type": "uint256"
						}
					],
					"stateMutability": "view",
					"type": "function"
				}
			],
			"devdoc": {
				"kind": "dev",
				"methods": {},
				"version": 1
			},
			"evm": {
				"assembly": "    /* \"contracts/4_Base.sol\":80:1040  contract Base is Bridge{\r... */\n  mstore(0x40, 0xe0)\n    /* \"contracts/4_Base.sol\":148:149  8 */\n  0x08\n    /* \"contracts/4_Base.sol\":110:149  uint256 public immutable i_argument = 8 */\n  0xa0\n  swap1\n  dup2\n  mstore\n  pop\n    /* \"contracts/4_Base.sol\":228:327  constructor(address mockAddress) Bridge(mockAddress) {\r... */\n  callvalue\n  dup1\n  iszero\n  tag_1\n  jumpi\n  0x00\n  dup1\n  revert\ntag_1:\n  pop\n  mload(0x40)\n  sub(codesize, bytecodeSize)\n  dup1\n  bytecodeSize\n  dup4\n  codecopy\n  dup2\n  dup2\n  add\n  0x40\n  mstore\n  dup2\n  add\n  swap1\n  tag_2\n  swap2\n  swap1\n  tag_3\n  jump\t// in\ntag_2:\n    /* \"contracts/4_Base.sol\":268:279  mockAddress */\n  dup1\n    /* \"contracts/5_Bridge.sol\":162:174  _mockAddress */\n  dup1\n    /* \"contracts/5_Bridge.sol\":148:174  mockAddress = _mockAddress */\n  0xffffffffffffffffffffffffffffffffffffffff\n  and\n  0x80\n  dup2\n  0xffffffffffffffffffffffffffffffffffffffff\n  and\n  0x60\n  shl\n  dup2\n  mstore\n  pop\n  pop\n    /* \"contracts/5_Bridge.sol\":103:182  constructor(address _mockAddress) {\r... */\n  pop\n    /* \"contracts/4_Base.sol\":307:318  mockAddress */\n  dup1\n    /* \"contracts/4_Base.sol\":292:319  i_mock = IMock(mockAddress) */\n  0xffffffffffffffffffffffffffffffffffffffff\n  and\n  0xc0\n  dup2\n  0xffffffffffffffffffffffffffffffffffffffff\n  and\n  0x60\n  shl\n  dup2\n  mstore\n  pop\n  pop\n    /* \"contracts/4_Base.sol\":228:327  constructor(address mockAddress) Bridge(mockAddress) {\r... */\n  pop\n    /* \"contracts/4_Base.sol\":80:1040  contract Base is Bridge{\r... */\n  jump(tag_8)\n    /* \"#utility.yul\":7:150   */\ntag_10:\n    /* \"#utility.yul\":64:69   */\n  0x00\n    /* \"#utility.yul\":95:101   */\n  dup2\n    /* \"#utility.yul\":89:102   */\n  mload\n    /* \"#utility.yul\":80:102   */\n  swap1\n  pop\n    /* \"#utility.yul\":111:144   */\n  tag_12\n    /* \"#utility.yul\":138:143   */\n  dup2\n    /* \"#utility.yul\":111:144   */\n  tag_13\n  jump\t// in\ntag_12:\n    /* \"#utility.yul\":7:150   */\n  swap3\n  swap2\n  pop\n  pop\n  jump\t// out\n    /* \"#utility.yul\":156:507   */\ntag_3:\n    /* \"#utility.yul\":226:232   */\n  0x00\n    /* \"#utility.yul\":275:277   */\n  0x20\n    /* \"#utility.yul\":263:272   */\n  dup3\n    /* \"#utility.yul\":254:261   */\n  dup5\n    /* \"#utility.yul\":250:273   */\n  sub\n    /* \"#utility.yul\":246:278   */\n  slt\n    /* \"#utility.yul\":243:362   */\n  iszero\n  tag_15\n  jumpi\n    /* \"#utility.yul\":281:360   */\n  tag_16\n  tag_17\n  jump\t// in\ntag_16:\n    /* \"#utility.yul\":243:362   */\ntag_15:\n    /* \"#utility.yul\":401:402   */\n  0x00\n    /* \"#utility.yul\":426:490   */\n  tag_18\n    /* \"#utility.yul\":482:489   */\n  dup5\n    /* \"#utility.yul\":473:479   */\n  dup3\n    /* \"#utility.yul\":462:471   */\n  dup6\n    /* \"#utility.yul\":458:480   */\n  add\n    /* \"#utility.yul\":426:490   */\n  tag_10\n  jump\t// in\ntag_18:\n    /* \"#utility.yul\":416:490   */\n  swap2\n  pop\n    /* \"#utility.yul\":372:500   */\n  pop\n    /* \"#utility.yul\":156:507   */\n  swap3\n  swap2\n  pop\n  pop\n  jump\t// out\n    /* \"#utility.yul\":594:690   */\ntag_21:\n    /* \"#utility.yul\":631:638   */\n  0x00\n    /* \"#utility.yul\":660:684   */\n  tag_23\n    /* \"#utility.yul\":678:683   */\n  dup3\n    /* \"#utility.yul\":660:684   */\n  tag_24\n  jump\t// in\ntag_23:\n    /* \"#utility.yul\":649:684   */\n  swap1\n  pop\n    /* \"#utility.yul\":594:690   */\n  swap2\n  swap1\n  pop\n  jump\t// out\n    /* \"#utility.yul\":696:822   */\ntag_24:\n    /* \"#utility.yul\":733:740   */\n  0x00\n    /* \"#utility.yul\":773:815   */\n  0xffffffffffffffffffffffffffffffffffffffff\n    /* \"#utility.yul\":766:771   */\n  dup3\n    /* \"#utility.yul\":762:816   */\n  and\n    /* \"#utility.yul\":751:816   */\n  swap1\n  pop\n    /* \"#utility.yul\":696:822   */\n  swap2\n  swap1\n  pop\n  jump\t// out\n    /* \"#utility.yul\":951:1068   */\ntag_17:\n    /* \"#utility.yul\":1060:1061   */\n  0x00\n    /* \"#utility.yul\":1057:1058   */\n  dup1\n    /* \"#utility.yul\":1050:1062   */\n  revert\n    /* \"#utility.yul\":1074:1196   */\ntag_13:\n    /* \"#utility.yul\":1147:1171   */\n  tag_30\n    /* \"#utility.yul\":1165:1170   */\n  dup2\n    /* \"#utility.yul\":1147:1171   */\n  tag_21\n  jump\t// in\ntag_30:\n    /* \"#utility.yul\":1140:1145   */\n  dup2\n    /* \"#utility.yul\":1137:1172   */\n  eq\n    /* \"#utility.yul\":1127:1190   */\n  tag_31\n  jumpi\n    /* \"#utility.yul\":1186:1187   */\n  0x00\n    /* \"#utility.yul\":1183:1184   */\n  dup1\n    /* \"#utility.yul\":1176:1188   */\n  revert\n    /* \"#utility.yul\":1127:1190   */\ntag_31:\n    /* \"#utility.yul\":1074:1196   */\n  pop\n  jump\t// out\n    /* \"contracts/4_Base.sol\":80:1040  contract Base is Bridge{\r... */\ntag_8:\n  shr(0x60, mload(0x80))\n  mload(0xa0)\n  shr(0x60, mload(0xc0))\n  codecopy(0x00, dataOffset(sub_0), dataSize(sub_0))\n  0x00\n  assignImmutable(\"0x789bcdf275fa270780a52ae3b79bb1ce0fda7e0aaad87b57b74bb99ac290714a\")\n  0x00\n  assignImmutable(\"0xe4b1702d9298fee62dfeccc57d322a463ad55ca201256d01f62b45b2e1c21c10\")\n  0x00\n  assignImmutable(\"0xb2219b801710730437d0358146c829b62297a059eceaa0b40b27aea2daecf595\")\n  return(0x00, dataSize(sub_0))\nstop\n\nsub_0: assembly {\n        /* \"contracts/4_Base.sol\":80:1040  contract Base is Bridge{\r... */\n      mstore(0x40, 0x80)\n      jumpi(tag_1, lt(calldatasize, 0x04))\n      shr(0xe0, calldataload(0x00))\n      dup1\n      0x164f0055\n      eq\n      tag_2\n      jumpi\n      dup1\n      0x3bd359aa\n      eq\n      tag_3\n      jumpi\n      dup1\n      0x3eea160a\n      eq\n      tag_4\n      jumpi\n      dup1\n      0x5119c478\n      eq\n      tag_5\n      jumpi\n      dup1\n      0xfd210fd9\n      eq\n      tag_6\n      jumpi\n    tag_1:\n      0x00\n      dup1\n      revert\n        /* \"contracts/5_Bridge.sol\":292:442  function rawExternalContractFunction(uint256 requestId, uint256[] memory words) external {\r... */\n    tag_2:\n      callvalue\n      dup1\n      iszero\n      tag_7\n      jumpi\n      0x00\n      dup1\n      revert\n    tag_7:\n      pop\n      tag_8\n      0x04\n      dup1\n      calldatasize\n      sub\n      dup2\n      add\n      swap1\n      tag_9\n      swap2\n      swap1\n      tag_10\n      jump\t// in\n    tag_9:\n      tag_11\n      jump\t// in\n    tag_8:\n      stop\n        /* \"contracts/4_Base.sol\":190:219  IMock public immutable i_mock */\n    tag_3:\n      callvalue\n      dup1\n      iszero\n      tag_12\n      jumpi\n      0x00\n      dup1\n      revert\n    tag_12:\n      pop\n      tag_13\n      tag_14\n      jump\t// in\n    tag_13:\n      mload(0x40)\n      tag_15\n      swap2\n      swap1\n      tag_16\n      jump\t// in\n    tag_15:\n      mload(0x40)\n      dup1\n      swap2\n      sub\n      swap1\n      return\n        /* \"contracts/4_Base.sol\":110:149  uint256 public immutable i_argument = 8 */\n    tag_4:\n      callvalue\n      dup1\n      iszero\n      tag_17\n      jumpi\n      0x00\n      dup1\n      revert\n    tag_17:\n      pop\n      tag_18\n      tag_19\n      jump\t// in\n    tag_18:\n      mload(0x40)\n      tag_20\n      swap2\n      swap1\n      tag_21\n      jump\t// in\n    tag_20:\n      mload(0x40)\n      dup1\n      swap2\n      sub\n      swap1\n      return\n        /* \"contracts/4_Base.sol\":704:836  function internalRequest() public payable returns (uint256 requestId) {\r... */\n    tag_5:\n      tag_22\n      tag_23\n      jump\t// in\n    tag_22:\n      mload(0x40)\n      tag_24\n      swap2\n      swap1\n      tag_21\n      jump\t// in\n    tag_24:\n      mload(0x40)\n      dup1\n      swap2\n      sub\n      swap1\n      return\n        /* \"contracts/4_Base.sol\":156:183  uint256 public s_randomWord */\n    tag_6:\n      callvalue\n      dup1\n      iszero\n      tag_25\n      jumpi\n      0x00\n      dup1\n      revert\n    tag_25:\n      pop\n      tag_26\n      tag_27\n      jump\t// in\n    tag_26:\n      mload(0x40)\n      tag_28\n      swap2\n      swap1\n      tag_21\n      jump\t// in\n    tag_28:\n      mload(0x40)\n      dup1\n      swap2\n      sub\n      swap1\n      return\n        /* \"contracts/5_Bridge.sol\":292:442  function rawExternalContractFunction(uint256 requestId, uint256[] memory words) external {\r... */\n    tag_11:\n        /* \"contracts/5_Bridge.sol\":392:434  externalContractFunction(requestId, words) */\n      tag_30\n        /* \"contracts/5_Bridge.sol\":417:426  requestId */\n      dup3\n        /* \"contracts/5_Bridge.sol\":428:433  words */\n      dup3\n        /* \"contracts/5_Bridge.sol\":392:416  externalContractFunction */\n      tag_31\n        /* \"contracts/5_Bridge.sol\":392:434  externalContractFunction(requestId, words) */\n      jump\t// in\n    tag_30:\n        /* \"contracts/5_Bridge.sol\":292:442  function rawExternalContractFunction(uint256 requestId, uint256[] memory words) external {\r... */\n      pop\n      pop\n      jump\t// out\n        /* \"contracts/4_Base.sol\":190:219  IMock public immutable i_mock */\n    tag_14:\n      immutable(\"0x789bcdf275fa270780a52ae3b79bb1ce0fda7e0aaad87b57b74bb99ac290714a\")\n      dup2\n      jump\t// out\n        /* \"contracts/4_Base.sol\":110:149  uint256 public immutable i_argument = 8 */\n    tag_19:\n      immutable(\"0xe4b1702d9298fee62dfeccc57d322a463ad55ca201256d01f62b45b2e1c21c10\")\n      dup2\n      jump\t// out\n        /* \"contracts/4_Base.sol\":704:836  function internalRequest() public payable returns (uint256 requestId) {\r... */\n    tag_23:\n        /* \"contracts/4_Base.sol\":755:772  uint256 requestId */\n      0x00\n        /* \"contracts/4_Base.sol\":797:803  i_mock */\n      immutable(\"0x789bcdf275fa270780a52ae3b79bb1ce0fda7e0aaad87b57b74bb99ac290714a\")\n        /* \"contracts/4_Base.sol\":797:816  i_mock.requestWords */\n      0xffffffffffffffffffffffffffffffffffffffff\n      and\n      0x1eab7140\n        /* \"contracts/4_Base.sol\":817:827  i_argument */\n      immutable(\"0xe4b1702d9298fee62dfeccc57d322a463ad55ca201256d01f62b45b2e1c21c10\")\n        /* \"contracts/4_Base.sol\":797:828  i_mock.requestWords(i_argument) */\n      mload(0x40)\n      dup3\n      0xffffffff\n      and\n      0xe0\n      shl\n      dup2\n      mstore\n      0x04\n      add\n      tag_33\n      swap2\n      swap1\n      tag_21\n      jump\t// in\n    tag_33:\n      0x20\n      mload(0x40)\n      dup1\n      dup4\n      sub\n      dup2\n      0x00\n      dup8\n      dup1\n      extcodesize\n      iszero\n      dup1\n      iszero\n      tag_34\n      jumpi\n      0x00\n      dup1\n      revert\n    tag_34:\n      pop\n      gas\n      call\n      iszero\n      dup1\n      iszero\n      tag_36\n      jumpi\n      returndatasize\n      0x00\n      dup1\n      returndatacopy\n      revert(0x00, returndatasize)\n    tag_36:\n      pop\n      pop\n      pop\n      pop\n      mload(0x40)\n      returndatasize\n      not(0x1f)\n      0x1f\n      dup3\n      add\n      and\n      dup3\n      add\n      dup1\n      0x40\n      mstore\n      pop\n      dup2\n      add\n      swap1\n      tag_37\n      swap2\n      swap1\n      tag_38\n      jump\t// in\n    tag_37:\n        /* \"contracts/4_Base.sol\":785:828  requestId = i_mock.requestWords(i_argument) */\n      swap1\n      pop\n        /* \"contracts/4_Base.sol\":704:836  function internalRequest() public payable returns (uint256 requestId) {\r... */\n      swap1\n      jump\t// out\n        /* \"contracts/4_Base.sol\":156:183  uint256 public s_randomWord */\n    tag_27:\n      sload(0x00)\n      dup2\n      jump\t// out\n        /* \"contracts/4_Base.sol\":844:1037  function externalContractFunction(uint256 requestId, uint256[] memory words) internal override{\r... */\n    tag_31:\n        /* \"contracts/4_Base.sol\":964:969  words */\n      dup1\n        /* \"contracts/4_Base.sol\":970:971  0 */\n      0x00\n        /* \"contracts/4_Base.sol\":964:972  words[0] */\n      dup2\n      mload\n      dup2\n      lt\n      tag_40\n      jumpi\n      tag_41\n      tag_42\n      jump\t// in\n    tag_41:\n    tag_40:\n      0x20\n      mul\n      0x20\n      add\n      add\n      mload\n        /* \"contracts/4_Base.sol\":949:961  s_randomWord */\n      0x00\n        /* \"contracts/4_Base.sol\":949:972  s_randomWord = words[0] */\n      dup2\n      swap1\n      sstore\n      pop\n        /* \"contracts/4_Base.sol\":988:1029  BaseToMockSuccess(s_randomWord,requestId) */\n      0x2da9f1ae57078fb423f33b8baa1478926b72c964a5c36daa13ab9b0fd65c579a\n        /* \"contracts/4_Base.sol\":1006:1018  s_randomWord */\n      sload(0x00)\n        /* \"contracts/4_Base.sol\":1019:1028  requestId */\n      dup4\n        /* \"contracts/4_Base.sol\":988:1029  BaseToMockSuccess(s_randomWord,requestId) */\n      mload(0x40)\n      tag_43\n      swap3\n      swap2\n      swap1\n      tag_44\n      jump\t// in\n    tag_43:\n      mload(0x40)\n      dup1\n      swap2\n      sub\n      swap1\n      log1\n        /* \"contracts/4_Base.sol\":844:1037  function externalContractFunction(uint256 requestId, uint256[] memory words) internal override{\r... */\n      pop\n      pop\n      jump\t// out\n        /* \"#utility.yul\":24:746   */\n    tag_46:\n        /* \"#utility.yul\":120:125   */\n      0x00\n        /* \"#utility.yul\":145:226   */\n      tag_48\n        /* \"#utility.yul\":161:225   */\n      tag_49\n        /* \"#utility.yul\":218:224   */\n      dup5\n        /* \"#utility.yul\":161:225   */\n      tag_50\n      jump\t// in\n    tag_49:\n        /* \"#utility.yul\":145:226   */\n      tag_51\n      jump\t// in\n    tag_48:\n        /* \"#utility.yul\":136:226   */\n      swap1\n      pop\n        /* \"#utility.yul\":246:251   */\n      dup1\n        /* \"#utility.yul\":275:281   */\n      dup4\n        /* \"#utility.yul\":268:273   */\n      dup3\n        /* \"#utility.yul\":261:282   */\n      mstore\n        /* \"#utility.yul\":309:313   */\n      0x20\n        /* \"#utility.yul\":302:307   */\n      dup3\n        /* \"#utility.yul\":298:314   */\n      add\n        /* \"#utility.yul\":291:314   */\n      swap1\n      pop\n        /* \"#utility.yul\":335:341   */\n      dup3\n        /* \"#utility.yul\":385:388   */\n      dup6\n        /* \"#utility.yul\":377:381   */\n      0x20\n        /* \"#utility.yul\":369:375   */\n      dup7\n        /* \"#utility.yul\":365:382   */\n      mul\n        /* \"#utility.yul\":360:363   */\n      dup3\n        /* \"#utility.yul\":356:383   */\n      add\n        /* \"#utility.yul\":353:389   */\n      gt\n        /* \"#utility.yul\":350:493   */\n      iszero\n      tag_52\n      jumpi\n        /* \"#utility.yul\":404:483   */\n      tag_53\n      tag_54\n      jump\t// in\n    tag_53:\n        /* \"#utility.yul\":350:493   */\n    tag_52:\n        /* \"#utility.yul\":517:518   */\n      0x00\n        /* \"#utility.yul\":502:740   */\n    tag_55:\n        /* \"#utility.yul\":527:533   */\n      dup6\n        /* \"#utility.yul\":524:525   */\n      dup2\n        /* \"#utility.yul\":521:534   */\n      lt\n        /* \"#utility.yul\":502:740   */\n      iszero\n      tag_57\n      jumpi\n        /* \"#utility.yul\":595:598   */\n      dup2\n        /* \"#utility.yul\":624:661   */\n      tag_58\n        /* \"#utility.yul\":657:660   */\n      dup9\n        /* \"#utility.yul\":645:655   */\n      dup3\n        /* \"#utility.yul\":624:661   */\n      tag_59\n      jump\t// in\n    tag_58:\n        /* \"#utility.yul\":619:622   */\n      dup5\n        /* \"#utility.yul\":612:662   */\n      mstore\n        /* \"#utility.yul\":691:695   */\n      0x20\n        /* \"#utility.yul\":686:689   */\n      dup5\n        /* \"#utility.yul\":682:696   */\n      add\n        /* \"#utility.yul\":675:696   */\n      swap4\n      pop\n        /* \"#utility.yul\":725:729   */\n      0x20\n        /* \"#utility.yul\":720:723   */\n      dup4\n        /* \"#utility.yul\":716:730   */\n      add\n        /* \"#utility.yul\":709:730   */\n      swap3\n      pop\n        /* \"#utility.yul\":562:740   */\n      pop\n        /* \"#utility.yul\":549:550   */\n      0x01\n        /* \"#utility.yul\":546:547   */\n      dup2\n        /* \"#utility.yul\":542:551   */\n      add\n        /* \"#utility.yul\":537:551   */\n      swap1\n      pop\n        /* \"#utility.yul\":502:740   */\n      jump(tag_55)\n    tag_57:\n        /* \"#utility.yul\":506:520   */\n      pop\n        /* \"#utility.yul\":126:746   */\n      pop\n      pop\n        /* \"#utility.yul\":24:746   */\n      swap4\n      swap3\n      pop\n      pop\n      pop\n      jump\t// out\n        /* \"#utility.yul\":769:1139   */\n    tag_60:\n        /* \"#utility.yul\":840:845   */\n      0x00\n        /* \"#utility.yul\":889:892   */\n      dup3\n        /* \"#utility.yul\":882:886   */\n      0x1f\n        /* \"#utility.yul\":874:880   */\n      dup4\n        /* \"#utility.yul\":870:887   */\n      add\n        /* \"#utility.yul\":866:893   */\n      slt\n        /* \"#utility.yul\":856:978   */\n      tag_62\n      jumpi\n        /* \"#utility.yul\":897:976   */\n      tag_63\n      tag_64\n      jump\t// in\n    tag_63:\n        /* \"#utility.yul\":856:978   */\n    tag_62:\n        /* \"#utility.yul\":1014:1020   */\n      dup2\n        /* \"#utility.yul\":1001:1021   */\n      calldataload\n        /* \"#utility.yul\":1039:1133   */\n      tag_65\n        /* \"#utility.yul\":1129:1132   */\n      dup5\n        /* \"#utility.yul\":1121:1127   */\n      dup3\n        /* \"#utility.yul\":1114:1118   */\n      0x20\n        /* \"#utility.yul\":1106:1112   */\n      dup7\n        /* \"#utility.yul\":1102:1119   */\n      add\n        /* \"#utility.yul\":1039:1133   */\n      tag_46\n      jump\t// in\n    tag_65:\n        /* \"#utility.yul\":1030:1133   */\n      swap2\n      pop\n        /* \"#utility.yul\":846:1139   */\n      pop\n        /* \"#utility.yul\":769:1139   */\n      swap3\n      swap2\n      pop\n      pop\n      jump\t// out\n        /* \"#utility.yul\":1145:1284   */\n    tag_59:\n        /* \"#utility.yul\":1191:1196   */\n      0x00\n        /* \"#utility.yul\":1229:1235   */\n      dup2\n        /* \"#utility.yul\":1216:1236   */\n      calldataload\n        /* \"#utility.yul\":1207:1236   */\n      swap1\n      pop\n        /* \"#utility.yul\":1245:1278   */\n      tag_67\n        /* \"#utility.yul\":1272:1277   */\n      dup2\n        /* \"#utility.yul\":1245:1278   */\n      tag_68\n      jump\t// in\n    tag_67:\n        /* \"#utility.yul\":1145:1284   */\n      swap3\n      swap2\n      pop\n      pop\n      jump\t// out\n        /* \"#utility.yul\":1290:1433   */\n    tag_69:\n        /* \"#utility.yul\":1347:1352   */\n      0x00\n        /* \"#utility.yul\":1378:1384   */\n      dup2\n        /* \"#utility.yul\":1372:1385   */\n      mload\n        /* \"#utility.yul\":1363:1385   */\n      swap1\n      pop\n        /* \"#utility.yul\":1394:1427   */\n      tag_71\n        /* \"#utility.yul\":1421:1426   */\n      dup2\n        /* \"#utility.yul\":1394:1427   */\n      tag_68\n      jump\t// in\n    tag_71:\n        /* \"#utility.yul\":1290:1433   */\n      swap3\n      swap2\n      pop\n      pop\n      jump\t// out\n        /* \"#utility.yul\":1439:1790   */\n    tag_38:\n        /* \"#utility.yul\":1509:1515   */\n      0x00\n        /* \"#utility.yul\":1558:1560   */\n      0x20\n        /* \"#utility.yul\":1546:1555   */\n      dup3\n        /* \"#utility.yul\":1537:1544   */\n      dup5\n        /* \"#utility.yul\":1533:1556   */\n      sub\n        /* \"#utility.yul\":1529:1561   */\n      slt\n        /* \"#utility.yul\":1526:1645   */\n      iszero\n      tag_73\n      jumpi\n        /* \"#utility.yul\":1564:1643   */\n      tag_74\n      tag_75\n      jump\t// in\n    tag_74:\n        /* \"#utility.yul\":1526:1645   */\n    tag_73:\n        /* \"#utility.yul\":1684:1685   */\n      0x00\n        /* \"#utility.yul\":1709:1773   */\n      tag_76\n        /* \"#utility.yul\":1765:1772   */\n      dup5\n        /* \"#utility.yul\":1756:1762   */\n      dup3\n        /* \"#utility.yul\":1745:1754   */\n      dup6\n        /* \"#utility.yul\":1741:1763   */\n      add\n        /* \"#utility.yul\":1709:1773   */\n      tag_69\n      jump\t// in\n    tag_76:\n        /* \"#utility.yul\":1699:1773   */\n      swap2\n      pop\n        /* \"#utility.yul\":1655:1783   */\n      pop\n        /* \"#utility.yul\":1439:1790   */\n      swap3\n      swap2\n      pop\n      pop\n      jump\t// out\n        /* \"#utility.yul\":1796:2480   */\n    tag_10:\n        /* \"#utility.yul\":1889:1895   */\n      0x00\n        /* \"#utility.yul\":1897:1903   */\n      dup1\n        /* \"#utility.yul\":1946:1948   */\n      0x40\n        /* \"#utility.yul\":1934:1943   */\n      dup4\n        /* \"#utility.yul\":1925:1932   */\n      dup6\n        /* \"#utility.yul\":1921:1944   */\n      sub\n        /* \"#utility.yul\":1917:1949   */\n      slt\n        /* \"#utility.yul\":1914:2033   */\n      iszero\n      tag_78\n      jumpi\n        /* \"#utility.yul\":1952:2031   */\n      tag_79\n      tag_75\n      jump\t// in\n    tag_79:\n        /* \"#utility.yul\":1914:2033   */\n    tag_78:\n        /* \"#utility.yul\":2072:2073   */\n      0x00\n        /* \"#utility.yul\":2097:2150   */\n      tag_80\n        /* \"#utility.yul\":2142:2149   */\n      dup6\n        /* \"#utility.yul\":2133:2139   */\n      dup3\n        /* \"#utility.yul\":2122:2131   */\n      dup7\n        /* \"#utility.yul\":2118:2140   */\n      add\n        /* \"#utility.yul\":2097:2150   */\n      tag_59\n      jump\t// in\n    tag_80:\n        /* \"#utility.yul\":2087:2150   */\n      swap3\n      pop\n        /* \"#utility.yul\":2043:2160   */\n      pop\n        /* \"#utility.yul\":2227:2229   */\n      0x20\n        /* \"#utility.yul\":2216:2225   */\n      dup4\n        /* \"#utility.yul\":2212:2230   */\n      add\n        /* \"#utility.yul\":2199:2231   */\n      calldataload\n        /* \"#utility.yul\":2258:2276   */\n      0xffffffffffffffff\n        /* \"#utility.yul\":2250:2256   */\n      dup2\n        /* \"#utility.yul\":2247:2277   */\n      gt\n        /* \"#utility.yul\":2244:2361   */\n      iszero\n      tag_81\n      jumpi\n        /* \"#utility.yul\":2280:2359   */\n      tag_82\n      tag_83\n      jump\t// in\n    tag_82:\n        /* \"#utility.yul\":2244:2361   */\n    tag_81:\n        /* \"#utility.yul\":2385:2463   */\n      tag_84\n        /* \"#utility.yul\":2455:2462   */\n      dup6\n        /* \"#utility.yul\":2446:2452   */\n      dup3\n        /* \"#utility.yul\":2435:2444   */\n      dup7\n        /* \"#utility.yul\":2431:2453   */\n      add\n        /* \"#utility.yul\":2385:2463   */\n      tag_60\n      jump\t// in\n    tag_84:\n        /* \"#utility.yul\":2375:2463   */\n      swap2\n      pop\n        /* \"#utility.yul\":2170:2473   */\n      pop\n        /* \"#utility.yul\":1796:2480   */\n      swap3\n      pop\n      swap3\n      swap1\n      pop\n      jump\t// out\n        /* \"#utility.yul\":2486:2643   */\n    tag_85:\n        /* \"#utility.yul\":2586:2636   */\n      tag_87\n        /* \"#utility.yul\":2630:2635   */\n      dup2\n        /* \"#utility.yul\":2586:2636   */\n      tag_88\n      jump\t// in\n    tag_87:\n        /* \"#utility.yul\":2581:2584   */\n      dup3\n        /* \"#utility.yul\":2574:2637   */\n      mstore\n        /* \"#utility.yul\":2486:2643   */\n      pop\n      pop\n      jump\t// out\n        /* \"#utility.yul\":2649:2767   */\n    tag_89:\n        /* \"#utility.yul\":2736:2760   */\n      tag_91\n        /* \"#utility.yul\":2754:2759   */\n      dup2\n        /* \"#utility.yul\":2736:2760   */\n      tag_92\n      jump\t// in\n    tag_91:\n        /* \"#utility.yul\":2731:2734   */\n      dup3\n        /* \"#utility.yul\":2724:2761   */\n      mstore\n        /* \"#utility.yul\":2649:2767   */\n      pop\n      pop\n      jump\t// out\n        /* \"#utility.yul\":2773:3021   */\n    tag_16:\n        /* \"#utility.yul\":2879:2883   */\n      0x00\n        /* \"#utility.yul\":2917:2919   */\n      0x20\n        /* \"#utility.yul\":2906:2915   */\n      dup3\n        /* \"#utility.yul\":2902:2920   */\n      add\n        /* \"#utility.yul\":2894:2920   */\n      swap1\n      pop\n        /* \"#utility.yul\":2930:3014   */\n      tag_94\n        /* \"#utility.yul\":3011:3012   */\n      0x00\n        /* \"#utility.yul\":3000:3009   */\n      dup4\n        /* \"#utility.yul\":2996:3013   */\n      add\n        /* \"#utility.yul\":2987:2993   */\n      dup5\n        /* \"#utility.yul\":2930:3014   */\n      tag_85\n      jump\t// in\n    tag_94:\n        /* \"#utility.yul\":2773:3021   */\n      swap3\n      swap2\n      pop\n      pop\n      jump\t// out\n        /* \"#utility.yul\":3027:3249   */\n    tag_21:\n        /* \"#utility.yul\":3120:3124   */\n      0x00\n        /* \"#utility.yul\":3158:3160   */\n      0x20\n        /* \"#utility.yul\":3147:3156   */\n      dup3\n        /* \"#utility.yul\":3143:3161   */\n      add\n        /* \"#utility.yul\":3135:3161   */\n      swap1\n      pop\n        /* \"#utility.yul\":3171:3242   */\n      tag_96\n        /* \"#utility.yul\":3239:3240   */\n      0x00\n        /* \"#utility.yul\":3228:3237   */\n      dup4\n        /* \"#utility.yul\":3224:3241   */\n      add\n        /* \"#utility.yul\":3215:3221   */\n      dup5\n        /* \"#utility.yul\":3171:3242   */\n      tag_89\n      jump\t// in\n    tag_96:\n        /* \"#utility.yul\":3027:3249   */\n      swap3\n      swap2\n      pop\n      pop\n      jump\t// out\n        /* \"#utility.yul\":3255:3587   */\n    tag_44:\n        /* \"#utility.yul\":3376:3380   */\n      0x00\n        /* \"#utility.yul\":3414:3416   */\n      0x40\n        /* \"#utility.yul\":3403:3412   */\n      dup3\n        /* \"#utility.yul\":3399:3417   */\n      add\n        /* \"#utility.yul\":3391:3417   */\n      swap1\n      pop\n        /* \"#utility.yul\":3427:3498   */\n      tag_98\n        /* \"#utility.yul\":3495:3496   */\n      0x00\n        /* \"#utility.yul\":3484:3493   */\n      dup4\n        /* \"#utility.yul\":3480:3497   */\n      add\n        /* \"#utility.yul\":3471:3477   */\n      dup6\n        /* \"#utility.yul\":3427:3498   */\n      tag_89\n      jump\t// in\n    tag_98:\n        /* \"#utility.yul\":3508:3580   */\n      tag_99\n        /* \"#utility.yul\":3576:3578   */\n      0x20\n        /* \"#utility.yul\":3565:3574   */\n      dup4\n        /* \"#utility.yul\":3561:3579   */\n      add\n        /* \"#utility.yul\":3552:3558   */\n      dup5\n        /* \"#utility.yul\":3508:3580   */\n      tag_89\n      jump\t// in\n    tag_99:\n        /* \"#utility.yul\":3255:3587   */\n      swap4\n      swap3\n      pop\n      pop\n      pop\n      jump\t// out\n        /* \"#utility.yul\":3593:3722   */\n    tag_51:\n        /* \"#utility.yul\":3627:3633   */\n      0x00\n        /* \"#utility.yul\":3654:3674   */\n      tag_101\n      tag_102\n      jump\t// in\n    tag_101:\n        /* \"#utility.yul\":3644:3674   */\n      swap1\n      pop\n        /* \"#utility.yul\":3683:3716   */\n      tag_103\n        /* \"#utility.yul\":3711:3715   */\n      dup3\n        /* \"#utility.yul\":3703:3709   */\n      dup3\n        /* \"#utility.yul\":3683:3716   */\n      tag_104\n      jump\t// in\n    tag_103:\n        /* \"#utility.yul\":3593:3722   */\n      swap2\n      swap1\n      pop\n      jump\t// out\n        /* \"#utility.yul\":3728:3803   */\n    tag_102:\n        /* \"#utility.yul\":3761:3767   */\n      0x00\n        /* \"#utility.yul\":3794:3796   */\n      0x40\n        /* \"#utility.yul\":3788:3797   */\n      mload\n        /* \"#utility.yul\":3778:3797   */\n      swap1\n      pop\n        /* \"#utility.yul\":3728:3803   */\n      swap1\n      jump\t// out\n        /* \"#utility.yul\":3809:4120   */\n    tag_50:\n        /* \"#utility.yul\":3886:3890   */\n      0x00\n        /* \"#utility.yul\":3976:3994   */\n      0xffffffffffffffff\n        /* \"#utility.yul\":3968:3974   */\n      dup3\n        /* \"#utility.yul\":3965:3995   */\n      gt\n        /* \"#utility.yul\":3962:4018   */\n      iszero\n      tag_107\n      jumpi\n        /* \"#utility.yul\":3998:4016   */\n      tag_108\n      tag_109\n      jump\t// in\n    tag_108:\n        /* \"#utility.yul\":3962:4018   */\n    tag_107:\n        /* \"#utility.yul\":4048:4052   */\n      0x20\n        /* \"#utility.yul\":4040:4046   */\n      dup3\n        /* \"#utility.yul\":4036:4053   */\n      mul\n        /* \"#utility.yul\":4028:4053   */\n      swap1\n      pop\n        /* \"#utility.yul\":4108:4112   */\n      0x20\n        /* \"#utility.yul\":4102:4106   */\n      dup2\n        /* \"#utility.yul\":4098:4113   */\n      add\n        /* \"#utility.yul\":4090:4113   */\n      swap1\n      pop\n        /* \"#utility.yul\":3809:4120   */\n      swap2\n      swap1\n      pop\n      jump\t// out\n        /* \"#utility.yul\":4126:4252   */\n    tag_110:\n        /* \"#utility.yul\":4163:4170   */\n      0x00\n        /* \"#utility.yul\":4203:4245   */\n      0xffffffffffffffffffffffffffffffffffffffff\n        /* \"#utility.yul\":4196:4201   */\n      dup3\n        /* \"#utility.yul\":4192:4246   */\n      and\n        /* \"#utility.yul\":4181:4246   */\n      swap1\n      pop\n        /* \"#utility.yul\":4126:4252   */\n      swap2\n      swap1\n      pop\n      jump\t// out\n        /* \"#utility.yul\":4258:4335   */\n    tag_92:\n        /* \"#utility.yul\":4295:4302   */\n      0x00\n        /* \"#utility.yul\":4324:4329   */\n      dup2\n        /* \"#utility.yul\":4313:4329   */\n      swap1\n      pop\n        /* \"#utility.yul\":4258:4335   */\n      swap2\n      swap1\n      pop\n      jump\t// out\n        /* \"#utility.yul\":4341:4480   */\n    tag_88:\n        /* \"#utility.yul\":4404:4413   */\n      0x00\n        /* \"#utility.yul\":4437:4474   */\n      tag_114\n        /* \"#utility.yul\":4468:4473   */\n      dup3\n        /* \"#utility.yul\":4437:4474   */\n      tag_115\n      jump\t// in\n    tag_114:\n        /* \"#utility.yul\":4424:4474   */\n      swap1\n      pop\n        /* \"#utility.yul\":4341:4480   */\n      swap2\n      swap1\n      pop\n      jump\t// out\n        /* \"#utility.yul\":4486:4612   */\n    tag_115:\n        /* \"#utility.yul\":4536:4545   */\n      0x00\n        /* \"#utility.yul\":4569:4606   */\n      tag_117\n        /* \"#utility.yul\":4600:4605   */\n      dup3\n        /* \"#utility.yul\":4569:4606   */\n      tag_118\n      jump\t// in\n    tag_117:\n        /* \"#utility.yul\":4556:4606   */\n      swap1\n      pop\n        /* \"#utility.yul\":4486:4612   */\n      swap2\n      swap1\n      pop\n      jump\t// out\n        /* \"#utility.yul\":4618:4731   */\n    tag_118:\n        /* \"#utility.yul\":4668:4677   */\n      0x00\n        /* \"#utility.yul\":4701:4725   */\n      tag_120\n        /* \"#utility.yul\":4719:4724   */\n      dup3\n        /* \"#utility.yul\":4701:4725   */\n      tag_110\n      jump\t// in\n    tag_120:\n        /* \"#utility.yul\":4688:4725   */\n      swap1\n      pop\n        /* \"#utility.yul\":4618:4731   */\n      swap2\n      swap1\n      pop\n      jump\t// out\n        /* \"#utility.yul\":4737:5018   */\n    tag_104:\n        /* \"#utility.yul\":4820:4847   */\n      tag_122\n        /* \"#utility.yul\":4842:4846   */\n      dup3\n        /* \"#utility.yul\":4820:4847   */\n      tag_123\n      jump\t// in\n    tag_122:\n        /* \"#utility.yul\":4812:4818   */\n      dup2\n        /* \"#utility.yul\":4808:4848   */\n      add\n        /* \"#utility.yul\":4950:4956   */\n      dup2\n        /* \"#utility.yul\":4938:4948   */\n      dup2\n        /* \"#utility.yul\":4935:4957   */\n      lt\n        /* \"#utility.yul\":4914:4932   */\n      0xffffffffffffffff\n        /* \"#utility.yul\":4902:4912   */\n      dup3\n        /* \"#utility.yul\":4899:4933   */\n      gt\n        /* \"#utility.yul\":4896:4958   */\n      or\n        /* \"#utility.yul\":4893:4981   */\n      iszero\n      tag_124\n      jumpi\n        /* \"#utility.yul\":4961:4979   */\n      tag_125\n      tag_109\n      jump\t// in\n    tag_125:\n        /* \"#utility.yul\":4893:4981   */\n    tag_124:\n        /* \"#utility.yul\":5001:5011   */\n      dup1\n        /* \"#utility.yul\":4997:4999   */\n      0x40\n        /* \"#utility.yul\":4990:5012   */\n      mstore\n        /* \"#utility.yul\":4780:5018   */\n      pop\n        /* \"#utility.yul\":4737:5018   */\n      pop\n      pop\n      jump\t// out\n        /* \"#utility.yul\":5024:5204   */\n    tag_42:\n        /* \"#utility.yul\":5072:5149   */\n      0x4e487b7100000000000000000000000000000000000000000000000000000000\n        /* \"#utility.yul\":5069:5070   */\n      0x00\n        /* \"#utility.yul\":5062:5150   */\n      mstore\n        /* \"#utility.yul\":5169:5173   */\n      0x32\n        /* \"#utility.yul\":5166:5167   */\n      0x04\n        /* \"#utility.yul\":5159:5174   */\n      mstore\n        /* \"#utility.yul\":5193:5197   */\n      0x24\n        /* \"#utility.yul\":5190:5191   */\n      0x00\n        /* \"#utility.yul\":5183:5198   */\n      revert\n        /* \"#utility.yul\":5210:5390   */\n    tag_109:\n        /* \"#utility.yul\":5258:5335   */\n      0x4e487b7100000000000000000000000000000000000000000000000000000000\n        /* \"#utility.yul\":5255:5256   */\n      0x00\n        /* \"#utility.yul\":5248:5336   */\n      mstore\n        /* \"#utility.yul\":5355:5359   */\n      0x41\n        /* \"#utility.yul\":5352:5353   */\n      0x04\n        /* \"#utility.yul\":5345:5360   */\n      mstore\n        /* \"#utility.yul\":5379:5383   */\n      0x24\n        /* \"#utility.yul\":5376:5377   */\n      0x00\n        /* \"#utility.yul\":5369:5384   */\n      revert\n        /* \"#utility.yul\":5396:5513   */\n    tag_64:\n        /* \"#utility.yul\":5505:5506   */\n      0x00\n        /* \"#utility.yul\":5502:5503   */\n      dup1\n        /* \"#utility.yul\":5495:5507   */\n      revert\n        /* \"#utility.yul\":5519:5636   */\n    tag_54:\n        /* \"#utility.yul\":5628:5629   */\n      0x00\n        /* \"#utility.yul\":5625:5626   */\n      dup1\n        /* \"#utility.yul\":5618:5630   */\n      revert\n        /* \"#utility.yul\":5642:5759   */\n    tag_83:\n        /* \"#utility.yul\":5751:5752   */\n      0x00\n        /* \"#utility.yul\":5748:5749   */\n      dup1\n        /* \"#utility.yul\":5741:5753   */\n      revert\n        /* \"#utility.yul\":5765:5882   */\n    tag_75:\n        /* \"#utility.yul\":5874:5875   */\n      0x00\n        /* \"#utility.yul\":5871:5872   */\n      dup1\n        /* \"#utility.yul\":5864:5876   */\n      revert\n        /* \"#utility.yul\":5888:5990   */\n    tag_123:\n        /* \"#utility.yul\":5929:5935   */\n      0x00\n        /* \"#utility.yul\":5980:5982   */\n      0x1f\n        /* \"#utility.yul\":5976:5983   */\n      not\n        /* \"#utility.yul\":5971:5973   */\n      0x1f\n        /* \"#utility.yul\":5964:5969   */\n      dup4\n        /* \"#utility.yul\":5960:5974   */\n      add\n        /* \"#utility.yul\":5956:5984   */\n      and\n        /* \"#utility.yul\":5946:5984   */\n      swap1\n      pop\n        /* \"#utility.yul\":5888:5990   */\n      swap2\n      swap1\n      pop\n      jump\t// out\n        /* \"#utility.yul\":5996:6118   */\n    tag_68:\n        /* \"#utility.yul\":6069:6093   */\n      tag_134\n        /* \"#utility.yul\":6087:6092   */\n      dup2\n        /* \"#utility.yul\":6069:6093   */\n      tag_92\n      jump\t// in\n    tag_134:\n        /* \"#utility.yul\":6062:6067   */\n      dup2\n        /* \"#utility.yul\":6059:6094   */\n      eq\n        /* \"#utility.yul\":6049:6112   */\n      tag_135\n      jumpi\n        /* \"#utility.yul\":6108:6109   */\n      0x00\n        /* \"#utility.yul\":6105:6106   */\n      dup1\n        /* \"#utility.yul\":6098:6110   */\n      revert\n        /* \"#utility.yul\":6049:6112   */\n    tag_135:\n        /* \"#utility.yul\":5996:6118   */\n      pop\n      jump\t// out\n\n    auxdata: 0xa26469706673582212209db2021087a5dfb3ce7d91de30253b06b2060eef446cd092ac9925eb4b6ff5a664736f6c63430008070033\n}\n",
				"bytecode": {
					"linkReferences": {},
					"object": "60e0604052600860a09081525034801561001857600080fd5b506040516107a63803806107a6833981810160405281019061003a91906100c5565b808073ffffffffffffffffffffffffffffffffffffffff1660808173ffffffffffffffffffffffffffffffffffffffff1660601b81525050508073ffffffffffffffffffffffffffffffffffffffff1660c08173ffffffffffffffffffffffffffffffffffffffff1660601b8152505050610140565b6000815190506100bf81610129565b92915050565b6000602082840312156100db576100da610124565b5b60006100e9848285016100b0565b91505092915050565b60006100fd82610104565b9050919050565b600073ffffffffffffffffffffffffffffffffffffffff82169050919050565b600080fd5b610132816100f2565b811461013d57600080fd5b50565b60805160601c60a05160c05160601c61062661018060003960008181610127015261017101526000818161014b01526101ad0152600050506106266000f3fe60806040526004361061004a5760003560e01c8063164f00551461004f5780633bd359aa146100785780633eea160a146100a35780635119c478146100ce578063fd210fd9146100ec575b600080fd5b34801561005b57600080fd5b506100766004803603810190610071919061039b565b610117565b005b34801561008457600080fd5b5061008d610125565b60405161009a9190610415565b60405180910390f35b3480156100af57600080fd5b506100b8610149565b6040516100c59190610430565b60405180910390f35b6100d661016d565b6040516100e39190610430565b60405180910390f35b3480156100f857600080fd5b5061010161023f565b60405161010e9190610430565b60405180910390f35b6101218282610245565b5050565b7f000000000000000000000000000000000000000000000000000000000000000081565b7f000000000000000000000000000000000000000000000000000000000000000081565b60007f000000000000000000000000000000000000000000000000000000000000000073ffffffffffffffffffffffffffffffffffffffff16631eab71407f00000000000000000000000000000000000000000000000000000000000000006040518263ffffffff1660e01b81526004016101e89190610430565b602060405180830381600087803b15801561020257600080fd5b505af1158015610216573d6000803e3d6000fd5b505050506040513d601f19601f8201168201806040525081019061023a919061036e565b905090565b60005481565b8060008151811061025957610258610556565b5b60200260200101516000819055507f2da9f1ae57078fb423f33b8baa1478926b72c964a5c36daa13ab9b0fd65c579a6000548360405161029a92919061044b565b60405180910390a15050565b60006102b96102b484610499565b610474565b905080838252602082019050828560208602820111156102dc576102db6105b9565b5b60005b8581101561030c57816102f28882610344565b8452602084019350602083019250506001810190506102df565b5050509392505050565b600082601f83011261032b5761032a6105b4565b5b813561033b8482602086016102a6565b91505092915050565b600081359050610353816105d9565b92915050565b600081519050610368816105d9565b92915050565b600060208284031215610384576103836105c3565b5b600061039284828501610359565b91505092915050565b600080604083850312156103b2576103b16105c3565b5b60006103c085828601610344565b925050602083013567ffffffffffffffff8111156103e1576103e06105be565b5b6103ed85828601610316565b9150509250929050565b610400816104ef565b82525050565b61040f816104e5565b82525050565b600060208201905061042a60008301846103f7565b92915050565b60006020820190506104456000830184610406565b92915050565b60006040820190506104606000830185610406565b61046d6020830184610406565b9392505050565b600061047e61048f565b905061048a8282610525565b919050565b6000604051905090565b600067ffffffffffffffff8211156104b4576104b3610585565b5b602082029050602081019050919050565b600073ffffffffffffffffffffffffffffffffffffffff82169050919050565b6000819050919050565b60006104fa82610501565b9050919050565b600061050c82610513565b9050919050565b600061051e826104c5565b9050919050565b61052e826105c8565b810181811067ffffffffffffffff8211171561054d5761054c610585565b5b80604052505050565b7f4e487b7100000000000000000000000000000000000000000000000000000000600052603260045260246000fd5b7f4e487b7100000000000000000000000000000000000000000000000000000000600052604160045260246000fd5b600080fd5b600080fd5b600080fd5b600080fd5b6000601f19601f8301169050919050565b6105e2816104e5565b81146105ed57600080fd5b5056fea26469706673582212209db2021087a5dfb3ce7d91de30253b06b2060eef446cd092ac9925eb4b6ff5a664736f6c63430008070033",
					"opcodes": "PUSH1 0xE0 PUSH1 0x40 MSTORE PUSH1 0x8 PUSH1 0xA0 SWAP1 DUP2 MSTORE POP CALLVALUE DUP1 ISZERO PUSH2 0x18 JUMPI PUSH1 0x0 DUP1 REVERT JUMPDEST POP PUSH1 0x40 MLOAD PUSH2 0x7A6 CODESIZE SUB DUP1 PUSH2 0x7A6 DUP4 CODECOPY DUP2 DUP2 ADD PUSH1 0x40 MSTORE DUP2 ADD SWAP1 PUSH2 0x3A SWAP2 SWAP1 PUSH2 0xC5 JUMP JUMPDEST DUP1 DUP1 PUSH20 0xFFFFFFFFFFFFFFFFFFFFFFFFFFFFFFFFFFFFFFFF AND PUSH1 0x80 DUP2 PUSH20 0xFFFFFFFFFFFFFFFFFFFFFFFFFFFFFFFFFFFFFFFF AND PUSH1 0x60 SHL DUP2 MSTORE POP POP POP DUP1 PUSH20 0xFFFFFFFFFFFFFFFFFFFFFFFFFFFFFFFFFFFFFFFF AND PUSH1 0xC0 DUP2 PUSH20 0xFFFFFFFFFFFFFFFFFFFFFFFFFFFFFFFFFFFFFFFF AND PUSH1 0x60 SHL DUP2 MSTORE POP POP POP PUSH2 0x140 JUMP JUMPDEST PUSH1 0x0 DUP2 MLOAD SWAP1 POP PUSH2 0xBF DUP2 PUSH2 0x129 JUMP JUMPDEST SWAP3 SWAP2 POP POP JUMP JUMPDEST PUSH1 0x0 PUSH1 0x20 DUP3 DUP5 SUB SLT ISZERO PUSH2 0xDB JUMPI PUSH2 0xDA PUSH2 0x124 JUMP JUMPDEST JUMPDEST PUSH1 0x0 PUSH2 0xE9 DUP5 DUP3 DUP6 ADD PUSH2 0xB0 JUMP JUMPDEST SWAP2 POP POP SWAP3 SWAP2 POP POP JUMP JUMPDEST PUSH1 0x0 PUSH2 0xFD DUP3 PUSH2 0x104 JUMP JUMPDEST SWAP1 POP SWAP2 SWAP1 POP JUMP JUMPDEST PUSH1 0x0 PUSH20 0xFFFFFFFFFFFFFFFFFFFFFFFFFFFFFFFFFFFFFFFF DUP3 AND SWAP1 POP SWAP2 SWAP1 POP JUMP JUMPDEST PUSH1 0x0 DUP1 REVERT JUMPDEST PUSH2 0x132 DUP2 PUSH2 0xF2 JUMP JUMPDEST DUP2 EQ PUSH2 0x13D JUMPI PUSH1 0x0 DUP1 REVERT JUMPDEST POP JUMP JUMPDEST PUSH1 0x80 MLOAD PUSH1 0x60 SHR PUSH1 0xA0 MLOAD PUSH1 0xC0 MLOAD PUSH1 0x60 SHR PUSH2 0x626 PUSH2 0x180 PUSH1 0x0 CODECOPY PUSH1 0x0 DUP2 DUP2 PUSH2 0x127 ADD MSTORE PUSH2 0x171 ADD MSTORE PUSH1 0x0 DUP2 DUP2 PUSH2 0x14B ADD MSTORE PUSH2 0x1AD ADD MSTORE PUSH1 0x0 POP POP PUSH2 0x626 PUSH1 0x0 RETURN INVALID PUSH1 0x80 PUSH1 0x40 MSTORE PUSH1 0x4 CALLDATASIZE LT PUSH2 0x4A JUMPI PUSH1 0x0 CALLDATALOAD PUSH1 0xE0 SHR DUP1 PUSH4 0x164F0055 EQ PUSH2 0x4F JUMPI DUP1 PUSH4 0x3BD359AA EQ PUSH2 0x78 JUMPI DUP1 PUSH4 0x3EEA160A EQ PUSH2 0xA3 JUMPI DUP1 PUSH4 0x5119C478 EQ PUSH2 0xCE JUMPI DUP1 PUSH4 0xFD210FD9 EQ PUSH2 0xEC JUMPI JUMPDEST PUSH1 0x0 DUP1 REVERT JUMPDEST CALLVALUE DUP1 ISZERO PUSH2 0x5B JUMPI PUSH1 0x0 DUP1 REVERT JUMPDEST POP PUSH2 0x76 PUSH1 0x4 DUP1 CALLDATASIZE SUB DUP2 ADD SWAP1 PUSH2 0x71 SWAP2 SWAP1 PUSH2 0x39B JUMP JUMPDEST PUSH2 0x117 JUMP JUMPDEST STOP JUMPDEST CALLVALUE DUP1 ISZERO PUSH2 0x84 JUMPI PUSH1 0x0 DUP1 REVERT JUMPDEST POP PUSH2 0x8D PUSH2 0x125 JUMP JUMPDEST PUSH1 0x40 MLOAD PUSH2 0x9A SWAP2 SWAP1 PUSH2 0x415 JUMP JUMPDEST PUSH1 0x40 MLOAD DUP1 SWAP2 SUB SWAP1 RETURN JUMPDEST CALLVALUE DUP1 ISZERO PUSH2 0xAF JUMPI PUSH1 0x0 DUP1 REVERT JUMPDEST POP PUSH2 0xB8 PUSH2 0x149 JUMP JUMPDEST PUSH1 0x40 MLOAD PUSH2 0xC5 SWAP2 SWAP1 PUSH2 0x430 JUMP JUMPDEST PUSH1 0x40 MLOAD DUP1 SWAP2 SUB SWAP1 RETURN JUMPDEST PUSH2 0xD6 PUSH2 0x16D JUMP JUMPDEST PUSH1 0x40 MLOAD PUSH2 0xE3 SWAP2 SWAP1 PUSH2 0x430 JUMP JUMPDEST PUSH1 0x40 MLOAD DUP1 SWAP2 SUB SWAP1 RETURN JUMPDEST CALLVALUE DUP1 ISZERO PUSH2 0xF8 JUMPI PUSH1 0x0 DUP1 REVERT JUMPDEST POP PUSH2 0x101 PUSH2 0x23F JUMP JUMPDEST PUSH1 0x40 MLOAD PUSH2 0x10E SWAP2 SWAP1 PUSH2 0x430 JUMP JUMPDEST PUSH1 0x40 MLOAD DUP1 SWAP2 SUB SWAP1 RETURN JUMPDEST PUSH2 0x121 DUP3 DUP3 PUSH2 0x245 JUMP JUMPDEST POP POP JUMP JUMPDEST PUSH32 0x0 DUP2 JUMP JUMPDEST PUSH32 0x0 DUP2 JUMP JUMPDEST PUSH1 0x0 PUSH32 0x0 PUSH20 0xFFFFFFFFFFFFFFFFFFFFFFFFFFFFFFFFFFFFFFFF AND PUSH4 0x1EAB7140 PUSH32 0x0 PUSH1 0x40 MLOAD DUP3 PUSH4 0xFFFFFFFF AND PUSH1 0xE0 SHL DUP2 MSTORE PUSH1 0x4 ADD PUSH2 0x1E8 SWAP2 SWAP1 PUSH2 0x430 JUMP JUMPDEST PUSH1 0x20 PUSH1 0x40 MLOAD DUP1 DUP4 SUB DUP2 PUSH1 0x0 DUP8 DUP1 EXTCODESIZE ISZERO DUP1 ISZERO PUSH2 0x202 JUMPI PUSH1 0x0 DUP1 REVERT JUMPDEST POP GAS CALL ISZERO DUP1 ISZERO PUSH2 0x216 JUMPI RETURNDATASIZE PUSH1 0x0 DUP1 RETURNDATACOPY RETURNDATASIZE PUSH1 0x0 REVERT JUMPDEST POP POP POP POP PUSH1 0x40 MLOAD RETURNDATASIZE PUSH1 0x1F NOT PUSH1 0x1F DUP3 ADD AND DUP3 ADD DUP1 PUSH1 0x40 MSTORE POP DUP2 ADD SWAP1 PUSH2 0x23A SWAP2 SWAP1 PUSH2 0x36E JUMP JUMPDEST SWAP1 POP SWAP1 JUMP JUMPDEST PUSH1 0x0 SLOAD DUP2 JUMP JUMPDEST DUP1 PUSH1 0x0 DUP2 MLOAD DUP2 LT PUSH2 0x259 JUMPI PUSH2 0x258 PUSH2 0x556 JUMP JUMPDEST JUMPDEST PUSH1 0x20 MUL PUSH1 0x20 ADD ADD MLOAD PUSH1 0x0 DUP2 SWAP1 SSTORE POP PUSH32 0x2DA9F1AE57078FB423F33B8BAA1478926B72C964A5C36DAA13AB9B0FD65C579A PUSH1 0x0 SLOAD DUP4 PUSH1 0x40 MLOAD PUSH2 0x29A SWAP3 SWAP2 SWAP1 PUSH2 0x44B JUMP JUMPDEST PUSH1 0x40 MLOAD DUP1 SWAP2 SUB SWAP1 LOG1 POP POP JUMP JUMPDEST PUSH1 0x0 PUSH2 0x2B9 PUSH2 0x2B4 DUP5 PUSH2 0x499 JUMP JUMPDEST PUSH2 0x474 JUMP JUMPDEST SWAP1 POP DUP1 DUP4 DUP3 MSTORE PUSH1 0x20 DUP3 ADD SWAP1 POP DUP3 DUP6 PUSH1 0x20 DUP7 MUL DUP3 ADD GT ISZERO PUSH2 0x2DC JUMPI PUSH2 0x2DB PUSH2 0x5B9 JUMP JUMPDEST JUMPDEST PUSH1 0x0 JUMPDEST DUP6 DUP2 LT ISZERO PUSH2 0x30C JUMPI DUP2 PUSH2 0x2F2 DUP9 DUP3 PUSH2 0x344 JUMP JUMPDEST DUP5 MSTORE PUSH1 0x20 DUP5 ADD SWAP4 POP PUSH1 0x20 DUP4 ADD SWAP3 POP POP PUSH1 0x1 DUP2 ADD SWAP1 POP PUSH2 0x2DF JUMP JUMPDEST POP POP POP SWAP4 SWAP3 POP POP POP JUMP JUMPDEST PUSH1 0x0 DUP3 PUSH1 0x1F DUP4 ADD SLT PUSH2 0x32B JUMPI PUSH2 0x32A PUSH2 0x5B4 JUMP JUMPDEST JUMPDEST DUP2 CALLDATALOAD PUSH2 0x33B DUP5 DUP3 PUSH1 0x20 DUP7 ADD PUSH2 0x2A6 JUMP JUMPDEST SWAP2 POP POP SWAP3 SWAP2 POP POP JUMP JUMPDEST PUSH1 0x0 DUP2 CALLDATALOAD SWAP1 POP PUSH2 0x353 DUP2 PUSH2 0x5D9 JUMP JUMPDEST SWAP3 SWAP2 POP POP JUMP JUMPDEST PUSH1 0x0 DUP2 MLOAD SWAP1 POP PUSH2 0x368 DUP2 PUSH2 0x5D9 JUMP JUMPDEST SWAP3 SWAP2 POP POP JUMP JUMPDEST PUSH1 0x0 PUSH1 0x20 DUP3 DUP5 SUB SLT ISZERO PUSH2 0x384 JUMPI PUSH2 0x383 PUSH2 0x5C3 JUMP JUMPDEST JUMPDEST PUSH1 0x0 PUSH2 0x392 DUP5 DUP3 DUP6 ADD PUSH2 0x359 JUMP JUMPDEST SWAP2 POP POP SWAP3 SWAP2 POP POP JUMP JUMPDEST PUSH1 0x0 DUP1 PUSH1 0x40 DUP4 DUP6 SUB SLT ISZERO PUSH2 0x3B2 JUMPI PUSH2 0x3B1 PUSH2 0x5C3 JUMP JUMPDEST JUMPDEST PUSH1 0x0 PUSH2 0x3C0 DUP6 DUP3 DUP7 ADD PUSH2 0x344 JUMP JUMPDEST SWAP3 POP POP PUSH1 0x20 DUP4 ADD CALLDATALOAD PUSH8 0xFFFFFFFFFFFFFFFF DUP2 GT ISZERO PUSH2 0x3E1 JUMPI PUSH2 0x3E0 PUSH2 0x5BE JUMP JUMPDEST JUMPDEST PUSH2 0x3ED DUP6 DUP3 DUP7 ADD PUSH2 0x316 JUMP JUMPDEST SWAP2 POP POP SWAP3 POP SWAP3 SWAP1 POP JUMP JUMPDEST PUSH2 0x400 DUP2 PUSH2 0x4EF JUMP JUMPDEST DUP3 MSTORE POP POP JUMP JUMPDEST PUSH2 0x40F DUP2 PUSH2 0x4E5 JUMP JUMPDEST DUP3 MSTORE POP POP JUMP JUMPDEST PUSH1 0x0 PUSH1 0x20 DUP3 ADD SWAP1 POP PUSH2 0x42A PUSH1 0x0 DUP4 ADD DUP5 PUSH2 0x3F7 JUMP JUMPDEST SWAP3 SWAP2 POP POP JUMP JUMPDEST PUSH1 0x0 PUSH1 0x20 DUP3 ADD SWAP1 POP PUSH2 0x445 PUSH1 0x0 DUP4 ADD DUP5 PUSH2 0x406 JUMP JUMPDEST SWAP3 SWAP2 POP POP JUMP JUMPDEST PUSH1 0x0 PUSH1 0x40 DUP3 ADD SWAP1 POP PUSH2 0x460 PUSH1 0x0 DUP4 ADD DUP6 PUSH2 0x406 JUMP JUMPDEST PUSH2 0x46D PUSH1 0x20 DUP4 ADD DUP5 PUSH2 0x406 JUMP JUMPDEST SWAP4 SWAP3 POP POP POP JUMP JUMPDEST PUSH1 0x0 PUSH2 0x47E PUSH2 0x48F JUMP JUMPDEST SWAP1 POP PUSH2 0x48A DUP3 DUP3 PUSH2 0x525 JUMP JUMPDEST SWAP2 SWAP1 POP JUMP JUMPDEST PUSH1 0x0 PUSH1 0x40 MLOAD SWAP1 POP SWAP1 JUMP JUMPDEST PUSH1 0x0 PUSH8 0xFFFFFFFFFFFFFFFF DUP3 GT ISZERO PUSH2 0x4B4 JUMPI PUSH2 0x4B3 PUSH2 0x585 JUMP JUMPDEST JUMPDEST PUSH1 0x20 DUP3 MUL SWAP1 POP PUSH1 0x20 DUP2 ADD SWAP1 POP SWAP2 SWAP1 POP JUMP JUMPDEST PUSH1 0x0 PUSH20 0xFFFFFFFFFFFFFFFFFFFFFFFFFFFFFFFFFFFFFFFF DUP3 AND SWAP1 POP SWAP2 SWAP1 POP JUMP JUMPDEST PUSH1 0x0 DUP2 SWAP1 POP SWAP2 SWAP1 POP JUMP JUMPDEST PUSH1 0x0 PUSH2 0x4FA DUP3 PUSH2 0x501 JUMP JUMPDEST SWAP1 POP SWAP2 SWAP1 POP JUMP JUMPDEST PUSH1 0x0 PUSH2 0x50C DUP3 PUSH2 0x513 JUMP JUMPDEST SWAP1 POP SWAP2 SWAP1 POP JUMP JUMPDEST PUSH1 0x0 PUSH2 0x51E DUP3 PUSH2 0x4C5 JUMP JUMPDEST SWAP1 POP SWAP2 SWAP1 POP JUMP JUMPDEST PUSH2 0x52E DUP3 PUSH2 0x5C8 JUMP JUMPDEST DUP2 ADD DUP2 DUP2 LT PUSH8 0xFFFFFFFFFFFFFFFF DUP3 GT OR ISZERO PUSH2 0x54D JUMPI PUSH2 0x54C PUSH2 0x585 JUMP JUMPDEST JUMPDEST DUP1 PUSH1 0x40 MSTORE POP POP POP JUMP JUMPDEST PUSH32 0x4E487B7100000000000000000000000000000000000000000000000000000000 PUSH1 0x0 MSTORE PUSH1 0x32 PUSH1 0x4 MSTORE PUSH1 0x24 PUSH1 0x0 REVERT JUMPDEST PUSH32 0x4E487B7100000000000000000000000000000000000000000000000000000000 PUSH1 0x0 MSTORE PUSH1 0x41 PUSH1 0x4 MSTORE PUSH1 0x24 PUSH1 0x0 REVERT JUMPDEST PUSH1 0x0 DUP1 REVERT JUMPDEST PUSH1 0x0 DUP1 REVERT JUMPDEST PUSH1 0x0 DUP1 REVERT JUMPDEST PUSH1 0x0 DUP1 REVERT JUMPDEST PUSH1 0x0 PUSH1 0x1F NOT PUSH1 0x1F DUP4 ADD AND SWAP1 POP SWAP2 SWAP1 POP JUMP JUMPDEST PUSH2 0x5E2 DUP2 PUSH2 0x4E5 JUMP JUMPDEST DUP2 EQ PUSH2 0x5ED JUMPI PUSH1 0x0 DUP1 REVERT JUMPDEST POP JUMP INVALID LOG2 PUSH5 0x6970667358 0x22 SLT KECCAK256 SWAP14 0xB2 MUL LT DUP8 0xA5 0xDF 0xB3 0xCE PUSH30 0x91DE30253B06B2060EEF446CD092AC9925EB4B6FF5A664736F6C63430008 SMOD STOP CALLER "
				},
				"gasEstimates": {
					"creation": {
						"codeDepositCost": "314800",
						"executionCost": "infinite",
						"totalCost": "infinite"
					},
					"external": {
						"i_argument()": "infinite",
						"i_mock()": "infinite",
						"internalRequest()": "infinite",
						"rawExternalContractFunction(uint256,uint256[])": "infinite",
						"s_randomWord()": "2495"
					},
					"internal": {
						"externalContractFunction(uint256,uint256[] memory)": "infinite"
					}
				},
				"methodIdentifiers": {
					"i_argument()": "3eea160a",
					"i_mock()": "3bd359aa",
					"internalRequest()": "5119c478",
					"rawExternalContractFunction(uint256,uint256[])": "164f0055",
					"s_randomWord()": "fd210fd9"
				}
			},
			"storageLayout": {
				"storage": [
					{
						"astId": 10,
						"contract": "contracts/4_Base.sol:Base",
						"label": "s_randomWord",
						"offset": 0,
						"slot": "0",
						"type": "t_uint256"
					}
				],
				"types": {
					"t_uint256": {
						"encoding": "inplace",
						"label": "uint256",
						"numberOfBytes": "32"
					}
				}
			},
			"userdoc": {
				"kind": "user",
				"methods": {},
				"version": 1
			}
		}
	}
}